:020000040001F9
:10C00000B04E002005C501000DC501000FC501009F
:10C0100011C5010013C5010015C501000000000095
:10C0200000000000000000000000000017C5010033
:10C0300019C50100000000001BC501001DC501005D
:10C040001FC501001FC5010031D3010071CF0100E0
:10C050001FC501001FC5010015CB0100CDCD01009A
:10C060001FC501001FC501001FC501001FC501003C
:10C070001FC501001FC501001FC501001FC501002C
:10C080001FC50100B5CD01001FC501001FC501007E
:10C0900081CF01001FC5010085CF01001FC5010030
:10C0A0001FC501001FC501001FC501001FC50100FC
:10C0B0001FC501001FC501000000000000000000B6
:10C0C0001FC501001FC501001FC501001FC50100DC
:10C0D0001FC501001FC501001FC5010000000000B1
:10C0E0000000000000000000000000000000000050
:10C0F0000000000000000000000000000000000040
:10C10000000000000000000000000000000000002F
:10C11000000000000000000000000000000000001F
:10C40000DFF80CD000F0C8FA004800479114020091
:10C41000B04E0020401E00BF00BF00BF00BF00BFE5
:10C4200000BF00BF00BF00BF00BF00BF00BF00BF14
:10C4300000BF00BF00BF00BF00BF00BF00BF00BF04
:10C4400000BF00BF00BF00BF00BF00BF00BF00BFF4
:10C4500000BF00BF00BF00BF00BF00BF00BF00BFE4
:10C4600000BF00BF00BF00BF00BF00BF00BF00BFD4
:10C4700000BF00BF00BF00BF00BF00BF00BF00BFC4
:10C4800000BF00BF00BFC5D170470000401E00BF05
:10C4900000BF00BF00BF00BF00BF00BF00BF00BFA4
:10C4A00000BF00BF00BF00BF00BF00BF00BF00BF94
:10C4B00000BF00BF00BF00BF00BF00BF00BF00BF84
:10C4C00000BF00BF00BF00BF00BF00BF00BF00BF74
:10C4D00000BF00BF00BF00BF00BF00BF00BF00BF64
:10C4E00000BF00BF00BF00BF00BF00BF00BF00BF54
:10C4F00000BF00BF00BF00BF00BF00BF00BFC5D16D
:10C50000704700000648804706480047FEE7FEE700
:10C51000FEE7FEE7FEE7FEE7FEE7FEE7FEE7FEE7F3
:10C520004DD1010001C4010040EA01039B0703D083
:10C5300009E008C9121F08C0042AFAD203E011F862
:10C54000013B00F8013B521EF9D27047D2B201E024
:10C5500000F8012B491EFBD270470022F6E710B508
:10C5600013460A4604461946FFF7F0FF204610BD61
:10C57000421C10F8011B0029FBD1801A704730B50E
:10C5800004460020034600E05B1C934203D2E05CBB
:10C59000CD5C401BF8D030BD30B50B4601460020C5
:10C5A0002022012409E021FA02F59D4205D303FA75
:10C5B00002F5491B04FA02F52844151EA2F10102F6
:10C5C000F1DC30BD2DE9F05F0546002092469B4628
:10C5D00088460646814640241BE028464146474699
:10C5E000224600F0FAF953465A46C01A914110D338
:10C5F00011461846224600F0E1F92D1A67EB0108B2
:10C600004F4622460120002100F0D8F917EB00091F
:10C610004E41201EA4F10104DFDC484631462A4683
:10C620004346BDE8F09F2DE9FE4F804681EA0300B6
:10C63000C00F0C46009021F0004123F00045B8EBFC
:10C640000200A94105D24046214690461C460B46B1
:10C65000024623F00040104347D0270DC7F30A00DD
:10C66000C3F30A510290401A019040286BDAC3F3D9
:10C67000130040F4801B0098924620B10023D2EBB7
:10C68000030A63EB0B0B01985946C0F14002504678
:10C6900000F094F906460D4650465946019A00F0BE
:10C6A000ACF910EB08006141002487EA115284EADA
:10C6B000E7731A4340D0009A62B3019A012A4FEA05
:10C6C000075215DC001B61EB02014FF0004202EA49
:10C6D0000752CDE90042001C41F5801132462B463D
:10C6E00000F0ACF903B0BDE8F08F40462146F9E711
:10C6F000001B61EB0201001C41F5801300185B4137
:10C700002018A2F5001747EB030140EAD570B619CF
:10C710006D4111E06D084FEA360645EAC0754FEAF3
:10C720000752001B61EB0201001C41F58011490812
:10C730004FEA30000019514132462B4603B0BDE8A4
:10C74000F04F00F06CB90098012240000023D0EBBC
:10C75000020263EBE073009821464FEAE074B8EB05
:10C76000000061EB0401E9E783F000435BE781F03F
:10C77000004158E72DE9FE4F81EA030404F000442C
:10C7800021F0004100944FF0000B23F0004350EAE9
:10C7900001045ED052EA03045BD0C3F30A54C1F330
:10C7A0000A552C44A4F2F3340194A0FB0254C1F3C3
:10C7B000130141F48011C3F3130343F4801301FB0D
:10C7C000024400FB034E840A970A44EA815447EA74
:10C7D0008357A4FB076802958D0A05FB07854FEA7E
:10C7E000932C04FB0C542705029D4FEA065847EA98
:10C7F0001637B5EB08056EEB070C870E920E47EA6D
:10C80000811742EA8312A7FB0201B6EB0B0164EB2E
:10C8100000042B0D43EA0C335E1844EB1C50DA463F
:10C820005146E7FB0201C5F313044FEA0B3343EA19
:10C8300014534FEA0432019C43EA0603A4F10C04AA
:10C840000294009CCDE900B400F0F8F803B0BDE814
:10C85000F08F00200146F9E72DE9F04D81EA03044D
:10C8600004F0004B21F0004514464FF0000A23F07D
:10C87000004150EA050220D054EA01021DD0C5F360
:10C880000A570246C5F31303C1F31300C1F30A5656
:10C8900040F4801543F48013A7EB0608101BD6461E
:10C8A00008F2FD3873EB050002D308F1010801E03E
:10C8B00092185B41B8F1000F03DA00200146BDE891
:10C8C000F08D00204FF48011064684460EE0171BC1
:10C8D00073EB050705D3121B63EB050306434CEA14
:10C8E000010C49084FEA300092185B4150EA0107F9
:10C8F000EDD152EA030012D082EA040083EA050176
:10C90000084305D0101BAB4106D20122002306E0EC
:10C9100000224FF0004302E06FF0010253101AEBC7
:10C9200006004CEB085110EB0A0041EB0B01BDE88F
:10C93000F04D00F074B8C1F30A52C1F3130140F294
:10C94000FF3341F480119A4202DA00200146704719
:10C9500040F233439A42A2F2334202DC524200F0E8
:10C960003CB800F02BB8000030B5041E71F1000493
:10C9700004DB4FF00044404264EB0101141E73F1EC
:10C98000000405DB1C464FF00043524263EB0403F6
:10C99000994208BF904230BD064C074D06E0E06862
:10C9A00040F0010394E8070098471034AC42F6D3F6
:10C9B000FFF72AFDB4400200D4400200202A04DB25
:10C9C000203A00FA02F1002070479140C2F12003A2
:10C9D00020FA03F3194390407047202A04DB203AE1
:10C9E00021FA02F00021704721FA02F3D040C2F18F
:10C9F00020029140084319467047202A06DBCB17D6
:10CA0000203A41FA02F043EAE07306E041FA02F309
:10CA1000D040C2F12002914008431946704710B53A
:10CA2000141E73F1000408DA401C41F10001921851
:10CA30005B411A4301D120F0010010BD2DE9F04DFA
:10CA400092469B4611B1B1FA81F202E0B0FA80F24F
:10CA500020329046FFF7B2FF04460F4640EA0A0034
:10CA600041EA0B0153465A46084313D0114653EA94
:10CA7000010019D0C8F140025046FFF7AEFF05464D
:10CA80000E46504659464246FFF798FF084305D0E8
:10CA9000012004E020463946BDE8F08D0020054322
:10CAA00046EAE0762C4337430A986305E40AA0EB94
:10CAB00008000022FD0A44EA47540A3002D500204B
:10CAC0000146E9E7010510196941DDE9084500194A
:10CAD0006941BDE8F04DA2E730B58C1810F8012B84
:10CAE00012F00F0301D110F8013B120906D110F822
:10CAF000012B03E010F8015B01F8015B5B1EF9D12B
:10CB000001E001F8013B521EFBD1A142E6D3002017
:10CB100030BD00002DE9F84F0025A9464FF480787C
:10CB2000012400264B4F404605F09AFA38B1D7F859
:10CB30000403204018B1404605F088FA25436400FC
:10CB400008F104081FFA88F8761C082EEBD34FF47E
:10CB5000BE74204605F084FA38B1204605F076FA16
:10CB600045F000453C48D0F80090DFF8F08015F023
:10CB7000FF0F14D0012600242E420CD007EB8401B5
:10CB8000D1F81005C0F30420D1F81015C1F301410C
:10CB900058F8242090477600641C082CECD3002D14
:10CBA00056DA4FF0000B4FF0FF30009000240025C4
:10CBB0002A4F791911F8500F20F0C00A91F900108E
:10CBC000491C34D04FF00108009908FA0AF818EA15
:10CBD000010F2CD08609504602F094FC57F82070C3
:10CBE0000FB9032E23D1032E01D14BEA080B4FEAD4
:10CBF0008A0000F1A040D0F80007C0F3014018EA15
:10CC0000090801D0022804D0B8F1000F0FD1032881
:10CC10000DD1032E07D1022813D00221504605F072
:10CC2000FEF9641CE4B217B131465046B8476D1C9A
:10CC3000042DBDD354B108480068484503D10024F1
:10CC400004E00321EAE78146CDF800B0002CADD125
:10CC5000BDE8F88F0060004010050050502A002009
:10CC600010B5012802D0022804D101E0344C01E0C3
:10CC7000334CA834B1F9000000EE100AF8EEC00AF7
:10CC80009FED300A60EE800AC4ED020AB1F902009D
:10CC900000EE900AF8EEE00A60EE800AC4ED030AA6
:10CCA000B1F9040000EE900AF8EEE00A20EE800AE6
:10CCB00084ED040AB1F9060000EE100AF8EEC00A8D
:10CCC0009FED210A60EE800AC4ED050AB1F9080063
:10CCD00000EE900AF8EEE00A60EE800AC4ED060A63
:10CCE000B1F90A0000EE900AF8EEE00A20EE800AA0
:10CCF00084ED070AB2F9000000EE100AF8EEC00A4F
:10CD00009FED120A60EE800AC4ED080AB2F9020033
:10CD100000EE900AF8EEE00A60EE800AC4ED090A1F
:10CD2000B2F9040000EE900AF8EEE00A20EE800A64
:10CD300084ED0A0A03F0D6FEC4F8A40010BD00007A
:10CD4000282500200000003A7922A03A82A87B37EB
:10CD500000F01F02012191404009800000F1E02015
:10CD6000C0F88012704700F01F0201219140400975
:10CD7000800000F1E020C0F80011704700F01F02B1
:10CD8000012191404009800000F1E020C0F800122C
:10CD900070474907090E002806DA00F00F0000F17D
:10CDA000E02080F8141D704700F1E02080F80014A6
:10CDB0007047000004480021016441648164C1643B
:10CDC0000160416006F018BB001101402DE9FE43EF
:10CDD0004FF4827005F08EF90027DFF88491DFF8B8
:10CDE00084810126002826D05F48076098F8290032
:10CDF000012821D0B8F80A00401CA8F80A00B8F8A9
:10CE00000A00B8F80810814234D18DF80070D8F8C3
:10CE100004000190B8F80800ADF8080088F8277001
:10CE2000D8F80C0018B1B8F8141004F013FDD8F8B5
:10CE300000106846884762E08DF80070D8F804005A
:10CE400001904A480068ADF80800D8F80C0070B1AD
:10CE5000C8F80400B8F81400A8F80800C8F80C7066
:10CE6000C9F80060D8F800106846884747E088F89D
:10CE70002770F7E798F828000022114605F030F9EE
:10CE8000B8F80A10D8F8040000EB4100012105F0C1
:10CE9000F1F898F82800401C88F8280015E008EB05
:10CEA0004001897D71B198F8281008EB4101CA7DD5
:10CEB000897D05F015F9C9F800602948001D066054
:10CEC000BDE8FE83401C88F8280098F82800082850
:10CED000E5D3002008EB4001897D11B188F82800D6
:10CEE00003E0401CC0B20828F4D398F8280008EBEF
:10CEF0004001CA7D897D05F0F3F8C9F800604FF460
:10CF00008A7005F0F7F828B117481030076088F8E4
:10CF10002770D5E7D8F810401FE0B4FA84F04FF03E
:10CF20000041C1408C434FF48C7101EB80052846D1
:10CF300005F0E0F888B145F809708DF80060A5F5B6
:10CF40008C75E8088DF8040045F38000401C8DF8CE
:10CF50000500D8F8001068468847002CDDD1AFE7FF
:10CF600000700040F02A0020047100403476004038
:10CF70000149024803F0AEBFC82A0020003000403B
:10CF800006F07AB910B508484068002806D08047F6
:10CF9000002807D0BDE8104000F09CBFBDE810405D
:10CFA00003F062BF10BD00000822002070B52DED17
:10CFB000028B88B0142103A8FFF7CFFA03F06CFDB1
:10CFC0000446142103A8FFF7C8FA142203A96846EF
:10CFD00006F072F802221146684606F074F809223B
:10CFE0002146684606F06FF8504801784A1C0270E6
:10CFF0000322684606F067F84D4C94ED080A9FED51
:10D000004D8A20EE080ABDEEC00A10EE100A01B2E9
:10D0100094ED090A20EE080ABDEEC00A10EE100ACF
:10D0200005B294ED0A0A20EE080ABDEEC00A10EE21
:10D03000100A06B20A22684606F045F80A22294676
:10D04000684606F040F80A223146684606F03BF88A
:10D0500004220021684606F036F894ED020A20EE1C
:10D06000080ABDEEC00A10EE100A01B294ED030AE0
:10D0700020EE080ABDEEC00A10EE100A05B294EDCB
:10D08000040A20EE080ABDEEC00A10EE100A06B22D
:10D090001022684606F017F810222946684606F066
:10D0A00012F810223146684606F00DF8D4ED050A54
:10D0B0009FED210A60EE800AFDEEE00A10EE901A64
:10D0C000D4ED060A60EE800AFDEEE00A10EE905AFA
:10D0D000D4ED070A20EE800ABDEEC00A10EE104A19
:10D0E0001022684605F0EFFF10222946684605F039
:10D0F000EAFF10222146684605F0E5FFFE2001F018
:10D1000053F8EF2001F050F8002403AD285D01F042
:10D110004BF8641C142CF9DB0D2001F045F80A20B3
:10D1200001F042F808B0BDEC028B70BD80200020F9
:10D130002825002000401C4600007A44024901488E
:10D14000086070470090D0031C22002070B503F0E7
:10D150002DFA10B16B486A49416703F03DFA4FF070
:10D16000805628B1D6F84402C0F3423166480160C7
:10D1700003F050FA20B16548016821F08071016028
:10D1800003F05EFA002428B16148046044605E4800
:10D19000001F046003F072FA18B15B490320643188
:10D1A000086003F081FA012558B15A49052008604A
:10D1B000584878300560574808300460091D3F2002
:10D1C000086003F087FAE8B35348006853490860E1
:10D1D0005148001D0068091D08604F48083000686C
:10D1E000091D08604C480C300068091D08604A4859
:10D1F00010300068091D0860474814300068091D98
:10D2000008604548183000684449203108604248A9
:10D210001C300068091D08603F4820300068091D67
:10D2200008603D4824300068091D08603A482830ED
:10D230000068091D086038482C300068091D086026
:10D24000354800E018E0303000683449403108606B
:10D25000314834300068091D08602F4838300068B4
:10D26000091D08602C483C300068091D08602A48E8
:10D2700040300068091D086003F07AF928B1D6F83B
:10D280005802274900F04F000860204874380168B0
:10D2900041F470010160BFF34F8FBFF36F8F4FF008
:10D2A0001022D2F80002002803DBD2F80402002882
:10D2B00022DA1C4B1D601C4801680029FCD0152592
:10D2C000C2F8005201680029FCD0C2F8045201687B
:10D2D0000029FCD01C6001680029FCD0BFF34F8FEF
:10D2E0000A48F0380168114A01F4E0611143016015
:10D2F000BFF34F8F00BFFDE7BDE87040FFF71EBFD3
:10D300000DF0ADBA00C007403C050040FCED00E068
:10D310000C010040105600400404001020C50040DD
:10D32000E40E004004E5014000E401400400FA0579
:10D330000348007F002801D006F0BCBC06F034BCD6
:10D34000A82A0020014B024A00F0C6B84908020092
:10D350000422002002E008C8121F08C1002AFAD1E6
:10D3600070477047002001E001C1121F002AFBD165
:10D37000704700002DE9FF5FDDE90220010DDDF8B7
:10D3800038B0024318D044F61050A1F2FF314143A7
:10D390000D140F98012820D0A5EB0B00401C5FEA6C
:10D3A000000A4FF00004474EDFF81C91A04650469B
:10D3B00016D5CAF1000728E00F98012443A20128DE
:10D3C00008D0002100980F9BC0E90021C0E902436A
:10D3D000BDE8FF9F6FEA0B01F4E7CBF10000DEE749
:10D3E000074612E0F80707D0224633464046494632
:10D3F000FFF7C0F980468946224633461046194653
:10D40000FFF7B8F904460E467F10002FEAD1DDE998
:10D410000201BAF1000F42464B4602DAFFF7AAF9C1
:10D4200001E0FFF719FA04460E460022284BFFF7E9
:10D430009BFA03D84FF0FF30014607E00022254B4E
:10D4400020463146FFF7EFF8FFF775FA102409E0A0
:10D45000002C0ADB0A220023FFF7B4F8019B3032CC
:10D460001A55641E50EA0102F2D1641C019AC4F1FB
:10D47000110314440F9A012A03D0012208430DD14D
:10D480000AE0084304D000204FF0110B0F9080E712
:10D49000A3EB0B056D1E0DE05B4504DD4FF00002B4
:10D4A00005F1010504E003DA4FF00002A5F10105E2
:10D4B000002AECD000980F99C0E90231C0E900457C
:10D4C00086E70000000024400000F03F300000002C
:10D4D0000000F0430000E03F2DE9FF4F95B09B4670
:10D4E0008946064600250FE2252877D100242746E5
:10D4F000F84A0121059400E0044316F8013F203B5F
:10D5000001FA03F01042F7D130782A2811D06FF0D9
:10D510002F033078A0F13002092A16D8059A44F07A
:10D52000020402EB820203EB42021044761C0590D7
:10D53000EFE759F8042B0592002A03DA504244F42D
:10D540000054059044F00204761C30782E2816D141
:10D5500016F8010F44F004042A280DD06FF02F02B2
:10D560003078A0F13003092B09D807EB870302EBD1
:10D570004303C718761CF3E759F8047B761C307810
:10D580006C280FD006DC4C2817D068280DD06A28EC
:10D5900014D104E0742810D07A280FD10DE044F49F
:10D5A00000140AE044F4801401E044F4401472785A
:10D5B000824202D104F58014761C761C30786628ED
:10D5C0000BD013DC582877D009DC002875D045280B
:10D5D000F6D04628F4D047281AD19DE118E06328F8
:10D5E00035D0642879D0652812D195E1702873D0A0
:10D5F00008DC6728F1D069286FD06E280DD06F281D
:10D6000006D1B5E073282CD0752875D0782874D051
:10D610005A46179990476D1C75E1C4F302500228D1
:10D6200009D003280DD0D9F8001004280DD00D60C2
:10D6300009F1040967E1D9F80010EA17C1E90052BD
:10D64000F6E7D9F800100D80F2E70D70F0E719F851
:10D65000041B8DF8001000208DF80100EA4601201F
:10D6600003E059F804AB4FF0FF3061074FF00001C1
:10D6700002D40DE008F101018846B9420FDA804575
:10D68000F8DB1AF808100029F4D108E008F10101CC
:10D6900088468142FADB1AF808100029F6D105986D
:10D6A0005B46A0EB080721463846179A00F094FA2B
:10D6B000284400EB080507E04DE029E10DE01AF8E9
:10D6C000010B5A4617999047B8F10108F7D25B460B
:10D6D00021463846179A13E142E00A220092C4F329
:10D6E00002524FF0000A022A08D059F804CB032A4C
:10D6F0004FEAEC710AD00DE029E02AE009F10701B8
:10D7000021F00702F2E802C1914609E00FFA8CFC11
:10D710004FEAEC71042A03D14FFA8CFC4FEAEC710A
:10D72000002907DA0A460021DCF1000C61EB020156
:10D730002D2202E0220504D52B228DF8042001229F
:10D7400003E0E20701D02022F7E7904659E00A21E2
:10D7500002E010220DE010214FF0000A00910BE0D2
:10D7600010224FF0000A44F004040827009203E05E
:10D7700008224FF0000A0092C4F30252022A05D098
:10D7800059F804CB0021032A08D009E009F1070168
:10D7900021F00702F2E802C1914605E01FFA8CFC75
:10D7A000042A01D10CF0FF0C4FF00008220728D505
:10D7B000702806D0009B83F0100353EA0A0305D0BB
:10D7C0000EE040228DF80420012208E05CEA01020C
:10D7D00006D030228DF804208DF8050002229046F4
:10D7E000009B83F0080353EA0A030AD15CEA0102B2
:10D7F00001D1620705D530228DF804204FF00108D1
:10D800007F1E582804D034A003900EA802900DE08B
:10D8100036A0F9E753466046009AFEF7D3FE8446E9
:10D820000398825C0298401E029002705CEA01003C
:10D83000F0D1029806A9081A00F1200A600702D563
:10D8400024F4803400E00127574502DDA7EB0A00ED
:10D8500000E0002000EB0A01009005984144401AC6
:10D860000590E00306D45B462146179A059800F020
:10D87000B3F90544002706E001A85A46C05D179990
:10D8800090476D1C7F1C4745F6DBE0030CD55B46DB
:10D890002146179A059800F09FF9054404E03020CE
:10D8A0005A46179990476D1C0099481E0090002910
:10D8B000F5DC08E0029802995A460078491C02916A
:10D8C000179990476D1CBAF10001AAF1010AF1DC29
:10D8D00065E1000009280100303132333435363734
:10D8E00038396162636465660000000030313233AC
:10D8F000343536373839414243444546000000004C
:10D9000000F058F90544761C307800287FF4ECAD1F
:10D9100019B02846BDE8F08F620700D4062709F148
:10D92000070222F0070CFCE80223E14603F000485E
:10D930005FEA080C02D00FF2702C0DE05FEA045C85
:10D9400002D50FF2682C07E05FEAC47C02D00FF228
:10D95000602C01E0AFF2700C4FF0FF3823F0004371
:10D96000CDF850C065280CD006DC452809D04628E3
:10D970001DD047283DD13DE0662818D067287ED1CC
:10D9800038E00021112F01DB112000E0781CCDE9E7
:10D99000000106A90EA8FFF7EDFCDDE90F010E9AC4
:10D9A00003910021009207F1010A04914DE04FF02C
:10D9B00000400097CDE9011006A90EA8FFF7DAFC98
:10D9C000DDE90F0203920E9B11990022DDF80CA0F5
:10D9D0000093049211B9791C00EB010AB7EB0A001D
:10D9E00004D4C0F1FF3007F1010A0490AAEB07004C
:10D9F000019044E0012F00DA01270021112F01DD01
:10DA0000112000E03846CDE9000106A90EA8FFF775
:10DA1000B1FCDDE90F010E9A0391002104910092FF
:10DA2000BA4621070CD40399514500DA8A46BAF167
:10DA3000010F05DD009AAAF10101515C302908D0DF
:10DA4000B84202DA10F1040F06DA0121CDE9011023
:10DA500015E0AAF10101E9E7002805DC0499014479
:10DA60000491AAEB000102E0411C514500DD8A4609
:10DA70000499401A401C01904FF00040029020078A
:10DA800004D40198504501DBCDF8048000208DF8C6
:10DA90004F0002980DF14F07B0F1004F25D02B2019
:10DAA0000E9002984FF0020800280CDA40420290D3
:10DAB0002D200E9007E00A210298FEF76DFD30310F
:10DAC000029007F8011DB8F10001A8F10108F2DC8D
:10DAD00002980028EFD1791E0E980870307800F077
:10DAE000200040F0450007F8020D12A8C01B00F10D
:10DAF00007081498007800B1012000EB0A01019892
:10DB000001EBE07105984144401A401E0590E00386
:10DB100006D45B462146179A059800F05DF8054447
:10DB20001498007818B15A46179990476D1CE00375
:10DB300024D55B462146179A059800F04DF8054418
:10DB40001CE00498002807DBDDE90301884203DDBF
:10DB50000098405C179901E0179930205A46904789
:10DB6000049805F10105401C04900198401E0190A5
:10DB700004D12E205A46179990476D1CBAF1000126
:10DB8000AAF1010ADDDC05E017F8010B5A461799E6
:10DB900090476D1CB8F10001A8F10108F4DC5B4668
:10DBA0002146179A0598ABE62D0000002B000000D7
:10DBB000200000002DE9F041044600251E461746CE
:10DBC000880404D405E039462020B0476D1C641E4B
:10DBD000F9D52846BDE8F0812DE9F041044600253D
:10DBE0001E469046C80301D5302700E02027880450
:10DBF00004D505E041463846B0476D1C641EF9D592
:10DC00002846BDE8F0812DE9FC41044688461546CA
:10DC100000202E8800212980616B002907D0087818
:10DC200033462A46414604F009FF00287DD1276B80
:10DC30003FB133462A464146384605F047FC0028A6
:10DC400073D194F82E703FB133462A464146384688
:10DC500003F0F2F900287CD194F82D1031B132464E
:10DC60002946404600F09EFF002872D1A17831B1CC
:10DC700032462946404600F0B1FA002869D1E178E1
:10DC800041B194F9030033462A46414602F06FFD44
:10DC900000285ED1616841B191F9000033462A46FF
:10DCA000414605F0FFFE002853D1218951B1CDE94D
:10DCB000005643460622022104F1080006F0E4F86B
:10DCC000002846D1218A51B1CDE9005643460722AA
:10DCD000032104F1100006F0D7F8002839D1218B78
:10DCE00051B1CDE9005643461522142104F1180024
:10DCF00006F0CAF800282CD1276A3FB133462A46DD
:10DD00004146384601F0D6FD002822D1676A3FB16E
:10DD100033462A464146384603F006FC002818D10F
:10DD200094F82C1049B1334600E012E02A464146EF
:10DD3000204604F01DFF00280BD12178002908D0CF
:10DD400002B033462A4641462046BDE8F04103F082
:10DD50001FBCBDE8FC81C078400701D40720704794
:10DD60000020704710B501220221002001F042F985
:10DD700008B1072810D107220221012001F03AF949
:10DD800008B1072808D100210A22084601F032F91B
:10DD900008B1072800D1002010BD000010B598B0D0
:10DDA00038210AA8FEF7D9FB02208DF828000124AB
:10DDB0008DF82A4006218DF82B10ADF838000D485B
:10DDC0000F90242101A8FEF7C8FB8DF810404FF4F6
:10DDD00096700590B4200690002001460090064BF6
:10DDE00001AA0AA800F0F2FB002801D000F072F8A6
:10DDF00018B010BD862000204121020006480068AE
:10DE00004FF48031044A8143121D1160111D00F44A
:10DE100080300860704700000405005070B5002491
:10DE2000064D06E06868012110F8340003F020FC7C
:10DE3000641C28788442F5D3002070BDC8210020DE
:10DE4000F8B505460C461646052E01D20720F8BD4A
:10DE500003F0F6FC18B903F0C9FC0028F7D110480C
:10DE60004560047086600021C16001610D4E0DE0C7
:10DE700005EBC4007168009181788DF8011000787D
:10DE8000094A694603F04CFC0028E0D1641EE4B264
:10DE9000EED2BDE8F840054A0021024800F088B8FB
:10DEA000C8210020A0400200390B0200E9FA01005D
:10DEB000BFF34F8F05480168054A01F4E061114343
:10DEC0000160BFF34F8F00BFFDE700000CED00E0E5
:10DED0000400FA050EB500210091019102906A46F6
:10DEE00044F20100FFF7E4FF0EBD0000014B1B6888
:10DEF000184700002C2A002010B58268C3689A1ABF
:10DF0000002A03D002F020FC002010BD052010BD27
:10DF1000002905D012B1531E134203D009207047C7
:10DF20000E2070470160838000218160C160002065
:10DF3000704710B58268C3689A1A83889A4203D8DA
:10DF400002F00CFC002010BD042010BDF8B50C46FA
:10DF50002678A168074A01EB410152F82150064991
:10DF6000024604F10800096A009131462369A84776
:10DF7000F8BD0000E82B00209C21002010B5074AC6
:10DF8000117801EB810102EB8101091DFFF7DEFF32
:10DF9000BDE81040042004F0F3BE00001C2B00205C
:10DFA0000249096801600020704700000415014023
:10DFB0000A4B9B68002B06D03AB140B10068037C45
:10DFC0003BB10820704708207047072070470720A2
:10DFD000704741744261002070470000DC2100203E
:10DFE0002DE9F04781460F4615461C46A8073AD052
:10DFF0000020B0B3DFF8808000269DB304F02AFC37
:10E00000C8F81440032088F800002846C8F80850D3
:10E010001835002407EB470100EBC4031E705E7047
:10E020009F705D6005EBC105641C032CF4DBC8F830
:10E030000C6088F8016088F802601420FEF788FE02
:10E0400006211420FEF7A5FE1420FEF78CFE48469C
:10E0500004F0DEFB09480068C8F810000020BDE8A5
:10E06000F08702E003E00120C3E70720F7E7C8F8E4
:10E0700008600720F3E70000DC21002004150140C0
:10E08000F8B50E46174604460F498968002904D0A2
:10E0900028B1052E05D20720F8BD0820F8BD0820BC
:10E0A000F8BD606960B1607C01280BD0002505F0E7
:10E0B000B1FE2B4632462146009705F051F9F8BDD6
:10E0C0000820F8BD3546F2E7DC21002010B50446F3
:10E0D0000949896800290BD060B1606950B10020FE
:10E0E000207405F097FE2146BDE8104005F066B9A2
:10E0F000082010BD082010BDDC21002070B588B0BC
:10E1000004460D461E4624484260002D1BD0A888B8
:10E11000296882B22148FFF7FBFE002814D1A889A4
:10E12000A96882B21D481030FFF7F2FE00280BD11B
:10E1300020221B496846FEF7F7F9A068069020796F
:10E1400020B1012003E0072008B070BD00208DF849
:10E1500014008DF81C60607908B10E2000E00020EA
:10E160008DF81500E0780290A07803902078019057
:10E17000607800900B49684603F054FD0028E3D115
:10E180009DF81D0008B903F0E1FD03480121401C82
:10E1900003F098FDD8E70000C0210020002C0020EB
:10E1A00080400200F13A020010B501460948FFF72D
:10E1B000C0FE044664B903F0F5FE48B906490548B7
:10E1C000FFF79AFE20B90121034803F067FE0446D9
:10E1D000204610BD102C0020C021002038B5054677
:10E1E0000C462088001D904201D90C2038BD68469D
:10E1F00079DF0028FAD12188032068542088401C48
:10E2000080B22080192129542088401C80B22080AF
:10E210004119BDF8000005F0BBFD218808442080AD
:10E22000002038BD10B50B4C0022C5212068FFF737
:10E2300027FF08B1FFF74EFE00224FF480316068DF
:10E24000FFF71EFF002803D0BDE81040FFF742BED5
:10E2500010BD0000783F02002DE9F041044620780F
:10E260002A4F012606FA00F03860206803F0CDFE40
:10E270000021606803F0C0FE2548264D007F10B3E2
:10E28000A069C5F82405607D217D0843C5F86C05AB
:10E29000D4E90001C5F80C05C5F81415207D012846
:10E2A0000FD10021A06803F0A7FE207B86403E60CE
:10E2B000E06803F0AAFED4E90210C5F80805C5F825
:10E2C0001015BDE8F081A069C5F82405607D217DA9
:10E2D0000843C5F86C05D4E90001C5F80C05C5F87C
:10E2E0001415207D0128ECD10021A06803F084FEE4
:10E2F000207B86403E60E06803F087FED4E9021090
:10E30000C5F80805C5F81015DBE700000805005042
:10E31000A82A0020002000400448642100884843C7
:10E3200040F6E441B0FBF1F0C0B27047AC200020F1
:10E3300010B502F0B1FB074C6168884208D300F0C9
:10E340000BF800F003F902F0A7FB00F5FA6060603B
:10E3500010BD0000AC2000201CB51149002003F0C6
:10E360002FFB08B1FFF7B6FD0E4803C8CDE9000149
:10E370006946002003F0DEFA08B1FFF7ABFD01218A
:10E38000094803F067FA08B1FFF7A4FD0648012128
:10E39000801C03F05FFA002801D0FFF79BFD1CBD35
:10E3A000F9280200B43F0200B42000202DE9F04318
:10E3B00091B004460D46207D0026002814D0099611
:10E3C0009DF8240020F00F00401C20F0F0001030D9
:10E3D0008DF82400687B8DF825009DF8260020F03C
:10E3E0000600801C8DF826001C210AA8FEF7B5F84F
:10E3F0009DF8280040F002008DF82800217D11B121
:10E4000040F0100001E020F010008DF828000B967D
:10E410000D960E96207D08B109A800E000200F900F
:10E4200010964FF001098DF80E9042F61920ADF8C4
:10E430000C000296A87B8DF80800E87B8DF8090097
:10E440009DF80A0020F00600801C20F0080020F053
:10E45000100020F001008DF80A00287B01901421A3
:10E4600004A8FEF77AF803AF04970DF10808CDF879
:10E470001480ADF81890ADF81A60ADF81C9001A8A2
:10E480000890A088A31D04AA0AA9A2DF00283FD1F2
:10E49000A868D0B38DF80E9042F60810ADF80C00C5
:10E4A0000296287C8DF808009DF8090020F00F00E6
:10E4B00020F0F0008DF809009DF80A0020F0060019
:10E4C000801C20F0080020F0100020F001008DF8E2
:10E4D0000A006846A96800F050FC0546142104A80B
:10E4E000FEF73BF80497CDF81480ADF81850ADF85E
:10E4F0001A60ADF81C50CDF820D0E08804F10E026F
:10E5000004A9A3DF002803D101E0FFE7E681002092
:10E5100011B0BDE8F083000010B5FFF7FDFE014625
:10E52000094800F09EFA00280DD008280BD0A0F56D
:10E530004051043907D043F20141884203D0BDE87D
:10E540001040FFF7C7BC10BD1025002010B503F028
:10E55000B3FA002803D0BDE81040FFF7BBBC10BDE4
:10E5600070B592B004460E461F2011901090002501
:10E57000002C0DD02046FFF7EEFB002823D111AA76
:10E5800008A92046FFF73FFB00281CD108AC01E09A
:10E59000002411956EB1304604F04CFC002812D1D5
:10E5A00010AA69463046FFF72EFB00280BD16A46B9
:10E5B00001E000221095BDF84000C3B2BDF8440050
:10E5C000C1B2204672DF12B070BD000070B50D46BA
:10E5D0001146049A0446002C3FD0E9B34148002676
:10E5E0004671C360026124223F48FDF79DFF00F0A1
:10E5F000F1F83D493431A1F1100001602031816012
:10E6000038215C38FDF7A9FF374920783839087080
:10E61000A0788870E078C87060784870D4E9040207
:10E62000C1E90402D4E90202C1E90202D4E9060206
:10E63000C1E90602606AE0B101F1AC00486200F194
:10E640000C028260636A1B880380606A4B6A808860
:10E65000988000204B6A09E001E00E2070BD0E207A
:10E6600070BD666AB668365C1654401C9E88864249
:10E67000F7D8A06AD8B11C4AAC32A2F10C00826073
:10E680008862A36A9B888380A06A8B6A008818804E
:10E6900000208B6A04E0A66AB668365C1654401CFB
:10E6A0009E888642F7D894F82C0081F82C00206AC6
:10E6B00048B10C4814300862226A52884280206AAD
:10E6C0000A6A00881080606820B10648801D486092
:10E6D000606848602946BDE8704003483838FFF755
:10E6E0003FBF000050210020F827002010B501880E
:10E6F0002A4C102918D0002211291BD01B2918D10F
:10E70000007A002815D16079012823D002282CD066
:10E71000032835D004280CD122711046E168002965
:10E7200007D0BDE810400847817D012901D18088CC
:10E73000208110BD6270808821898842F9D1012032
:10E7400000F076F80028F4D021690029F1D0BDE866
:10E7500010400847022000F06BF80028E9D021693A
:10E760000029E6D0BDE810400847032000F060F81B
:10E770000028DED021690029DBD0BDE81040084721
:10E7800003202071042000F053F80028D1D0216923
:10E790000029CED0BDE810400847000050210020DD
:10E7A00010B5022801D0032810D1094C2078002888
:10E7B0000CD000202070607900F03AF8002805D0D5
:10E7C0002169002902D0BDE81040084710BD0000B3
:10E7D00050210020024800218161818381777047A8
:10E7E0005021002010B510480078012819D10F4C95
:10E7F0006078B0B9607910B174DF002812D10120BF
:10E800006070094806213838C1700021FFF7A8FE62
:10E81000002807D1607900F00BF810B1216901B12F
:10E820008847002010BD0000F8270020502100205C
:10E830002DE9F04F87B0704C607101F0B1FF0126F7
:10E8400020B12670002007B0BDE8F08FFFF7C2FFAF
:10E850006A4D0027687810B16079012808D0A8783F
:10E8600010B16179012903D048B16079022806D13D
:10E87000E16819B1E6700820884700E0E770607928
:10E88000DFF874814FF0020908F11808012808D157
:10E89000687820B108F1010003F010FD08B984F890
:10E8A000059060794FF0030B022808D1A87820B1B9
:10E8B00008F1010003F002FD08B984F805B0287BD7
:10E8C0004FF0040A20B96079032801D184F805A02B
:10E8D000287E20B96079042801D167712771E16829
:10E8E00041B16079032801D0042803D1287808B108
:10E8F0006078C0B1A770182101A8FDF72EFE8DF831
:10E90000047002978DF80C700497607901280ED07E
:10E91000022816D0394E2436A6F15C0703281DD0F4
:10E9200004284ED13CE0A67007208847E3E7CDF8E5
:10E9300008808DF80460ADF81670ADF8147026717B
:10E940003FE0CDF808808DF804602889ADF8160006
:10E95000A888ADF8140084F8049032E0A88AADF8D5
:10E960001600288AADF814002448243005F0FAFA7D
:10E9700018B1287808B1607810B184F804B020E0AC
:10E980008DF80C90049687F803A01C4800213838B5
:10E99000FFF7E6FD00287FF456AF0520207110E058
:10E9A000A88BADF81400288CADF81600134824305D
:10E9B00005F0D8FA18B1287808B1607868B184F801
:10E9C00004A0607918B101A873DF0028E3D1E168E1
:10E9D00009B120798847002035E78DF80C9004961E
:10E9E00087F803A0054800213838FFF7B9FD002853
:10E9F000F2D106202071E4E750210020F827002002
:10EA000038B504460D46002C17D0B5B128682060F3
:10EA10004FF6FF70E08101208DF802004FF6F17093
:10EA2000ADF80000221D69460120A0DF002803D1B7
:10EA30002946204604F01BF838BD0E2038BD0028BA
:10EA40000ED000290CD00A88102A05D0112A05D032
:10EA5000502A05D103F0F0BB03F0B6BB03F0CCBBEA
:10EA6000704773B586B00446002C34D00020217C5A
:10EA70009DF81C2091422CD0002504950126ADF86C
:10EA80001060ADF8125007A80590E188608A04AACA
:10EA9000A4DF00281DD19DF81C002074608AA0F519
:10EAA0007F41FF3919D0207DB8B1009501950295BD
:10EAB0000395E088ADF800008DF80260BDF8120003
:10EAC000ADF8040004A8029005980390608A694696
:10EAD000A6DF08B070BD0E20FBE70820F9E738B5C7
:10EAE00004460D46002C1BD0D5B1286820604FF697
:10EAF000FF70608228792075FF20207401208DF836
:10EB0000020041F60F00ADF80000221D6946012009
:10EB1000A0DF002803D129462046FFF747FC38BD77
:10EB20000E2038BD70B505461C2229461048FDF759
:10EB3000FBFC104C00262670286840B1016861601B
:10EB40004068A060201D7ADF002810D104E0094849
:10EB5000001D7BDF00280AD14FF6FF7060806670D1
:10EB6000BDE87040044A00210448FFF721BA70BD97
:10EB7000E428002070210020B53D0200E03F0200A3
:10EB80000188102907D0112907D0122907D0502950
:10EB900007D103F06DBB03F01BBB03F031BB03F0E7
:10EBA00009BB70477CB505460C4620880930904269
:10EBB00001D90C207CBD684671DF0028FAD121887C
:10EBC000082068542088401C80B220801B212954D2
:10EBD0002088401C80B220802844DDF801100160AC
:10EBE000BDF8051081802088801D80B220809DF8AE
:10EBF000001031B1012129542088401C20800020C0
:10EC00007CBD00212954F7E77FB5044601208DF82B
:10EC10000E0041F60A00ADF80C00454A03A9012098
:10EC2000A0DF00287ED1228804F13C0552B1404883
:10EC30002B46801C009042F62920616800F06AFC97
:10EC4000002873D1228952B139482B460A300090EE
:10EC500042F62420E16800F05DFC002866D1228A9B
:10EC600052B133482B461230009042F6252061699C
:10EC700000F050FC002859D1228B52B12C482B4671
:10EC80001A30009042F62720E16900F043FC00288A
:10EC90004CD1228C52B126482B462230009042F6AD
:10ECA0002620616A00F036FC00283FD1228D52B147
:10ECB0001F482B462A30009042F62820E16A00F0D7
:10ECC00029FC002832D1216B71B101A804F066FA49
:10ECD00017482B4632300090082201A942F6232023
:10ECE00000F018FC002821D1606B58B110492B4668
:10ECF0003A3100910279016842F62A2000F00AFCBC
:10ED0000002813D1A16B81B101A803F019FB0848B9
:10ED10002B4642300090072201A942F6502000F015
:10ED2000F9FB00E002E0002800D1002004B070BD33
:10ED30000421002010B50446204600F0EFFF2046D5
:10ED4000FFF71EFF204600F095F8204603F00CFA6E
:10ED50002046FFF7CBFC2146BDE810400148FFF7F5
:10ED60006EBE00000025002070B504460D46284602
:10ED7000FDF7FEFB2080656070BD0A7802704A785E
:10ED8000022142700846704700B587B01748806876
:10ED9000069000234822164906A804F021F808B17D
:10EDA000FFF798F801AA0121002004F003F808B148
:10EDB000FFF790F80F4803F0E3FD08B1FFF78AF87A
:10EDC00001A803F0EDFF08B1FFF784F80A4803F04B
:10EDD000DDFF08B1FFF77EF8084804F021F80028AD
:10EDE00001D0FFF777F807B000BD0000783F0200C0
:10EDF000B8240020E81F002035ED01008931020011
:10EE00001CB504466A46A1780C4803F0D1FA0028E4
:10EE100013D162780A49C2EBC20001EB80001C23C7
:10EE20001A46694603F088FB054806494C30807A4B
:10EE300051F820202146684690471CBD94210020AF
:10EE4000E0290020F83F020010B502460020084CDF
:10EE50002260002904D0084603F0F3FF002806D101
:10EE60006168002903D1BDE81040FEF77BBF10BDEB
:10EE7000FC20002010B5104C0188606810290FD0CC
:10EE8000112917D1401E6060002813D1FEF76AFFD8
:10EE900000280FD0216800290CD0BDE81040084799
:10EEA00028B900F08FFD10B1216801B18847606872
:10EEB000401C606010BD0000FC20002010B5032045
:10EEC00000F0A6FA08B1062800D1002010BD00000D
:10EED0002DE9F047064600250024264800E0641C82
:10EEE000022C03D250F82420B242F8D1DFF88880F7
:10EEF000022C33D21F4B08F102090C3B08F1140716
:10EF0000D9B1012902D0022928D123E004EB440021
:10EF10003D5C0744787860B1D8F80400164A00EBED
:10EF200080004100521C9868FFF7AAF808B988F8D9
:10EF30000160B87809F8040010E09868FFF7C6F897
:10EF400004EB4400384419F804108078814205D15C
:10EF5000054603E004EB440038444578002D07D013
:10EF6000D8F81010002903D02846BDE8F04708471C
:10EF7000BDE8F087C83F0200E020002002280CD244
:10EF8000084A1268D243084B13F8203001209840F9
:10EF9000104000D00120087001E00020087000201F
:10EFA0007047000010050050C83F020010B504284B
:10EFB00007D0072811D00A2819D1BDE8104003F066
:10EFC000CBBE0B481321808876DF08280FD000289D
:10EFD0000DD0BDE81040FEF77DBFFFF703FC082809
:10EFE00005D0002803D0BDE81040FEF773BF10BD68
:10EFF0008020002030B503460020022B19D2012AC0
:10F0000002D101290BD000220B4D03EB43035C1905
:10F0100069B1012907D0022907D0072030BD03F1CB
:10F020000D02D2B2F0E7EA5430BD627030BDA2707A
:10F0300030BD072030BD0000F42000200246002033
:10F040000349097AC90702D0104600F055B8704745
:10F05000E020002070B505460E46002020494E6095
:10F060008D600A61A9071BD5002405E00122114625
:10F070002046FFF7BFFF641C022C01D20028F5D008
:10F0800020B9720802211748FEF7DAFE08B9FEF728
:10F09000C5FE28B91348144A00210C38FEF788FF32
:10F0A000E9070AD0114A4FF4C03111600F4B00221A
:10F0B0001B1D1A600D4A1032116028B909480C4A0C
:10F0C00000211438FEF774FF002807D1BDE8704016
:10F0D00004480121074A1038FEF76ABF70BD0000DE
:10F0E000E0200020D03F020051F40100080500504C
:10F0F00091100200FDDD01002DE9FC5F04460020B7
:10F10000C14F4FF4803ADFF8FCC2F96800912AEA57
:10F1100001027968DFF8F49201EB810501950CF1A9
:10F1200004052E1D4FF4C03B4FF400438046182CBD
:10F1300016D2DFE804F00C1717416182A1BAC2D3DE
:10F14000E5F6FDFCFCFCFCFCFBFAF9F8F7F700998E
:10F150002BEA010BC5F800B0C6F8008087F80080E4
:10F16000BDE8FC9F2A60C6F80080DCF8000080F44F
:10F17000C03000040AD52B60C6F80080022C02D0F3
:10F180004FF47A6009E04FF4E16006E03360C5F8BF
:10F190000080022C0ED04FF4C8703C706422B0FB8B
:10F1A000F2F04143D9F8000002B00022BDE8F05F60
:10F1B000FEF766BFC820F0E72A60C6F80080DCF8DA
:10F1C000000080F4C030000405D52B60C6F8008034
:10F1D0004FF4487003E03360C5F80080C8203C70ED
:10F1E0006422B0FBF2F04143D9F8000002B00022E3
:10F1F000BDE8F05FFEF744BF2A60C6F80080DCF887
:10F20000000080F4C030000405D52B60C6F80080F3
:10F210004FF47A6004E03360C5F800804FF4C870A2
:10F220003C706422B0FBF2F04143D9F8000002B018
:10F230000022BDE8F05FFEF723BF2A60C6F8008019
:10F24000DCF8000080F4C030000404D52B60C6F860
:10F250000080C82003E03360C5F80080C8203C70FF
:10F260006422B0FBF2F04143D9F8000002B0002262
:10F27000BDE8F05FFEF704BF2A60C6F80080DCF846
:10F28000000080F4C030000403D52B60C6F8008075
:10F2900002E03360C5F800803C70D9F8000002B08D
:10F2A0000022BDE8F05FFEF7EBBE2A60C6F80080E2
:10F2B0003360C5F800803C7052E7DCF800002AEAB1
:10F2C000000AC5F800A000F480303060D9F80000D2
:10F2D00002B00022BDE8F05FFEF7D2BEDCF800000D
:10F2E0002AEA000AC5F800A000F4803030600199D5
:10F2F000D9F8000002B00022BDE8F05FFEF7C0BE02
:10F30000DCF800002AEA000AC5F800A000F480300A
:10F310003060D9F8000002B00022BDE8F05FFEF7CF
:10F32000AFBE06E067E05CE052E048E041E018E094
:10F3300011E0DCF800002AEA000AC5F800A000F499
:10F34000803030600199D9F8000002B00022BDE899
:10F35000F05FFEF795BEC6F800B0C5F800803C70BF
:10F36000FEE6D9F80400FEF7B1FEC4F1110101B1C7
:10F3700040B1F96801F4C0312960C6F80080C7F8CF
:10F380000C80EDE6C7F80CA001290BD9C820414339
:10F390006420B1FBF0F1786800224143D9F8040001
:10F3A000FEF76EFEF96801F4C0313160C5F80080E7
:10F3B000D6E6C5F800B0C6F800803C70D0E6C5F8C7
:10F3C00000A0C6F800803360C5F800803C70C7E636
:10F3D0002B60C6F80080C6F800A0C5F800803C701D
:10F3E000BEE6C5F80080C6F80080C6F800B0C5F8D3
:10F3F00000803C70B4E6C6F800B0C5F800803C70F0
:10F40000AEE6000004050050E0200020BC3F0200F2
:10F4100070B500210D4D012655F82120930003F110
:10F42000A043D3F8004706FA01F2024201D00322BA
:10F4300000E0002224F4403444EA0242C3F80027EA
:10F44000491C0229E8D3002070BD0000C83F02001B
:10F4500000780221FFF73CBD38B504460C4A40F65F
:10F46000CD410320FFF7F6FD08B1FEF733FD6946F5
:10F470000020FFF7E9FC08B1FEF72CFD9DF8000025
:10F48000022802D00020207038BD0120FBE70000D8
:10F49000ADEF010005494FF0FF3241F82020082868
:10F4A00002D3084480F8482070470000502A00200A
:10F4B000F0B507464FF0FF30002A02D04FF00003AE
:10F4C00001E04FF0080302D04FF0080501E04FF0D3
:10F4D0000C050B4C04E054F82360761C03D05B1C35
:10F4E000AB42F8D3F0BDE51958B285F8300044F8C6
:10F4F0002310002AF6D1E11881F84870F0BD000011
:10F50000502A00200249084490F93000704700005A
:10F51000502A00202DE9F0438FB08146DDF8588055
:10F520000E4615461F46002E01D0012200E00022A3
:10F5300012B90020FEF7CEFC0DB1012200E000223E
:10F5400012B90020FEF7C6FC1C2107A8FDF705F83C
:10F550009DF81C0040F002008DF81C000024089467
:10F560000A940B940C940D9401208DF83A00ADF898
:10F570003890019438788DF8040078788DF805007B
:10F580009DF8060020F00600801C20F0080020F006
:10F59000100020F001008DF80600142102A8FCF7ED
:10F5A000DCFF0EA8029001A80390ADF81050ADF852
:10F5B0001240ADF8145006960448434602AA07A923
:10F5C0000088A2DF0FB0BDE8F08300000421002016
:10F5D0002DE9F0473449087800EB800001EB800406
:10F5E000241DE568A06800EB40012F48CC3000EBFB
:10F5F000810006894789D0F8049002F072FFB5FBBC
:10F60000F0F100FB1150A8B34FF0000806FB07977C
:10F610006088A18808444619DFF890900020C9F856
:10F620001000B8F1000F04D002F05BFF618888423F
:10F6300024D0B8F1000F03D0BE4201D1A088E8B1B8
:10F64000A06803281AD002F04CFFA1882944B1FB1E
:10F65000F0F200FB12108008C9F80C0002F041FF24
:10F66000B6FBF0F100FB116098B10020BE4216D04D
:10F6700088B114E0FFE74FF00108C7E702F031FF5F
:10F68000B5FBF0F0C9F81400BDE8F047032003F023
:10F6900077BB0120EAE7B9B2B0B203F0B3FDBDE831
:10F6A000F047022003F06CBB1C2B00209C210020A3
:10F6B0000649087800EB800001EB800000790428FF
:10F6C00001D000F073B803F0D9BC00001C2B00205F
:10F6D0000B49087800EB800001EB8000094AC188E3
:10F6E00011620079012805D0032805D0042805D12E
:10F6F00004F053BB03F0C2BCFFF76ABF70470000C1
:10F700001C2B00209C21002003484078002801D0B9
:10F71000FFF7DEBF704700001C2B002000EB8002CB
:10F720000548002100EB82000171C1800222C26005
:10F7300001614161018170471C2B00202DE9F041DE
:10F74000069E104D6C780A2C1AD02F783C440A2C57
:10F7500000D30A3C04EB840405EB8404207162614D
:10F7600003C9C4E90301E38026816878401C6870FE
:10F770000548007808B9FFF7ABFF0020BDE8F0812D
:10F780000420FBE71C2B00209C21002010B506491B
:10F7900000200870487000242046FFF7BFFF641C5B
:10F7A0000A2CF9D310BD00001C2B002010B508490D
:10F7B000087800EB800001EB8001091D0020FEF7B6
:10F7C000C5FB00F007F8BDE81040002003F0D8BAF0
:10F7D0001C2B002010B5084C2078FFF79FFF6078A5
:10F7E000401E60702078401CC0B220700A2801D1F1
:10F7F0000020207010BD00001C2B00202DE9F041DE
:10F800001A49C86800282BD00768DFF86480D8F848
:10F8100000400E69A01B20F07F45ED1CC87808B998
:10F8200002F0FEFFBD4200D23D46A81920F07F4005
:10F830000F4A3C321060D8F80010091B21F07F41BC
:10F84000C91C001B20F07F4081420DD9D8F8000070
:10F8500010602F20FCF71AFEBDE8F04103F00ABE4D
:10F86000BDE8F04102F0F6BFBDE8F081DC210020E8
:10F87000041501400188062907D34FF448634FF669
:10F88000FF72994203D9914201D007207047408806
:10F89000062803D3984203D9904201D0072070472D
:10F8A000914205D0904203D0814201D90720704790
:10F8B0000020704770B506460D4614462088801D0E
:10F8C000984201D90C2070BD3046FFF7D3FF0028C5
:10F8D000F9D12188052068542088401C80B22080FE
:10F8E000122129542088401C80B220804119308880
:10F8F00004F04EFA2188084480B2208041197088B3
:10F9000004F046FA218808442080002070BDFEF7EC
:10F91000E1BA000000B587B01C216846FCF71DFE67
:10F92000002000904FF4203101914FF4702102919A
:10F9300003218DF80C10ADF80E008DF8100006486C
:10F940000590064806906846FFF7ECF8002801D0BD
:10F95000FEF7C0FA07B000BD992102000FF90100BF
:10F96000F8B5154801F012FB134D0026134C0C3D61
:10F9700038B1616919B101200090684688472E703E
:10F98000F8BD287830B161690029F8D00096684642
:10F990008847F4E7687860B1A168094800220068E8
:10F9A000FEF76EFB0028EAD0A1690029E7D088475E
:10F9B000E5E76168F1E700007C210020E4280020F1
:10F9C000E03F020010B5002101220846FFF712FBBC
:10F9D00008B1072810D1072202210120FFF70AFBF6
:10F9E00008B1072808D1042202210020FFF702FBFA
:10F9F00008B1072800D1002010BD0000F0B5054671
:10FA0000082000230B4E4FF6FF7C03EB430406EB6C
:10FA10008404A77A0F4208D0654502D02089A84205
:10FA200002D113600020F0BD05205B1C002BECD040
:10FA3000F0BD0000202A002000EB40020748012111
:10FA400000EB820081724FF6FF710181FF21C172CC
:10FA5000002101608180817170470000202A002010
:10FA600010B5184C2079000727D46069401C6061EC
:10FA7000E06820B1BDE81040042003F07FBB01F036
:10FA800093FA20B1BDE81040022003F077BB206953
:10FA900078B16068C10704D0BDE81040032003F0CE
:10FAA0006DBB40F001006060BDE81040002003F035
:10FAB00065BBBDE8104003F041BBBDE8104003F05A
:10FAC00049BB00009C21002006494868020707D472
:10FAD000820702D540F001004860022003F04EBBCF
:10FAE00003F038BB9C2100202DE9F04100250127BF
:10FAF000DFF8608027E0D8F8040000EBC504207828
:10FB000007FA00F6D8F810100E421AD0B143C8F820
:10FB1000101001F05FFE01462078D8F80C3007FA8B
:10FB200000F21A4001FA00F39A420AD16278012ADF
:10FB300001D0012300E000234B4062680AB1D9B232
:10FB400090476D1CEDB298F800008542D3D3BDE814
:10FB5000F0810000C82100202DE9FC4104460E463A
:10FB6000A1786A46254802F023FC002843D160783A
:10FB7000234F00EB400007EB8000807A400610D452
:10FB8000022E0ED0012E0ED01E4DA0781E49C0EBC5
:10FB9000C00001EB800100231C226846A84720B169
:10FBA00019E01A4DF1E71A4DEFE7022E13D06078F5
:10FBB00000EB400007EB8000817A21F04001817268
:10FBC0000F4960784039C0EBC00001EB80011C2375
:10FBD0001A466846A847022E0DD02078084900EB47
:10FBE00040000C3101EB80000A49807A51F8202056
:10FBF000214668469047BDE8FC8100009421002022
:10FC0000202A0020193002001C2900207927020038
:10FC1000B5260200E83F02002DE9F0470546894677
:10FC20009046052700240F4E35B9C4EBC40006EBFF
:10FC30008000008B404510D04DB1C4EBC40006EBF2
:10FC40008000103007222946FCF799FC28B1641C7B
:10FC5000072CE9D33846BDE8F087C9F800400027F3
:10FC6000F8E700001C2900207CB50546A9B26A46C9
:10FC7000074802F09DFB044644B97421684602F02F
:10FC8000CBFB044614B9284602F022FB20467CBD7B
:10FC90009421002010B51046002801D0FEF71AF973
:10FCA000002010BD1FB5039002F020FC08B1FEF744
:10FCB00011F903A800F086FA08B1FEF70BF900204D
:10FCC000CDF805008DF809009DF8050040F0010011
:10FCD00020F0020020F0040020F0080020F0700066
:10FCE000303020F080008DF8050007208DF80600E8
:10FCF00010208DF807000748009001208DF80400BF
:10FD00006946054800F0C0FB002801D0FEF7E2F884
:10FD10001FBD000095FC0100822000202DE9F04F5E
:10FD20008FB00446FF270D970025AB46FE480078AC
:10FD300000287CD0DFF8F483D8F80000002876D0C3
:10FD40000CA800F032FA08B1FEF7C4F80026201D16
:10FD50000A902C20ADF82C00FF208DF832000020F6
:10FD60008DF830000E90F14F20880C3F10280FD0F6
:10FD7000A0880EAA0221FFF741FE48B90E9800EBB9
:10FD8000400107EB8101C97A8DF832108DF83100FE
:10FD9000DFF898A32088AAF14C0A1322AAF1C4091B
:10FDA000192870D008DC10280ED0112859D013283B
:10FDB0006AD0142813D17FE0DD491A287AD01E2892
:10FDC00079D05228F6D1CDE10EAA4FF6FF78012165
:10FDD0004046FFF713FE022210B1042038B1CCE1F7
:10FDE0000E9901EB410107EB81018A72F6E70125CB
:10FDF00011218DF824100E998DF8311001EB41017D
:10FE000007EB8101A3880B818A72A2680A60A2892C
:10FE10008A80A27B8A71E17DCA0709D0C24A083272
:10FE200002EB51010978FF2908D00D9106E0B9E1F4
:10FE300042460DA904F10800FFF7EEFE0028CED1DE
:10FE4000DDE90D1000EB400007EB8000C172827A03
:10FE500042F0080282728DF832100CA8FEF7D0FF33
:10FE60008BE10E9800EB400007EB8001887A20F0D0
:10FE700002008872010708D500060FD500210CA8E2
:10FE8000FFF76AFE0AE0C7E049E09DF83200FF286C
:10FE900004D002F01DFAFF208DF832000E981021D8
:10FEA00000EB400007EB80008172012512208DF8E5
:10FEB000240062E10AE15DE10E9800EB400007EBEF
:10FEC0008000C07AFF2815D1228A0DA90020FFF7F3
:10FED000A3FE78B9DDE90D1000EB400007EB8000D0
:10FEE000C172827A42F0080282728DF832100CA838
:10FEF000FEF786FF0E9800EB400107EB8101C97AFF
:10FF0000FF2903D0C0EBC0010AEB810BC0EBC0009E
:10FF100009EB8002A0880023594686DF2DE18DF889
:10FF200024200E9800EB400007EB8001887A40F017
:10FF3000040088720125CA7AFF2A0FD040F04000E1
:10FF4000887216208DF824000023A0881A46852187
:10FF50007FDF002884D0064600250EE10DAB48F275
:10FF600043020020C0EBC00C09EB8C0C9CF81AC0BB
:10FF7000BCF1FF0F26D0401C0728F3D3C2B31646AE
:10FF80000125002105910E9800EB400207EB82024B
:10FF9000D27AC2EBC20209EB820206920791089163
:10FFA000C0EBC0000AEB8000019002910391049124
:10FFB000A08801AB08F104027FDF002801D00646CB
:10FFC0000025DAE00A78022A13D0C0EBC00209EB60
:10FFD00082024FF0FD0C82F81AC0D1F800C0C2F8BE
:10FFE00010C0B1F804C0A2F814C08979917506E078
:10FFF00008E0C0EBC00109EB8101FE228A7618708F
:020000040002F8
:100000000022BBE70D988DF832000E9901EB4101FB
:1000100007EB8101C872B4E798F8090020F00100ED
:1000200088F809000E9A02EB420C07EB8C00817AEB
:1000300021F00403837214218DF824100125217A04
:1000400031B1590603D4C07AFFF70EFE267A94E048
:10005000617A490739D59DF83210FF2935D043F030
:1000600008038372637B9B0707D5C1EBC10309EBD0
:1000700083039C7E24F001049C76C37AFF2B7CD002
:1000800017F82C30022B0ED0C1EBC10109EB810116
:1000900002680A6182888A8280798875887E20F069
:1000A000020088760DE0C2EBC2000AEB8000428AB3
:1000B000C1EBC10009EB80000283817E21F00101C8
:1000C000817601210CA8FFF747FD56E0207A012236
:1000D000B2EB101F31D100F00F0001282DD10E9886
:1000E00000EB400207EB8202927A120725D50F49F6
:1000F00000EBC000303901EB800008301A21FCF71A
:100100002CFA16208DF824000E9800EB400007EB27
:100110008000817A41F0200141F04001817298F81D
:10012000090040F0020005E0842100202C2A002074
:100130000840020088F8090011E00E9800EB40002A
:1001400007EB8000827A42F08002827215208DF8DF
:10015000240098F80A0051F820100CA888470026BF
:1001600001250AE098F80A0051F820100CA88847E9
:10017000064602E08DF824200125002D12D03246DB
:1001800009A90CA8FDF7B2FE9DF82400122809D198
:100190000E9800EB400107EB8101897A012901D01B
:1001A000FFF74AFC0FB0BDE8F08F002806D0FF2112
:1001B000017041708170C1700020704748F20E00DC
:1001C000704700002DE9FF410646002E47D0002071
:1001D000324A002500EB400142F8215002EB810138
:1001E0004D728D72401C0028F4D000242046FFF789
:1001F00023FC641C002CF9D0284824213038FCF75B
:10020000ACF90024264F4FF0FF08204602F060F8BA
:1002100007F80480641C072CF7D37420ADF80C0099
:100220000720ADF80E001F4802901D4902A80831B2
:1002300002F0DEF900280FD1194F0120083F387075
:10024000307878B1BDF80C00BDF80E10484381B28B
:1002500007F1100002F0E0F804B0BDE8F08148F2C8
:100260000E00F9E70024104E0D48A1B26A4608308E
:1002700002F09EF808B13D70EEE7C4EBC40006EB57
:10028000800000231C22694602F056F908B13D7037
:10029000E2E7641C072CE7D3DEE700002C2A0020ED
:1002A0008C210020AD0202001C2900202DE9F04F16
:1002B00091B08346DDF868800F4691461D466E4832
:1002C0000068002876D0B8F1740F73D801260DA805
:1002D000FFF76BFF08B1FDF7FDFD4FF0000A8DF849
:1002E00034A08DF838A00C95CDF82C800024A1B254
:1002F00008AA624802F05CF828B9082208A9584602
:10030000FCF73DF9D8B1641C072CF0D39DF83600FA
:10031000FF284FD04FF0200B4FF0400C0AAC032FBA
:1003200010D0574A4FF01C0EA91AB1FBFEF1012361
:10033000072921D20F94B9F1000F0CD015E08DF8E8
:100340003640E3E7B8F1740F02D08DF838C06FE0A3
:100350008DF838B06CE049498340103949680B4248
:1003600001D0012100E0002121B103F019FD8DF839
:1003700038B05DE000265BE0DFF8FC80A8F14C08B7
:10038000A5EB0801B1FBFEF1A9B108F11C02A91A05
:100390004FF02408B1FBF8F802F12401B8F1000F86
:1003A00021D000268DF838C0364A95422AD103273D
:1003B00001263DE04EE00F948DF838B08DF835A061
:1003C000CDF810A02C480C300590CDF800809DF899
:1003D0003600C0EBC00002EB80000190CDF830D0B9
:1003E000CDF82CB024E030208DF838008DF835A001
:1003F0008DF83730887A80071AD424211046FCF70C
:10040000ACF815E01E4A1C3A52F82020AA420FD13F
:1004100001260F94002303EB430201EB8202D27A00
:10042000904202D18DF8353002E05B1C002BF2D0F7
:10043000002E0FD0032F10D0022F15D09DF83800BA
:1004400040F002008DF838000F944A460EA90DA81E
:10045000FDF74CFD11B0BDE8F08F9DF8380040F07D
:1004600003008DF83800EFE79DF8380040F00100F8
:100470008DF83800E8E700002C2A002094210020A5
:100480001C290020E43F020010B5044619480078FA
:1004900000280ED048F20E00002C09D0002907D009
:1004A0000A68002A04D0144803682BB148F20400FB
:1004B00010BD48F2080010BD02600F4BD1F80520B6
:1004C0002C3B1A634A7A83F834200979817222F02E
:1004D000010141F0020121F004010172C17941F0F2
:1004E000010141F0020121F00401C17100202070DE
:1004F00010BD0000842100202C2A002010B50E4AD7
:10050000002351789478A14212D0491CC9B251708D
:10051000022900D1537008495378183151F823103B
:1005200001601069084420F07F401061012010BD77
:100530000360002010BD0000DC21002010B50B4C32
:10054000207900070ED46069401C606100F02CFD2A
:1005500020B12078BDE8104002F012BCBDE8104088
:10056000FFF7A6B8BDE8104000F0D4BF9C210020E2
:100570000D48007806280FD10B48001D00780007B1
:100580000AD1094808300078C0F30310032805D0C9
:10059000042805D0052805D00020704701207047A9
:1005A0000120704701207047E00F00F009480078F3
:1005B00006280BD10748001D0078000706D1054822
:1005C00008300078C0F30310032801D000207047E2
:1005D00001207047E00F00F00D48007806280FD189
:1005E0000B48001D007800070AD109480830007840
:1005F000C0F30310032805D0042805D0052805D032
:10060000002070470120704701207047012070478B
:10061000E00F00F00948007806280BD10748001DBC
:100620000078000706D1054808300078C0F30310B1
:10063000032801D00020704701207047E00F00F030
:100640000D48007806280FD10B48001D00780007E0
:100650000AD1094808300078C0F30310032805D0F8
:10066000042805D0052805D00020704701207047D8
:100670000120704701207047E00F00F00948007822
:1006800006280BD10748001D0078000706D1054851
:1006900008300078C0F30310032801D00020704711
:1006A00001207047E00F00F00948007806280BD1C0
:1006B0000748001D0078000706D10548083000787B
:1006C000C0F30310032801D00020704701207047B9
:1006D000E00F00F00948007806280BD10748001DFC
:1006E0000078000706D1054808300078C0F30310F1
:1006F000052801D00020704701207047E00F00F06E
:10070000F0B500240F4F19E01D68854203D9196820
:10071000081A1860F0BD401B2C4400261E601E46BF
:10072000DD69FD60DD684DB101EB040C2CF07F4C00
:10073000C3F804C09D601568DD611660FB68002B7E
:10074000E2D1F0BDDC210020826883881A40036872
:100750009A5C0A708168491C81607047C26883880E
:100760001A4003689954C168491CC160704730B58C
:100770001488E51C9D4201D90C2030BD02230B5585
:1007800013885B1C9BB213800124CC5413885B1C20
:100790009BB21380C8541088401C1080002030BDCC
:1007A00008B500200090684601F0F0FD082802D04E
:1007B00008B1012008BD082805D1684600F04CF8B2
:1007C00008B1002008BD009808B1012008BD002034
:1007D00008BD0000002808D0112801D0FDF7CEBBCD
:1007E0000248416841F00801416070479C210020A7
:1007F00008498869401C8861B0F57A7F07D008787D
:10080000022801D002F0BCBA487802F0B7BC0D2033
:10081000FDF7B4BB9C21002007480078012805D0D3
:10082000022805D0032805D1FFF788BE02F02ABCB4
:1008300002F09ABC704700009C21002028DFFFF7DF
:10084000C9BF29DFFFF7C6BF10B50446E0B2FDF708
:10085000ABFC204610BD0000002804D00349496DC0
:10086000016000207047032070470000402C0020EA
:100870000EB59DF8000020F00F00401C20F0F000A5
:10088000103000900C220EA168467CDF002801D0B9
:10089000FDF720FB0020019002900621ADF8041026
:1008A0000821ADF80610ADF808004FF4C870ADF897
:1008B0000A0001A87ADF002801D0FDF70BFB0EBD6E
:1008C00049514959492041726D6C6574000000001E
:1008D0000020704700207047002070472DE9F04746
:1008E00005460027B84600246878DFF89CC000EB76
:1008F000C0010CEB810600EB400073680CF1240989
:1009000009EB8000002B0BD0827A5FEA026A07D5E0
:10091000520605D406F108071FFA83F85CF8214057
:100920000089234642463946A9DF0B280AD1012413
:100930006878234600EB400009EB800042460089BE
:100940003946A9DF48F2410600B13046012C16D1E4
:1009500068784FF6FF7200EB400009EB80000C2135
:100960000089A7DF00280AD0A0F54051023908D03D
:10097000082806D0891E04D0112802D00020BDE826
:10098000F0873046FBE70000FC29002070B50646E2
:100990000C460B4D6078382300EBC00005EB80005F
:1009A0002422314601F0C8FD002808D1617801EB0E
:1009B000C10105EB81014A68521C00D14A6070BD3B
:1009C000FC2900202DE9F04188B007460C464FF085
:1009D00003081A2007906078294D00EB400005EBD2
:1009E00080004346008907AA6946AADF002843D150
:1009F0006078A5F1240600EBC00006EB800008300B
:100A0000BDF81C206946FBF7BAFD40B1607800EBE9
:100A1000C00106EB8100406888B11A4D10E0607893
:100A200000EB400105EB8101897A890724D400EBB2
:100A3000C00006EB80002421FBF78FFD1CE0124D67
:100A400046F821806178BDF81C2001EBC10006EB5F
:100A500080004260617801EBC10006EB8000083045
:100A60006946FBF761FD6078382300EBC00006EBB8
:100A7000800124223846A84708B00020BDE8F08154
:100A8000202A002079270200B5260200FFF726BFA2
:100A9000FFF77CBFFFF796BF08B572B66846FDF753
:100AA0007FFA0F4A00981168401A20F07F4090604A
:100AB000B0F5004F0BD3A0F500409060506800F5F2
:100AC0007A70506001F5004121F07F40106090681D
:100AD0004FF47A714843516801EBD03062B608BDDB
:100AE0009420002008B572B66846FDF759FA104AFE
:100AF0000098D168401A20F07F4050610D4BB0F54E
:100B0000004F0AD3A0F500405061106918441061ED
:100B100001F5004121F07F40D0605069A0FB030146
:100B2000C00B40EA41401169401862B608BD0000A0
:100B30009420002040420F002DE9F0410746012497
:100B4000BC40114E3068FDF7C1FA00280DD10F4DA1
:100B50002869204207D1384600F03CFE38B1E868E9
:100B60002043E86006E0A0432861BDE8F081E86822
:100B7000A043E860286920432861A9683068BDE87F
:100B8000F0410022FDF77CBAA0400200C8210020FD
:100B900070B5154C2079000721D400F027FA002504
:100BA00048B1E560606840F001006060BDE87040F9
:100BB000002002F0E3BA00F0F7F928B1E560BDE8E3
:100BC0007040022002F0DABA206920B1BDE870401E
:100BD000032002F0D3BABDE8704002F0AFBABDE81E
:100BE000704002F0B7BA00009C21002003490A6857
:100BF00002604A6842608968816070472C27002043
:100C00007047000070B52C4C2078002807D0607821
:100C100028B92A4A0C21222000F0AEF86070207812
:100C2000617808431DD1FFF737FFA168884218D3C8
:100C3000E078B8B1012821D0022812D1A078032889
:100C400030D21D4A0C3202EB400112F810004978F4
:100C50001B4A00F0BBF86070002802D0A078401C4E
:100C6000A07070BD164A01210F2000F085F8607059
:100C70000028F6D0E078401CE07070BD114D12A045
:100C8000297800F0DBFA297800206A2905D0E07085
:100C9000FFF702FF3230A06070BDE178491CE170BF
:100CA000A07070BD0120207000F088F8BDE8704091
:100CB0000BA000F0C3BA0000B8200020210D0200F4
:100CC000010D0200382700204C534D3644534C2868
:100CD00031292049443A253032580D0A00000000DD
:100CE0004C534D3644534C28312920496E697420A9
:100CF00046696E69736865640D0A000070470000FC
:100D000010B50021054C012800D0E1706170FFF79B
:100D1000C3FE1430A060002010BD0000B8200020E9
:100D2000012820D112488179C27941EA0222A0F13A
:100D30000C010A80027A437A42EA03224A80827ACC
:100D4000C37A42EA03228A800278437842EA032285
:100D5000CA808278C37842EA03220A810279407904
:100D600042EA002048810349002048707047000093
:100D700038270020B820002070B586B004460D4604
:100D80001646142101A8FBF7E8FB0A4804716A2003
:100D90008DF804000748001D039001208DF8100015
:100DA000054802908DF81150059601A802F0BAFC92
:100DB00006B070BDB820002038270020024800216E
:100DC0004170C17081707047B820002070B586B046
:100DD00006460D461446142101A8FBF7BEFB084B3E
:100DE0001E705D706A208DF80400039302208DF858
:100DF0001000059401A802F095FC06B070BD00003B
:100E00003827002015490020487016489FED140A25
:100E100080ED040A80ED030A80ED020A80ED070AE6
:100E200080ED060A80ED050A80ED0A0A80ED090AC8
:100E300080ED080AA83080ED040A80ED030A80EDF9
:100E4000020A80ED070A80ED060A80ED050A80EDB2
:100E50000A0A80ED090A80ED080A70478020002008
:100E60000000000028250020F8B5194E3078002831
:100E70002DD0306928B10024F06820B1002524B1BC
:100E800010E00124F8E70125F9E7684652DF05285C
:100E900003D020B1FDF71EF804E0012402E031691F
:100EA000009888477DB9708800906946B06861DF16
:100EB000052803D020B1FDF70DF804E0012502E07C
:100EC000D6E902018847002CD9D0002DD7D0F8BD33
:100ED000082200207FB505460C4604F1260294F84E
:100EE000210094F82010CDE90010D11E2846E369B6
:100EF00002F0B9FC002823D194F8230008BB207B22
:100F0000022801D003281CD12269E169914218D13D
:100F10006269E261E37B84F82030217EC1F34011F5
:100F200084F82110032806D004B029462046BDE8E5
:100F3000704002F044BC00912946204602F006FDB4
:100F40007FBDD4E90412E06801AB07C394F8230025
:100F5000002178B1D5F8C404C5F8C404820703D5CC
:100F600001208DF8000007E0400705D502208DF82C
:100F7000000001E08DF8001084F82410207E400766
:100F8000DED4D4E90021684690477FBD05494088FA
:100F90000A88904204D34988884201D801207047CA
:100FA000002070477421002070B50E49087800EBCE
:100FB000800001EB8004256901F093FAE188228921
:100FC0006D1E11442944B1FBF0F007494A69824281
:100FD00005D301D1086910B14FF0000070BD4FF08A
:100FE000010070BD1C2B00209C21002070B50D4914
:100FF000087800EB800001EB8004256901F071FAAC
:10100000E18822896D1E11442944B1FBF0F00649A4
:101010000A6922B14969814201D1012070BD0020D5
:1010200070BD00001C2B00209C210020800701D0F7
:10103000002070470120704730B51488E51C9D42A0
:1010400001D90C2030BD02250D5513885B1C9BB2C5
:1010500013801C24CC5413885B1C9BB21380012882
:1010600007D0022808D0032809D0042809D0072077
:1010700030BD0020C85406E00120C85403E0CD5420
:1010800001E00320C8541088401C1080002030BDAF
:101090000348017AC90702D00078FEF72DB87047DF
:1010A000E02000202DE9F0411A4FD7F80C803E785F
:1010B00024E0B86800EBC6052C781CE0686804EBF7
:1010C000440100EBC100641CE4B2A978A14200D144
:1010D00000240178022902D003290CD103E04068E2
:1010E00002F018F907E0002102E00174C069F8601D
:1010F000F8680028F9D16878A042DFD1761EF6B2F0
:10110000D7D2F868404502D00120BDE8F081002028
:10111000FBE70000DC2100202DE9F0470546DFF861
:10112000C080D8F80C9098F8006000274CE0D8F800
:10113000080000EBC60441E015B12846C5691EE071
:101140002078616800EB400201EBC201401CC0B294
:101150002070A278904200D1277048680A78012A4E
:101160002CD1027C52BB8A684260CA6882600A69DC
:10117000C2604969816198F8041001B14760416813
:10118000D8F81030DFF85CC0CA1A22F07F426245FE
:1011900003D281681144016009E0591A21F07F41AE
:1011A00082688A4202D9511A016000E007604760F4
:1011B000876001210174C76102F088F8002DBBD15E
:1011C000207861788842B7D1761EF6B2AFD2D8F8CF
:1011D0000C00484502D00120BDE8F0870020FBE765
:1011E000DC210020FFFF7F0030B587B00F4C207856
:1011F000002802D0002007B030BD0D48D0E9001211
:101200008068CDE9041206900848401C0090012532
:10121000019508480290680203900623064A694631
:1012200004A8FCF76BFF2570E5E70000FC21002017
:10123000A8400200982C0020D73A02000FB410B545
:1012400003A90298FCF77EF810BC5DF814FB0000BF
:101250000249CA680260098A81807047CC20002058
:101260007047000070B5374C002501262078002813
:101270001BD0FFF711FCA168884215D3E078002845
:1012800012D1A078A8B1012819D02F4E022822D05F
:10129000032839D0FFF700FC0A30A0602B4A082150
:1012A000112000F0B7F8E07070BD26706570A57071
:1012B00070BDA670FFF7F0FB0A30A06070BD244A35
:1012C0000121002000F0A6F8E0700028F6D0A078F8
:1012D000401CA07070BD31781EA0FFF7AFFF3078C2
:1012E000482805D0A570FFF7D7FB3230A06070BD4D
:1012F0000121174A084600F08DF8E0700028F6D06A
:10130000A078401CA07070BD317818A0FFF796FF40
:1013100030780C2805D0A570FFF7BEFB3230A060F6
:1013200070BD0B4A0821312000F096F8E0700028CB
:10133000F6D0A078401CA070BDE8704011A0FFF767
:101340007DBF0000CC2000204C270020DD130200D0
:10135000A5130200414B3039393178283129204911
:1013600044313A253032580D0A000000414B3039E3
:10137000393178283129204944323A253032580D04
:101380000A000000414B3039393178283129204991
:101390006E69742046696E69736865640D0A0000A1
:1013A0007047000070B50025064C012803D0A570D9
:1013B00005A0FFF743FFE570FFF76EFB0A30A06062
:1013C000002070BDCC200020414B303939317828C5
:1013D0003129206572726F720D0A0000012810D148
:1013E0000A480178427841EA022209490A80827853
:1013F000C37842EA03224A800279407942EA002017
:101400008880034900200C39C87070474C270020A1
:10141000D820002070B586B004460D46164614212B
:1014200001A8FBF79AF80A4804710C208DF8040013
:101430000748001D039001208DF810000548029018
:101440008DF81150059601A802F06CF906B070BD38
:10145000CC2000204C27002070B586B006460D46F3
:101460001446142101A8FBF778F8084B1E705D7034
:101470000C208DF80400039302208DF810000594D1
:1014800001A802F04FF906B070BD00004C27002003
:1014900008B501F0F3FF6846FDF7DEFFFDF774FCC9
:1014A0009DF80000FEF7FEFBFFF7E2F9FCF776FC83
:1014B00001F0A4FBFEF72EFAFFF796FE0CA0FFF753
:1014C000BDFE02F015F9FFF7CBFEFFF769FFFFF74E
:1014D00097FBFFF713FCFCF7A5FE0320FDF7A8F927
:1014E00008B1FCF7F7FCFFF78DFC00F005F8FCE70E
:1014F00048656C6C6F0D0A0010B5054C60780028CB
:1015000005D000F041FFFBF751FD0020607010BDD9
:10151000802000200348416821F0080141600078E4
:1015200001F02EBC9C21002070B505460E461446E5
:10153000A888801C2188821C0A449A4201D90C2068
:1015400070BDFE2801D90C2070BD401C705420884D
:10155000401C80B22080FF2131542088401C80B282
:1015600020808119288802F013FC2188084480B269
:101570002080AA8842B1A96841B13044FAF7D4FF6B
:101580002088A98808442080002070BD072070BDF5
:10159000F8B505460F4614462978012901D1687827
:1015A00030B12088821C9A4209D8012902D008E073
:1015B0000720F8BD69780144891C994201D90C20A3
:1015C000F8BD181A801E86B200962188B81C0844FF
:1015D00069467DDF0028F3D12978022905D1BDF8BD
:1015E0000000B04201D8092008E00820012904D1F8
:1015F0006978B14201D8009100E00096BDF8001072
:10160000FE2901D90C20F8BD2288491CB954218833
:10161000491C89B2218078542088401C2080BDF864
:101620000010084420800020F8BD002070470020F2
:101630007047002070474907090E002806DA00F0BD
:101640000F0202F1E02282F8141D03E000F1E02213
:1016500082F8001400F01F0201219140400980002F
:1016600000F1E020C0F88012C0F8001170470000BF
:101670002DE9F04706468946304600F049FEDFF87E
:1016800094800125D8B13046FDF73CFF404490F8E6
:1016900048008009032807D001280ED003213046D6
:1016A000BDE8F04700F0BBBC1B480068B5402842CD
:1016B00001D00321F3E70221F1E70221EFE73046F1
:1016C00000F032FE002822D03046FDF71BFF044612
:1016D0004FF4807000EB840081B220460F4F07EB7F
:1016E0008000D0F8102542F00102C0F8102508460D
:1016F00000F0ACFCB9F1000F09D03046FDF702FF55
:1017000058F82000002802D0A540C7F80453BDE8CF
:10171000F0870000502A00201005005000600040B3
:101720002DE9FC410C46054611460027DFF898805C
:1017300008EB050090F93000C017401C002801D0CC
:1017400008273DE0E2782846FDF7B2FE0646701C09
:1017500035D0A07848B1A80000F1A040D0F800171B
:1017600021F00201C0F8001707E063782846002145
:1017700000910A46019100F01DFCE078B0B121789B
:10178000124800EB860000F5A2600268104B1A4078
:1017900002604FF4F8524FF4403302EA052203EAA4
:1017A00001410A4301680A43026009E008EB0600B0
:1017B000227810F8481F41EA8211017000E00427E6
:1017C0003846BDE8FC810000502A0020006000403F
:1017D000FFE0FCFF04490968C14001F00100002856
:1017E00000D00120704700001005005070B5124D68
:1017F00095F85400002801D0082070BD0020411E3B
:101800002A1882F83010401CC0B22028F8D30024D7
:101810002046FDF73FFE641CE4B20C2CF8D30621F1
:101820000846FFF708FF4FF0004004490860012018
:1018300085F85400002070BD502A00200463004049
:10184000034890F85400002800D0012070470000A1
:10185000502A00202DE9F04705460E460220DFF809
:10186000C880C8F80803314CDFF8C490002794F80A
:1018700027004FF4807A012811D00220C8F8040311
:101880004FF0010A84F827A0082084F828000022DD
:1018900004EB4200807D00B384F8282021E0E0685A
:1018A00028B10220C8F804031120BDE8F087E560E4
:1018B000A68294F8290001280AD1504600F01AFCAB
:1018C0000028FAD0C9F800703146284600F0D2FB53
:1018D0000220C8F804030020E7E7521CD2B2082A0D
:1018E000D6D394F82800082801D30820DDE76781C3
:1018F00065602681E76004EB4001CA7D897D00F0C8
:10190000EFFB94F82900012809D00121284600F0B6
:10191000B1FBC9F80070C8F800A00020C5E7314647
:10192000284600F0A7FBF4E700700040F02A0020F2
:101930000071004010B504460E4890F82720012A97
:1019400004D000EB4402937D13B105E0112010BDDB
:1019500010F8293F5B1C037088799075C879D075A1
:10196000204600F08FFB00221146204600F0B8FB15
:10197000002010BDF02A002010B504460F4890F852
:101980002710012917D000EB44018A7D1AB110F805
:10199000292F521E027000208875C875002211463A
:1019A000204600F09DFB40F2FF72D143204600F03C
:1019B00041F8002010BD112010BD0000F02A0020C9
:1019C00070B5174A92F82630002B01D0082070BD60
:1019D00009B110B102E0072070BD12481160017812
:1019E000114B196041781B1D1960012482F82640B3
:1019F000002182F8271082F82910116151816FF0BF
:101A000000420A4D6A600A4A116081780720FFF798
:101A100012FE022028600448F0380460002070BDE7
:101A2000F02A002054400200F0750040047300408A
:101A3000047100402DE9F041054688461746C8EA82
:101A400007401B4C04EB0511C1F81C05002128467A
:101A500000F058FB012101EB4501E304CB40154E9A
:101A600018F5006F1DD0316919433161C4F80403C2
:101A70000121284600F046FB6A004FF00041D140AA
:101A8000A7F5E063FF3B06D032690A433261C4F830
:101A90000403BDE8F08132698A433261C4F8080367
:101AA000F7E7316999433161C4F80803E0E70000C2
:101AB00000700040F02A00200020054991F827100E
:101AC000002903D0034A012111607047112070479B
:101AD000F02A0020047000402DE9F041164A8021D0
:101AE0000120002611601549144D0831086042F2AA
:101AF00010744FF48A7700E0641E384600F0FAFA5A
:101B000008B9002CF8D10E4806606FF00040C5F807
:101B100008030C4D85F82760002405EB4400807D08
:101B200010B12046FFF728FF641CE4B2082CF4D360
:101B300085F82660BDE8F08180E100E0007000409B
:101B400000750040F02A00200179064A01EB81016E
:101B500002EBC10100680522C0F80025022081F8CF
:101B600022007047C82A002070B506460D4631791C
:101B70001F4C01EB810004EBC00494F82200002804
:101B800001D0082070BD15B91A4800EB011522607C
:101B900063600020A06084F8250084F824002946B2
:101BA000304601F007FD286840F20C61800000F12A
:101BB000A040C0F800176868800000F1A040C0F89D
:101BC00000173168D5E9000201F5A16108604A609B
:101BD000A868C861206828B13068000B40B2297B32
:101BE000FFF729FD012084F82200002070BD0000CD
:101BF000C82A00203840020030B40D460179084B55
:101C000001EB810103EBC104910702D030BC062037
:101C10007047134601682A46204630BC01F0D7BE03
:101C2000C82A00202DE9F04104460E46204DE87EEA
:101C3000002802D00820BDE8F08104B91D4C607F67
:101C400028772046FCF708FB6E60206928605FEA71
:101C50000608194E4FF0000718D0217F287F58B191
:101C6000C6F81071C6F82071C6F82471C6F8447120
:101C70001248C6F8040306E0C6F81C71C6F84471A1
:101C80000F48C6F804030220FFF7D5FC287F18B1DF
:101C90000820C6F8000502E00420C6F80005EF752C
:101CA0002F76AF750120E876AF760020C3E70000FD
:101CB000A82A002018400200002000401003020063
:101CC000800002002DE9F0031E4D2B7F002B08D071
:101CD0004FF40052B2EB104F03D01020BDE8F003D8
:101CE00070470022184E6C684FF404774FF4017C63
:101CF0002CB113B1C6F8087301E0C6F808C395F813
:101D00001780B8F1000F0BD02A7E42B12CB113B16D
:101D1000C6F8047301E0C6F804C31120DEE701220F
:101D200032B1286129764BB1BDE8F00300F06EB8FE
:101D3000E975E86000246C762C76F4E7BDE8F003E2
:101D400000F014B8A82A00200020004010B5064C6E
:101D5000207F002806D1A07E002803D100F0C0FD1E
:101D60000120A07610BD0000A82A00202DE9F05F18
:101D7000DFF8908098F81A00104301D100F0B0FD10
:101D8000214ED8F8040030B14FF40170C6F80403B6
:101D90000020BDE8F09F4FF4A2790020C6F844016E
:101DA0004FF4927A4FF4847B5146304600F0B8F9F4
