:020000040001F9
:10C00000F84C002005C501000DC501000FC5010059
:10C0100011C5010013C5010015C501000000000095
:10C0200000000000000000000000000017C5010033
:10C0300019C50100000000001BC501001DC501005D
:10C040001FC501001FC5010031D1010081CD0100D4
:10C050001FC501001FC50100C9CA01001FC501009D
:10C060001FC501001FC501001FC501001FC501003C
:10C070001FC501001FC501001FC501001FC501002C
:10C080001FC5010069CD01001FC501001FC50100CA
:10C0900091CD01001FC5010095CD01001FC5010014
:10C0A0001FC501001FC501001FC501001FC50100FC
:10C0B0001FC501001FC501000000000000000000B6
:10C0C0001FC501001FC501001FC501001FC50100DC
:10C0D0001FC501001FC501001FC5010000000000B1
:10C0E0000000000000000000000000000000000050
:10C0F0000000000000000000000000000000000040
:10C10000000000000000000000000000000000002F
:10C11000000000000000000000000000000000001F
:10C40000DFF80CD000F0C0FA0048004751050200E8
:10C41000F84C0020401E00BF00BF00BF00BF00BF9F
:10C4200000BF00BF00BF00BF00BF00BF00BF00BF14
:10C4300000BF00BF00BF00BF00BF00BF00BF00BF04
:10C4400000BF00BF00BF00BF00BF00BF00BF00BFF4
:10C4500000BF00BF00BF00BF00BF00BF00BF00BFE4
:10C4600000BF00BF00BF00BF00BF00BF00BF00BFD4
:10C4700000BF00BF00BF00BF00BF00BF00BF00BFC4
:10C4800000BF00BF00BFC5D170470000401E00BF05
:10C4900000BF00BF00BF00BF00BF00BF00BF00BFA4
:10C4A00000BF00BF00BF00BF00BF00BF00BF00BF94
:10C4B00000BF00BF00BF00BF00BF00BF00BF00BF84
:10C4C00000BF00BF00BF00BF00BF00BF00BF00BF74
:10C4D00000BF00BF00BF00BF00BF00BF00BF00BF64
:10C4E00000BF00BF00BF00BF00BF00BF00BF00BF54
:10C4F00000BF00BF00BF00BF00BF00BF00BFC5D16D
:10C50000704700000648804706480047FEE7FEE700
:10C51000FEE7FEE7FEE7FEE7FEE7FEE7FEE7FEE7F3
:10C520005DCF010001C4010040EA01039B0703D075
:10C5300009E008C9121F08C0042AFAD203E011F862
:10C54000013B00F8013B521EF9D27047D2B201E024
:10C5500000F8012B491EFBD270470022F6E710B508
:10C5600013460A4604461946FFF7F0FF204610BD61
:10C5700030B504460020034600E05B1C934203D222
:10C58000E05CCD5C401BF8D030BD30B50B460146B9
:10C5900000202022012409E021FA02F59D4205D362
:10C5A00003FA02F5491B04FA02F52844151EA2F10C
:10C5B0000102F1DC30BD2DE9F05F05460020924616
:10C5C0009B4688460646814640241BE02846414655
:10C5D0004746224600F0F9F953465A46C01A91419F
:10C5E00010D311461846224600F0E0F92D1A67EBE9
:10C5F00001084F4622460120002100F0D7F917EB31
:10C6000000094E41201EA4F10104DFDC48463146FA
:10C610002A464346BDE8F09F2DE9FE4F804681EA59
:10C620000300C00F0C46009021F0004123F00045AC
:10C63000B8EB0200A94105D24046214690461C466F
:10C640000B46024623F00040104347D0270DC7F3A6
:10C650000A00C3F30A510290401A019040286BDA95
:10C66000C3F3130040F4801B0098924620B10023CE
:10C67000D2EB030A63EB0B0B01985946C0F1400261
:10C68000504600F093F906460D4650465946019A29
:10C6900000F0ABF910EB08006141002487EA115269
:10C6A00084EAE7731A4340D0009A62B3019A012AE0
:10C6B0004FEA075215DC001B61EB02014FF000420C
:10C6C00002EA0752CDE90042001C41F580113246D2
:10C6D0002B4600F0ABF903B0BDE8F08F4046214691
:10C6E000F9E7001B61EB0201001C41F58013001803
:10C6F0005B412018A2F5001747EB030140EAD57013
:10C70000B6196D4111E06D084FEA360645EAC0756D
:10C710004FEA0752001B61EB0201001C41F580113A
:10C7200049084FEA30000019514132462B4603B008
:10C73000BDE8F04F00F06BB90098012240000023E3
:10C74000D0EB020263EBE073009821464FEAE074FD
:10C75000B8EB000061EB0401E9E783F000435BE71D
:10C7600081F0004158E72DE9FE4F81EA030404F00F
:10C77000004421F0004100944FF0000B23F00043EF
:10C7800050EA01045ED052EA03045BD0C3F30A54BA
:10C79000C1F30A552C44A4F2F3340194A0FB0254D3
:10C7A000C1F3130141F48011C3F3130343F4801365
:10C7B00001FB024400FB034E840A970A44EA8154B9
:10C7C00047EA8357A4FB076802958D0A05FB078596
:10C7D0004FEA932C04FB0C542705029D4FEA0658A0
:10C7E00047EA1637B5EB08056EEB070C870E920E7D
:10C7F00047EA811742EA8312A7FB0201B6EB0B015D
:10C8000064EB00042B0D43EA0C335E1844EB1C5020
:10C81000DA465146E7FB0201C5F313044FEA0B3336
:10C8200043EA14534FEA0432019C43EA0603A4F19D
:10C830000C040294009CCDE900B400F0F7F803B0BA
:10C84000BDE8F08F00200146F9E72DE9F04D81EABF
:10C85000030404F0004B21F0004514464FF0000A99
:10C8600023F0004150EA050220D054EA01021DD015
:10C87000C5F30A570246C5F31303C1F31300C1F30E
:10C880000A5640F4801543F48013A7EB0608101BEA
:10C89000D64608F2FD3873EB050002D308F1010813
:10C8A00001E092185B41B8F1000F03DA0020014665
:10C8B000BDE8F08D00204FF48011064684460EE05E
:10C8C000171B73EB050705D3121B63EB0503064328
:10C8D0004CEA010C49084FEA300092185B4150EADB
:10C8E0000107EDD152EA030012D082EA040083EA84
:10C8F0000501084305D0101BAB4106D201220023DD
:10C9000006E000224FF0004302E06FF001025310F6
:10C910001AEB06004CEB085110EB0A0041EB0B013F
:10C92000BDE8F04D00F073B8C1F30A52C1F3130132
:10C9300040F2FF3341F480119A4202DA00200146AE
:10C94000704740F233439A42A2F2334202DC524231
:10C9500000F03BB800F02AB830B5041E71F10004B5
:10C9600004DB4FF00044404264EB0101141E73F1FC
:10C97000000405DB1C464FF00043524263EB040306
:10C98000994208BF904230BD064C074D06E0E06872
:10C9900040F0010394E8070098471034AC42F6D306
:10C9A000FFF732FD3029020050290200202A04DB63
:10C9B000203A00FA02F1002070479140C2F12003B2
:10C9C00020FA03F3194390407047202A04DB203AF1
:10C9D00021FA02F00021704721FA02F3D040C2F19F
:10C9E00020029140084319467047202A06DBCB17E6
:10C9F000203A41FA02F043EAE07306E041FA02F31A
:10CA0000D040C2F12002914008431946704710B54A
:10CA1000141E73F1000408DA401C41F10001921861
:10CA20005B411A4301D120F0010010BD2DE9F04D0A
:10CA300092469B4611B1B1FA81F202E0B0FA80F25F
:10CA400020329046FFF7B2FF04460F4640EA0A0044
:10CA500041EA0B0153465A46084313D0114653EAA4
:10CA6000010019D0C8F140025046FFF7AEFF05465D
:10CA70000E46504659464246FFF798FF084305D0F8
:10CA8000012004E020463946BDE8F08D0020054332
:10CA900046EAE0762C4337430A986305E40AA0EBA4
:10CAA00008000022FD0A44EA47540A3002D500205B
:10CAB0000146E9E7010510196941DDE9084500195A
:10CAC0006941BDE8F04DA2E72DE9F84F0025A946E0
:10CAD0004FF48078012400264B4F404604F09EF826
:10CAE00038B1D7F80403204018B1404604F08CF860
:10CAF0002543640008F104081FFA88F8761C082E04
:10CB0000EBD34FF4BE74204604F088F838B12046C9
:10CB100004F07AF845F000453C48D0F80090DFF882
:10CB2000F08015F0FF0F14D0012600242E420CD007
:10CB300007EB8401D1F81005C0F30420D1F81015DB
:10CB4000C1F3014158F8242090477600641C082C5A
:10CB5000ECD3002D56DA4FF0000B4FF0FF30009071
:10CB6000002400252A4F791911F8500F20F0C00A2F
:10CB700091F90010491C34D04FF00108009908FACF
:10CB80000AF818EA010F2CD08609504601F05EFE23
:10CB900057F820700FB9032E23D1032E01D14BEA91
:10CBA000080B4FEA8A0000F1A040D0F80007C0F35C
:10CBB000014018EA090801D0022804D0B8F1000F9A
:10CBC0000FD103280DD1032E07D1022813D0022143
:10CBD000504604F003F8641CE4B217B131465046E5
:10CBE000B8476D1C042DBDD354B1084800684845B2
:10CBF00003D1002404E00321EAE78146CDF800B028
:10CC0000002CADD1BDE8F88F006000401005005049
:10CC1000E428002010B5012802D0022804D101E048
:10CC2000344C01E0334CA834B1F9000000EE100A96
:10CC3000F8EEC00A9FED300A60EE800AC4ED020AE9
:10CC4000B1F9020000EE900AF8EEE00A60EE800A08
:10CC5000C4ED030AB1F9040000EE900AF8EEE00A10
:10CC600020EE800A84ED040AB1F9060000EE100AF5
:10CC7000F8EEC00A9FED210A60EE800AC4ED050AB5
:10CC8000B1F9080000EE900AF8EEE00A60EE800AC2
:10CC9000C4ED060AB1F90A0000EE900AF8EEE00AC7
:10CCA00020EE800A84ED070AB2F9000000EE100AB7
:10CCB000F8EEC00A9FED120A60EE800AC4ED080A81
:10CCC000B2F9020000EE900AF8EEE00A60EE800A87
:10CCD000C4ED090AB2F9040000EE900AF8EEE00A89
:10CCE00020EE800A84ED0A0A02F0ECFFC4F8A400EA
:10CCF00010BD00001C2400200000003A7922A03A58
:10CD000082A87B3700F01F0201219140400980007A
:10CD100000F1E020C0F88012704700F01F020121EE
:10CD200091404009800000F1E020C0F800117047F8
:10CD300000F01F02012191404009800000F1E02035
:10CD4000C0F8001270474907090E002806DA00F003
:10CD50000F0000F1E02080F8141D704700F1E02082
:10CD600080F8001470470000044800210164416409
:10CD70008164C1640160416004F0A6BF00110140FC
:10CD80000149024803F046B9402A00200030004023
:10CD900004F0DABE10B508484068002806D0804785
:10CDA000002807D0BDE8104000F03ABFBDE81040B1
:10CDB00003F0FAB810BD00007C21002070B52DED05
:10CDC000028B88B0142103A8FFF7C7FB02F054FFC1
:10CDD0000446142103A8FFF7C0FB142203A96846E8
:10CDE00004F0FCFD02221146684604F0FEFD092213
:10CDF0002146684604F0F9FD504801784A1C02704B
:10CE00000322684604F0F1FD4D4C94ED080A9FEDB5
:10CE10004D8A20EE080ABDEEC00A10EE100A01B2DB
:10CE200094ED090A20EE080ABDEEC00A10EE100AC1
:10CE300005B294ED0A0A20EE080ABDEEC00A10EE13
:10CE4000100A06B20A22684604F0CFFD0A222946DB
:10CE5000684604F0CAFD0A223146684604F0C5FD62
:10CE600004220021684604F0C0FD94ED020A20EE81
:10CE7000080ABDEEC00A10EE100A01B294ED030AD2
:10CE800020EE080ABDEEC00A10EE100A05B294EDBD
:10CE9000040A20EE080ABDEEC00A10EE100A06B21F
:10CEA0001022684604F0A1FD10222946684604F0CD
:10CEB0009CFD10223146684604F097FDD4ED050A2A
:10CEC0009FED210A60EE800AFDEEE00A10EE901A56
:10CED000D4ED060A60EE800AFDEEE00A10EE905AEC
:10CEE000D4ED070A20EE800ABDEEC00A10EE104A0B
:10CEF0001022684604F079FD10222946684604F0A5
:10CF000074FD10222146684604F06FFDFE2000F0FB
:10CF1000F1FFEF2000F0EEFF002403AD285D00F0EC
:10CF2000E9FF641C142CF9DB0D2000F0E3FF0A205C
:10CF300000F0E0FF08B0BDEC028B70BD8020002047
:10CF40001C24002000401C4600007A44024901488D
:10CF5000086070470090D0039021002070B502F067
:10CF600015FC10B167486649416702F025FC28B1FD
:10CF7000654800686549C0F34230086002F03AFC39
:10CF800020B16348016821F08071016002F048FC23
:10CF9000002428B15F48046044605C48001F0460BE
:10CFA00002F05CFC18B1594903206431086002F0BA
:10CFB0006BFC012558B15849052008605648783067
:10CFC0000560554808300460091D3F20086002F0E4
:10CFD00071FCE8B351480068514908604F48001D92
:10CFE0000068091D08604D48083001684C48083049
:10CFF00001604A480C30006849490C3108604748D4
:10D0000010300068091D0860444814300068091D8C
:10D0100008604248183000684149203108603F48A4
:10D020001C300068091D08603C4820300068091D5C
:10D0300008603A4824300068091D086037482830E5
:10D040000068091D086035482C300068091D00E0A3
:10D050001AE00860314830300068314940310860DA
:10D060002E4834300068091D08602C4838300068AC
:10D07000091D086029483C300068091D08602748E0
:10D0800040300068091D086021487438016841F487
:10D0900070010160BFF34F8FBFF36F8F4FF010220D
:10D0A000D2F80002002803DBD2F80402002822DABA
:10D0B0001C4B1D601C4801680029FCD01525C2F8D6
:10D0C000005201680029FCD0C2F80452016800290E
:10D0D000FCD01C6001680029FCD0BFF34F8F0C48C6
:10D0E000F0380168114A01F4E06111430160BFF3B7
:10D0F0004F8F00BFFDE7BDE87040FFF727BF00007E
:10D100000DF0ADBA00C00740440200103C050040DD
:10D11000FCED00E00C01004010560040040400103B
:10D1200020C5004004E5014000E401400400FA0588
:10D130000348007F002801D005F018BA05F090B927
:10D140003C290020014B024A00F0C6B829FA010030
:10D150007821002002E008C8121F08C1002AFAD175
:10D1600070477047002001E001C1121F002AFBD167
:10D17000704700002DE9FF5FDDE90220010DDDF8B9
:10D1800038B0024318D044F61050A1F2FF314143A9
:10D190000D140F98012820D0A5EB0B00401C5FEA6E
:10D1A000000A4FF00004474EDFF81C91A04650469D
:10D1B00016D5CAF1000728E00F98012443A20128E0
:10D1C00008D0002100980F9BC0E90021C0E902436C
:10D1D000BDE8FF9F6FEA0B01F4E7CBF10000DEE74B
:10D1E000074612E0F80707D0224633464046494634
:10D1F000FFF7B9FA8046894622463346104619465B
:10D20000FFF7B1FA04460E467F10002FEAD1DDE9A0
:10D210000201BAF1000F42464B4602DAFFF7A3FAC9
:10D2200001E0FFF712FB04460E460022284BFFF7F1
:10D2300093FB03D84FF0FF30014607E00022254B57
:10D2400020463146FFF7E8F9FFF76EFB102409E0AE
:10D25000002C0ADB0A220023FFF7ADF9019B3032D4
:10D260001A55641E50EA0102F2D1641C019AC4F1FD
:10D27000110314440F9A012A03D0012208430DD14F
:10D280000AE0084304D000204FF0110B0F9080E714
:10D29000A3EB0B056D1E0DE05B4504DD4FF00002B6
:10D2A00005F1010504E003DA4FF00002A5F10105E4
:10D2B000002AECD000980F99C0E90231C0E900457E
:10D2C00086E70000000024400000F03F300000002E
:10D2D0000000F0430000E03F2DE9FF4F95B09B4672
:10D2E0008946064600250FE2252877D100242746E7
:10D2F000F84A0121059400E0044316F8013F203B61
:10D3000001FA03F01042F7D130782A2811D06FF0DB
:10D310002F033078A0F13002092A16D8059A44F07C
:10D32000020402EB820203EB42021044761C0590D9
:10D33000EFE759F8042B0592002A03DA504244F42F
:10D340000054059044F00204761C30782E2816D143
:10D3500016F8010F44F004042A280DD06FF02F02B4
:10D360003078A0F13003092B09D807EB870302EBD3
:10D370004303C718761CF3E759F8047B761C307812
:10D380006C280FD006DC4C2817D068280DD06A28EE
:10D3900014D104E0742810D07A280FD10DE044F4A1
:10D3A00000140AE044F4801401E044F4401472785C
:10D3B000824202D104F58014761C761C30786628EF
:10D3C0000BD013DC582877D009DC002875D045280D
:10D3D000F6D04628F4D047281AD19DE118E06328FA
:10D3E00035D0642879D0652812D195E1702873D0A2
:10D3F00008DC6728F1D069286FD06E280DD06F281F
:10D4000006D1B5E073282CD0752875D0782874D053
:10D410005A46179990476D1C75E1C4F302500228D3
:10D4200009D003280DD0D9F8001004280DD00D60C4
:10D4300009F1040967E1D9F80010EA17C1E90052BF
:10D44000F6E7D9F800100D80F2E70D70F0E719F853
:10D45000041B8DF8001000208DF80100EA46012021
:10D4600003E059F804AB4FF0FF3061074FF00001C3
:10D4700002D40DE008F101018846B9420FDA804577
:10D48000F8DB1AF808100029F4D108E008F10101CE
:10D4900088468142FADB1AF808100029F6D105986F
:10D4A0005B46A0EB080721463846179A00F094FA2D
:10D4B000284400EB080507E04DE029E10DE01AF8EB
:10D4C000010B5A4617999047B8F10108F7D25B460D
:10D4D00021463846179A13E142E00A220092C4F32B
:10D4E00002524FF0000A022A08D059F804CB032A4E
:10D4F0004FEAEC710AD00DE029E02AE009F10701BA
:10D5000021F00702F2E802C1914609E00FFA8CFC13
:10D510004FEAEC71042A03D14FFA8CFC4FEAEC710C
:10D52000002907DA0A460021DCF1000C61EB020158
:10D530002D2202E0220504D52B228DF804200122A1
:10D5400003E0E20701D02022F7E7904659E00A21E4
:10D5500002E010220DE010214FF0000A00910BE0D4
:10D5600010224FF0000A44F004040827009203E060
:10D5700008224FF0000A0092C4F30252022A05D09A
:10D5800059F804CB0021032A08D009E009F107016A
:10D5900021F00702F2E802C1914605E01FFA8CFC77
:10D5A000042A01D10CF0FF0C4FF00008220728D507
:10D5B000702806D0009B83F0100353EA0A0305D0BD
:10D5C0000EE040228DF80420012208E05CEA01020E
:10D5D00006D030228DF804208DF8050002229046F6
:10D5E000009B83F0080353EA0A030AD15CEA0102B4
:10D5F00001D1620705D530228DF804204FF00108D3
:10D600007F1E582804D034A003900EA802900DE08D
:10D6100036A0F9E753466046009AFEF7CCFF8446F1
:10D620000398825C0298401E029002705CEA01003E
:10D63000F0D1029806A9081A00F1200A600702D565
:10D6400024F4803400E00127574502DDA7EB0A00EF
:10D6500000E0002000EB0A01009005984144401AC8
:10D660000590E00306D45B462146179A059800F022
:10D67000B3F90544002706E001A85A46C05D179992
:10D6800090476D1C7F1C4745F6DBE0030CD55B46DD
:10D690002146179A059800F09FF9054404E03020D0
:10D6A0005A46179990476D1C0099481E0090002912
:10D6B000F5DC08E0029802995A460078491C02916C
:10D6C000179990476D1CBAF10001AAF1010AF1DC2B
:10D6D00065E1000009280100303132333435363736
:10D6E00038396162636465660000000030313233AE
:10D6F000343536373839414243444546000000004E
:10D7000000F058F90544761C307800287FF4ECAD21
:10D7100019B02846BDE8F08F620700D4062709F14A
:10D72000070222F0070CFCE80223E14603F0004860
:10D730005FEA080C02D00FF2702C0DE05FEA045C87
:10D7400002D50FF2682C07E05FEAC47C02D00FF22A
:10D75000602C01E0AFF2700C4FF0FF3823F0004373
:10D76000CDF850C065280CD006DC452809D04628E5
:10D770001DD047283DD13DE0662818D067287ED1CE
:10D7800038E00021112F01DB112000E0781CCDE9E9
:10D79000000106A90EA8FFF7EDFCDDE90F010E9AC6
:10D7A00003910021009207F1010A04914DE04FF02E
:10D7B00000400097CDE9011006A90EA8FFF7DAFC9A
:10D7C000DDE90F0203920E9B11990022DDF80CA0F7
:10D7D0000093049211B9791C00EB010AB7EB0A001F
:10D7E00004D4C0F1FF3007F1010A0490AAEB07004E
:10D7F000019044E0012F00DA01270021112F01DD03
:10D80000112000E03846CDE9000106A90EA8FFF777
:10D81000B1FCDDE90F010E9A039100210491009201
:10D82000BA4621070CD40399514500DA8A46BAF169
:10D83000010F05DD009AAAF10101515C302908D0E1
:10D84000B84202DA10F1040F06DA0121CDE9011025
:10D8500015E0AAF10101E9E7002805DC049901447B
:10D860000491AAEB000102E0411C514500DD8A460B
:10D870000499401A401C01904FF00040029020078C
:10D8800004D40198504501DBCDF8048000208DF8C8
:10D890004F0002980DF14F07B0F1004F25D02B201B
:10D8A0000E9002984FF0020800280CDA40420290D5
:10D8B0002D200E9007E00A210298FEF766FE303117
:10D8C000029007F8011DB8F10001A8F10108F2DC8F
:10D8D00002980028EFD1791E0E980870307800F079
:10D8E000200040F0450007F8020D12A8C01B00F10F
:10D8F00007081498007800B1012000EB0A01019894
:10D9000001EBE07105984144401A401E0590E00388
:10D9100006D45B462146179A059800F05DF8054449
:10D920001498007818B15A46179990476D1CE00377
:10D9300024D55B462146179A059800F04DF805441A
:10D940001CE00498002807DBDDE90301884203DDC1
:10D950000098405C179901E0179930205A4690478B
:10D96000049805F10105401C04900198401E0190A7
:10D9700004D12E205A46179990476D1CBAF1000128
:10D98000AAF1010ADDDC05E017F8010B5A461799E8
:10D9900090476D1CB8F10001A8F10108F4DC5B466A
:10D9A0002146179A0598ABE62D0000002B000000D9
:10D9B000200000002DE9F041044600251E461746D0
:10D9C000880404D405E039462020B0476D1C641E4D
:10D9D000F9D52846BDE8F0812DE9F041044600253F
:10D9E0001E469046C80301D5302700E02027880452
:10D9F00004D505E041463846B0476D1C641EF9D594
:10DA00002846BDE8F0812DE9FC41044688461546CC
:10DA100000202E8800212980616B002907D008781A
:10DA200033462A46414603F015FD00287DD1276B79
:10DA30003FB133462A464146384604F0A3F9002850
:10DA400073D194F82E703FB133462A46414638468A
:10DA500002F092FB00287CD194F82D1031B13246AF
:10DA60002946404600F0B6FD002872D1A17831B1B8
:10DA700032462946404600F057FA002869D1E1783D
:10DA800041B194F9030033462A46414601F05FFF55
:10DA900000285ED1616841B191F9000033462A4601
:10DAA000414604F05BFC002853D1218951B1CDE9F6
:10DAB000005643460622022104F1080004F040FE0D
:10DAC000002846D1218A51B1CDE9005643460722AC
:10DAD000032104F1100004F033FE002839D1218B1A
:10DAE00051B1CDE9005643461522142104F1180026
:10DAF00004F026FE00282CD1276A3FB133462A467F
:10DB00004146384601F01CF8002822D1676A3FB12F
:10DB100033462A464146384602F062FD002818D1B5
:10DB200094F82C1049B1334600E012E02A464146F1
:10DB3000204603F027FD00280BD12178002908D0CA
:10DB400002B033462A4641462046BDE8F04102F085
:10DB50007BBDBDE8FC81C078400701D40720704739
:10DB60000020704710B501220221002000F048FE7D
:10DB700008B1072810D107220221012000F040FE41
:10DB800008B1072808D100210A22084600F038FE13
:10DB900008B1072800D1002010BD000010B598B0D2
:10DBA00038210AA8FEF7D9FC02208DF828000124AC
:10DBB0008DF82A4006208DF82B00ADF838400D482E
:10DBC0000F90242101A8FEF7C8FC8DF810404FF4F7
:10DBD00096700590B4200690002001460090064BF8
:10DBE00001AA0AA800F06AFA002801D000F018F88B
:10DBF00018B010BD862000205B0C0200BFF34F8FD1
:10DC000005480168054A01F4E06111430160BFF372
:10DC10004F8F00BFFDE700000CED00E00400FA05A7
:10DC20000EB500210091019102906A4644F2010074
:10DC3000FFF7E4FF0EBD0000014B1B681847000012
:10DC4000C028002010B58268C3689A1A002A03D041
:10DC500001F06AFE002010BD052010BD002905D08E
:10DC600012B1531E134203D0092070470E20704793
:10DC70000160838000218160C1600020704710B581
:10DC80008268C3689A1A83889A4203D801F056FEC4
:10DC9000002010BD042010BDF8B50C462678A16800
:10DCA000074A01EB410152F821500649024604F1AE
:10DCB0000800096A009131462369A847F8BD0000B1
:10DCC000282A00202421002010B5074A117801EBF2
:10DCD000810102EB8101091DFFF7DEFFBDE8104065
:10DCE000042003F0DFBC00005C2900200249096821
:10DCF0000160002070470000041501400A4B9B683A
:10DD0000002B06D03AB140B10068037C3BB108203B
:10DD100070470820704707207047072070474174FC
:10DD20004261002070470000502100202DE9F0479B
:10DD300081460F4615461C46A8073AD00020B0B3CE
:10DD4000DFF8808000269DB303F0D4FAC8F81440B1
:10DD5000032088F800002846C8F808501835002429
:10DD600007EB470100EBC4031E705E709F705D609F
:10DD700005EBC105641C032CF4DBC8F80C6088F8C3
:10DD8000016088F802601420FEF7BCFF0621142011
:10DD9000FEF7D9FF1420FEF7C0FF484603F088FACB
:10DDA00009480068C8F810000020BDE8F08702E0CC
:10DDB00003E00120C3E70720F7E7C8F80860072061
:10DDC000F3E700005021002004150140F8B50E468D
:10DDD000174604460F498968002904D028B1052E4A
:10DDE00005D20720F8BD0820F8BD0820F8BD6069FD
:10DDF00060B1607C01280BD0002504F067FC2B4645
:10DE000032462146009703F013FFF8BD0820F8BD05
:10DE10003546F2E75021002010B5044609498968CB
:10DE200000290BD060B1606950B10020207404F06B
:10DE30004DFC2146BDE8104003F028BF082010BD6E
:10DE4000082010BD5021002070B588B004460D4652
:10DE50001E4624484260002D1BD0A888296882B243
:10DE60002148FFF7FBFE002814D1A889A96882B2D7
:10DE70001D481030FFF7F2FE00280BD120221B496D
:10DE80006846FEF751FBA0680690207920B101207A
:10DE900003E0072008B070BD00208DF814008DF855
:10DEA0001C60607908B10E2000E000208DF815009C
:10DEB000E0780290A078039020780190607800903C
:10DEC0000B49684602F09EFC0028E3D19DF81D0036
:10DED00008B902F02BFD03480121401C02F0E2FCCE
:10DEE000D8E7000048210020682A00200429020009
:10DEF000A923020010B501460948FFF7C0FE0446F9
:10DF000064B902F03FFE48B906490548FFF79AFE9A
:10DF100020B90121034802F0B1FD0446204610BD9E
:10DF2000782A00204821002038B505460C46208874
:10DF3000001D904201D90C2038BD684679DF0028C9
:10DF4000FAD12188032068542088401C80B22080A8
:10DF5000192129542088401C80B220804119BDF825
:10DF6000000004F071FB218808442080002038BDA7
:10DF700010B50648002242210068FFF727FF00285D
:10DF800003D0BDE81040FFF74BBE10BD30280200A3
:10DF90002DE9F041044620782A4F012606FA00F0C8
:10DFA0003860206802F010FE0021606802F003FE75
:10DFB0002548264D007F10B3A069C5F82405607D73
:10DFC000217D0843C5F86C05D4E90001C5F80C05AE
:10DFD000C5F81415207D01280FD10021A06802F09A
:10DFE000EAFD207B86403E60E06802F0EDFDD4E96A
:10DFF0000210C5F80805C5F81015BDE8F081A06944
:10E00000C5F82405607D217D0843C5F86C05D4E979
:10E010000001C5F80C05C5F81415207D0128ECD1C8
:10E020000021A06802F0C7FD207B86403E60E068CA
:10E0300002F0CAFDD4E90210C5F80805C5F81015AC
:10E04000DBE70000080500503C29002000200040CC
:10E0500070B592B004460E461F2011901090002516
:10E06000002C0DD02046FFF776FD002823D111AA01
:10E0700008A92046FFF7C7FC00281CD108AC01E026
:10E08000002411956EB1304603F066FB002812D1D2
:10E0900010AA69463046FFF7B6FC00280BD16A4645
:10E0A00001E000221095BDF84000C3B2BDF8440065
:10E0B000C1B2204672DF12B070BD000070B50D46CF
:10E0C0001146049A0446002C3FD0E9B3414800268B
:10E0D0004671C360026124223F48FEF725FA00F032
:10E0E000F1F83D493431A1F1100001602031816027
:10E0F00038215C38FEF731FA374920783839087012
:10E10000A0788870E078C87060784870D4E904021C
:10E11000C1E90402D4E90202C1E90202D4E906021B
:10E12000C1E90602606AE0B101F1AC00486200F1A9
:10E130000C028260636A1B880380606A4B6A808875
:10E14000988000204B6A09E001E00E2070BD0E208F
:10E1500070BD666AB668365C1654401C9E8886425E
:10E16000F7D8A06AD8B11C4AAC32A2F10C00826088
:10E170008862A36A9B888380A06A8B6A0088188063
:10E1800000208B6A04E0A66AB668365C1654401C10
:10E190009E888642F7D894F82C0081F82C00206ADB
:10E1A00048B10C4814300862226A52884280206AC2
:10E1B0000A6A00881080606820B10648801D4860A7
:10E1C000606848602946BDE8704003483838FFF76A
:10E1D0003FBF0000D82000208C26002010B5018809
:10E1E0002A4C102918D0002211291BD01B2918D124
:10E1F000007A002815D16079012823D002282CD07C
:10E20000032835D004280CD122711046E16800297A
:10E2100007D0BDE810400847817D012901D18088E1
:10E22000208110BD6270808821898842F9D1012047
:10E2300000F076F80028F4D021690029F1D0BDE87B
:10E2400010400847022000F06BF80028E9D021694F
:10E250000029E6D0BDE810400847032000F060F830
:10E260000028DED021690029DBD0BDE81040084736
:10E2700003202071042000F053F80028D1D0216938
:10E280000029CED0BDE8104008470000D82000206B
:10E2900010B5022801D0032810D1094C207800289D
:10E2A0000CD000202070607900F03AF8002805D0EA
:10E2B0002169002902D0BDE81040084710BD0000C8
:10E2C000D820002002480021816181838177704736
:10E2D000D820002010B510480078012819D10F4C23
:10E2E0006078B0B9607910B174DF002812D10120D4
:10E2F0006070094806213838C1700021FFF7A8FE78
:10E30000002807D1607900F00BF810B1216901B144
:10E310008847002010BD00008C260020D820002057
:10E320002DE9F04F87B0704C607101F029FB012698
:10E3300020B12670002007B0BDE8F08FFFF7C2FFC4
:10E340006A4D0027687810B16079012808D0A87854
:10E3500010B16179012903D048B16079022806D152
:10E36000E16819B1E6700820884700E0E77060793D
:10E37000DFF874814FF0020908F11808012808D16C
:10E38000687820B108F1010002F024FD08B984F892
:10E39000059060794FF0030B022808D1A87820B1CE
:10E3A00008F1010002F016FD08B984F805B0287BD9
:10E3B0004FF0040A20B96079032801D184F805A040
:10E3C000287E20B96079042801D167712771E1683E
:10E3D00041B16079032801D0042803D1287808B11D
:10E3E0006078C0B1A770182101A8FEF7B6F88DF8C3
:10E3F000047002978DF80C700497607901280ED094
:10E40000022816D0394E2436A6F15C0703281DD009
:10E4100004284ED13CE0A67007208847E3E7CDF8FA
:10E4200008808DF80460ADF81670ADF81470267190
:10E430003FE0CDF808808DF804602889ADF816001B
:10E44000A888ADF8140084F8049032E0A88AADF8EA
:10E450001600288AADF814002448243004F0DEF9B0
:10E4600018B1287808B1607810B184F804B020E0C1
:10E470008DF80C90049687F803A01C4800213838CA
:10E48000FFF7E6FD00287FF456AF0520207110E06D
:10E49000A88BADF81400288CADF816001348243072
:10E4A00004F0BCF918B1287808B1607868B184F834
:10E4B00004A0607918B101A873DF0028E3D1E168F6
:10E4C00009B120798847002035E78DF80C90049633
:10E4D00087F803A0054800213838FFF7B9FD002868
:10E4E000F2D106202071E4E7D82000208C260020FD
:10E4F00038B504460D46002C17D0B5B12868206009
:10E500004FF6FF70E08101208DF802004FF6F170A8
:10E51000ADF80000221D69460120A0DF002803D1CC
:10E520002946204602F0AFFF38BD0E2038BD002836
:10E530000ED000290CD00A88102A05D0112A05D047
:10E54000502A05D102F004BC02F0CABB02F0E0BBC5
:10E550007047000070B505461C2229461048FDF79B
:10E56000E3FF104C00262670286840B10168616006
:10E570004068A060201D7ADF002810D104E009481F
:10E58000001D7BDF00280AD14FF6FF7060806670A7
:10E59000BDE87040044A00210448FFF7AFBB70BDDE
:10E5A00078270020F82000206D260200682802004D
:10E5B0000188102907D0112907D0122907D0502926
:10E5C00007D102F0E1BB02F08FBB02F0A5BB02F065
:10E5D0007DBB70477CB505460C46208809309042CB
:10E5E00001D90C207CBD684671DF0028FAD1218852
:10E5F000082068542088401C80B220801B212954A8
:10E600002088401C80B220802844DDF80110016081
:10E61000BDF8051081802088801D80B220809DF883
:10E62000001031B1012129542088401C2080002095
:10E630007CBD00212954F7E710B50446204600F0C0
:10E640007BFC2046FFF7B4FF204600F085F820460B
:10E6500002F016FB2046FFF7C1FD2146BDE8104041
:10E660000148FFF764BF00000C24002000B587B00C
:10E6700017484068069000234822164906A803F070
:10E6800041F808B1FFF7CCFA01AA0121002003F0FC
:10E6900023F808B1FFF7C4FA0F4802F07DFE08B175
:10E6A000FFF7BEFA01A803F00DF808B1FFF7B8FABA
:10E6B0000A4802F0FDFF08B1FFF7B2FA084803F07C
:10E6C00041F8002801D0FFF7ABFA07B000BD000009
:10E6D00030280200C4230020E81F002039E6010092
:10E6E000AD1A02001CB504466A46A1780C4802F037
:10E6F000AFFB002813D162780A49C2EBC20001EBDC
:10E7000080001C231A46694602F066FC054806494B
:10E710004C30807A51F820202146684690471CBD35
:10E720001C210020742800208028020010B5024619
:10E730000020084C2260002904D0084603F013F89A
:10E74000002806D16168002903D1BDE81040FFF719
:10E7500009BA10BDD020002010B5104C01886068A7
:10E7600010290FD0112917D1401E6060002813D145
:10E77000FFF7F8F900280FD0216800290CD0BDE878
:10E780001040084728B900F063FA10B1216801B1C0
:10E7900088476068401C606010BD0000D0200020E9
:10E7A00010B5032000F032F808B1062800D100208F
:10E7B00010BD00200870704710B5042807D0072846
:10E7C00011D00A2819D1BDE8104002F057BF0B48FC
:10E7D0001321808876DF08280FD000280DD0BDE8EF
:10E7E0001040FFF71DBAFFF775FD082805D0002877
:10E7F00003D0BDE81040FFF713BA10BD8020002001
:10E80000072070470020704700207047062070479F
:10E8100038B504460C4A40F6CD410320FFF7F4FF1B
:10E8200008B1FFF7FDF969460020FFF77FFF08B147
:10E83000FFF7F6F99DF80000022802D000202070B2
:10E8400038BD0120FBE70000B9E701000249084498
:10E8500090F9300070470000E42800202DE9F047CF
:10E860003449087800EB800001EB8004241DE56842
:10E87000A06800EB40012F48CC3000EB81000689F6
:10E880004789D0F8049002F07CFBB5FBF0F100FB67
:10E890001150A8B34FF0000806FB07976088A188C5
:10E8A00008444619DFF890900020C9F81000B8F12C
:10E8B000000F04D002F065FB6188884224D0B8F1D3
:10E8C000000F03D0BE4201D1A088E8B1A0680328A0
:10E8D0001AD002F056FBA1882944B1FBF0F200FBEC
:10E8E00012108008C9F80C0002F04BFBB6FBF0F1E7
:10E8F00000FB116098B10020BE4216D088B114E030
:10E90000FFE74FF00108C7E702F03BFBB5FBF0F073
:10E91000C9F81400BDE8F047032002F0C3BE01208F
:10E92000EAE7B9B2B0B203F0D5F8BDE8F04702208B
:10E9300002F0B8BE5C290020242100200649087896
:10E9400000EB800001EB80000079042801D000F08A
:10E9500073B803F025B800005C2900200B49087843
:10E9600000EB800001EB8000094AC1881162007948
:10E97000012805D0032805D0042805D103F069BE7D
:10E9800003F00EB8FFF76ABF704700005C29002053
:10E990002421002003484078002801D0FFF7DEBF83
:10E9A000704700005C29002000EB80020548002130
:10E9B00000EB82000171C1800222C26001614161ED
:10E9C000018170475C2900202DE9F041069E104D21
:10E9D0006C780A2C1AD02F783C440A2C00D30A3CBD
:10E9E00004EB840405EB84042071626103C9C4E96B
:10E9F0000301E38026816878401C68700548007830
:10EA000008B9FFF7ABFF0020BDE8F0810420FBE769
:10EA10005C2900202421002010B506490020087040
:10EA2000487000242046FFF7BFFF641C0A2CF9D36E
:10EA300010BD00005C29002010B50849087800EBE3
:10EA4000800001EB8001091D0020FFF725F900F08F
:10EA500007F8BDE81040002002F024BE5C29002029
:10EA600010B5084C2078FFF79FFF6078401E60705B
:10EA70002078401CC0B220700A2801D100202070EC
:10EA800010BD00005C2900202DE9F0411A49C8683A
:10EA900000282BD00768DFF86480D8F800400E69A2
:10EAA000A01B20F07F45ED1CC87808B902F008FCD7
:10EAB000BD4200D23D46A81920F07F400F4A3C32AB
:10EAC0001060D8F80010091B21F07F41C91C001B01
:10EAD00020F07F4081420DD9D8F8000010602F202F
:10EAE000FDF7D4FCBDE8F04103F02CB9BDE8F041DE
:10EAF00002F000BCBDE8F081502100200415014067
:10EB00000188062907D34FF448634FF6FF729942F4
:10EB100003D9914201D0072070474088062803D3CB
:10EB2000984203D9904201D007207047914205D006
:10EB3000904203D0814201D90720704700207047DE
:10EB400070B506460D4614462088801D984201D9AE
:10EB50000C2070BD3046FFF7D3FF0028F9D1218883
:10EB6000052068542088401C80B22080122129543E
:10EB70002088401C80B220804119308803F064FD59
:10EB80002188084480B220804119708803F05CFD20
:10EB9000218808442080002070BDFFF741B80000A4
:10EBA00000B587B01C216846FDF7D7FC0020009017
:10EBB0004FF4203101914FF47021029103218DF81F
:10EBC0000C10ADF80E008DF81000064805900648B0
:10EBD00006906846FFF7BEFC002801D0FFF720F83A
:10EBE00007B000BDB10C02009BEB0100F8B5154861
:10EBF00001F06CFA134D0026134C0C3D38B16169DD
:10EC000019B101200090684688472E70F8BD287819
:10EC100030B161690029F8D0009668468847F4E76A
:10EC2000687860B1A168094800220068FFF7CEF853
:10EC30000028EAD0A1690029E7D08847E5E76168A4
:10EC4000F1E7000004210020782700206828020056
:10EC500010B5002101220846FFF7D2FD08B10728B0
:10EC600010D1072202210120FFF7CAFD08B10728B1
:10EC700008D1042202210020FFF7C2FD08B10728B5
:10EC800000D1002010BD0000F0B50546082000238B
:10EC90000B4E4FF6FF7C03EB430406EB8404A77A8C
:10ECA0000F4208D0654502D02089A84202D11360E6
:10ECB0000020F0BD05205B1C002BECD0F0BD000057
:10ECC000B428002000EB40020748012100EB82003D
:10ECD00081724FF6FF710181FF21C1720021016035
:10ECE0008180817170470000B428002010B5184C55
:10ECF0002079000727D46069401C6061E06820B17A
:10ED0000BDE81040042002F0CBBE01F0EDF920B1C7
:10ED1000BDE81040022002F0C3BE206978B16068EF
:10ED2000C10704D0BDE81040032002F0B9BE40F096
:10ED300001006060BDE81040002002F0B1BEBDE8F7
:10ED4000104002F08DBEBDE8104002F095BE0000FC
:10ED50002421002006494868020707D4820702D50B
:10ED600040F001004860022002F09ABE02F084BE2A
:10ED7000242100202DE9FC4104460E46A1786A4674
:10ED8000254802F065F8002843D16078234F00EB56
:10ED9000400007EB8000807A400610D4022E0ED08F
:10EDA000012E0ED01E4DA0781E49C0EBC00001EB15
:10EDB000800100231C226846A84720B119E01A4DA3
:10EDC000F1E71A4DEFE7022E13D0607800EB400018
:10EDD00007EB8000817A21F0400181720F49607851
:10EDE0004039C0EBC00001EB80011C231A46684685
:10EDF000A847022E0DD02078084900EB40000C31C6
:10EE000001EB80000A49807A51F8202021466846AB
:10EE10009047BDE8FC8100001C210020B4280020A0
:10EE20003D190200B02700201912020055110200FE
:10EE3000702802002DE9F0470546894690460527CF
:10EE400000240F4E35B9C4EBC40006EB8000008BE4
:10EE5000404510D04DB1C4EBC40006EB800010302B
:10EE600007222946FDF784FB28B1641C072CE9D34F
:10EE70003846BDE8F087C9F800400027F8E70000F1
:10EE8000B02700207CB50546A9B26A46074801F0C4
:10EE9000DFFF044644B97421684602F00DF80446C9
:10EEA00014B9284601F0A0FF20467CBD1C2100209B
:10EEB00010B51046002801D0FEF7B2FE002010BDAC
:10EEC0001FB5039002F062F808B1FEF7A9FE03A88F
:10EED00000F086FA08B1FEF7A3FE0020CDF8050089
:10EEE0008DF809009DF8050040F0010020F00200B7
:10EEF00020F0040020F0080020F07000303020F0F6
:10EF000080008DF8050007208DF8060010208DF890
:10EF100007000748009001208DF804006946054865
:10EF200000F0C0FB002801D0FEF77AFE1FBD0000F4
:10EF3000B1EE0100822000202DE9F04F8FB0044691
:10EF4000FF270D970025AB46FE48007800287CD0AF
:10EF5000DFF8F483D8F80000002876D00CA800F081
:10EF600032FA08B1FEF75CFE0026201D0A902C2024
:10EF7000ADF82C00FF208DF8320000208DF8300015
:10EF80000E90F14F20880C3F10280FD0A0880EAAB9
:10EF90000221FFF779FE48B90E9800EB400107EB1C
:10EFA0008101C97A8DF832108DF83100DFF898A30D
:10EFB0002088AAF14C0A1322AAF1C409192870D09A
:10EFC00008DC10280ED0112859D013286AD0142834
:10EFD00013D17FE0DD491A287AD01E2879D0522833
:10EFE000F6D1CDE10EAA4FF6FF7801214046FFF79A
:10EFF0004BFE022210B1042038B1CCE10E9901EB96
:10F00000410107EB81018A72F6E7012511218DF894
:10F0100024100E998DF8311001EB410107EB8101AD
:10F02000A3880B818A72A2680A60A2898A80A27B67
:10F030008A71E17DCA0709D0C24A083202EB510148
:10F040000978FF2908D00D9106E0B9E142460DA9E3
:10F0500004F10800FFF7EEFE0028CED1DDE90D1027
:10F0600000EB400007EB8000C172827A42F0080298
:10F0700082728DF832100CA8FFF734FB8BE10E98EA
:10F0800000EB400007EB8001887A20F002008872D4
:10F09000010708D500060FD500210CA8FFF76AFE6E
:10F0A0000AE0C7E049E09DF83200FF2804D001F0F3
:10F0B0009BFEFF208DF832000E98102100EB4000DF
:10F0C00007EB80008172012512208DF8240062E197
:10F0D0000AE15DE10E9800EB400007EB8000C07A8A
:10F0E000FF2815D1228A0DA90020FFF7A3FE78B9C9
:10F0F000DDE90D1000EB400007EB8000C172827A61
:10F1000042F0080282728DF832100CA8FFF7EAFA7A
:10F110000E9800EB400107EB8101C97AFF2903D06B
:10F12000C0EBC0010AEB810BC0EBC00009EB800211
:10F13000A0880023594686DF2DE18DF824200E9803
:10F1400000EB400007EB8001887A40F004008872F1
:10F150000125CA7AFF2A0FD040F04000887216209D
:10F160008DF824000023A0881A4685217FDF00281F
:10F1700084D0064600250EE10DAB48F24302002084
:10F18000C0EBC00C09EB8C0C9CF81AC0BCF1FF0F53
:10F1900026D0401C0728F3D3C2B316460125002110
:10F1A00005910E9800EB400207EB8202D27AC2EB87
:10F1B000C20209EB8202069207910891C0EBC000DF
:10F1C0000AEB80000190029103910491A08801ABA9
:10F1D00008F104027FDF002801D006460025DAE0AE
:10F1E0000A78022A13D0C0EBC00209EB82024FF06A
:10F1F000FD0C82F81AC0D1F800C0C2F810C0B1F8F6
:10F2000004C0A2F814C08979917506E008E0C0EB4B
:10F21000C00109EB8101FE228A7618700022BBE74B
:10F220000D988DF832000E9901EB410107EB810139
:10F23000C872B4E798F8090020F0010088F80900C6
:10F240000E9A02EB420C07EB8C00817A21F004034A
:10F25000837214218DF824100125217A31B15906C9
:10F2600003D4C07AFFF70EFE267A94E0617A49074C
:10F2700039D59DF83210FF2935D043F00803837249
:10F28000637B9B0707D5C1EBC10309EB83039C7E1E
:10F2900024F001049C76C37AFF2B7CD017F82C3025
:10F2A000022B0ED0C1EBC10109EB810102680A619A
:10F2B00082888A8280798875887E20F0020088762C
:10F2C0000DE0C2EBC2000AEB8000428AC1EBC10034
:10F2D00009EB80000283817E21F00101817601210A
:10F2E0000CA8FFF747FD56E0207A0122B2EB101F71
:10F2F00031D100F00F0001282DD10E9800EB400213
:10F3000007EB8202927A120725D50F4900EBC00065
:10F31000303901EB800008301A21FDF71EF9162064
:10F320008DF824000E9800EB400007EB8000817AF6
:10F3300041F0200141F04001817298F8090040F04D
:10F34000020005E00C210020C028002090280200C7
:10F3500088F8090011E00E9800EB400007EB8000F0
:10F36000827A42F08002827215208DF8240098F88B
:10F370000A0051F820100CA88847002601250AE051
:10F3800098F80A0051F820100CA88847064602E0B9
:10F390008DF824200125002D12D0324609A90CA891
:10F3A000FEF74AFC9DF82400122809D10E9800EBC4
:10F3B000400107EB8101897A012901D0FFF782FC26
:10F3C0000FB0BDE8F08F002806D0FF21017041701A
:10F3D0008170C1700020704748F20E007047000035
:10F3E0002DE9FF410646002E47D00020324A002575
:10F3F00000EB400142F8215002EB81014D728D7209
:10F40000401C0028F4D000242046FFF75BFC641C5D
:10F41000002CF9D0284824213038FDF79EF800242C
:10F42000264F4FF0FF08204601F0DEFC07F804806D
:10F43000641C072CF7D37420ADF80C000720ADF83E
:10F440000E001F4802901D4902A8083101F020FE5D
:10F4500000280FD1194F0120083F3870307878B15B
:10F46000BDF80C00BDF80E10484381B207F1100042
:10F4700001F022FD04B0BDE8F08148F20E00F9E78A
:10F480000024104E0D48A1B26A46083001F0E0FC9D
:10F4900008B13D70EEE7C4EBC40006EB800000232A
:10F4A0001C22694601F098FD08B13D70E2E7641C3A
:10F4B000072CE7D3DEE70000C0280020142100203D
:10F4C000C9F40100B02700202DE9F04F91B0834628
:10F4D000DDF868800F4691461D466E48006800289A
:10F4E00076D0B8F1740F73D801260DA8FFF76BFF23
:10F4F00008B1FEF795FB4FF0000A8DF834A08DF8A7
:10F5000038A00C95CDF82C800024A1B208AA62483E
:10F5100001F09EFC28B9082208A95846FDF728F8F2
:10F52000D8B1641C072CF0D39DF83600FF284FD0CB
:10F530004FF0200B4FF0400C0AAC032F10D0574A6D
:10F540004FF01C0EA91AB1FBFEF10123072921D2AD
:10F550000F94B9F1000F0CD015E08DF83640E3E7B9
:10F56000B8F1740F02D08DF838C06FE08DF838B064
:10F570006CE049498340103949680B4201D00121B0
:10F5800000E0002121B103F067F88DF838B05DE0AC
:10F5900000265BE0DFF8FC80A8F14C08A5EB080131
:10F5A000B1FBFEF1A9B108F11C02A91A4FF0240821
:10F5B000B1FBF8F802F12401B8F1000F21D00026C8
:10F5C0008DF838C0364A95422AD1032701263DE0FE
:10F5D0004EE00F948DF838B08DF835A0CDF810A01E
:10F5E0002C480C300590CDF800809DF83600C0EB1B
:10F5F000C00002EB80000190CDF830D0CDF82CB0E7
:10F6000024E030208DF838008DF835A08DF83730A3
:10F61000887A80071AD424211046FCF79EFF15E053
:10F620001E4A1C3A52F82020AA420FD101260F94FC
:10F63000002303EB430201EB8202D27A904202D113
:10F640008DF8353002E05B1C002BF2D0002E0FD07D
:10F65000032F10D0022F15D09DF8380040F0020083
:10F660008DF838000F944A460EA90DA8FEF7E4FA6B
:10F6700011B0BDE8F08F9DF8380040F003008DF820
:10F680003800EFE79DF8380040F001008DF83800B1
:10F69000E8E70000C02800201C210020B02700203F
:10F6A0006C28020010B504461948007800280ED0D6
:10F6B00048F20E00002C09D0002907D00A68002A61
:10F6C00004D0144803682BB148F2040010BD48F27E
:10F6D000080010BD02600F4BD1F805202C3B1A63C7
:10F6E0004A7A83F834200979817222F0010141F0CD
:10F6F000020121F004010172C17941F0010141F0E0
:10F70000020121F00401C1710020207010BD000031
:10F710000C210020C028002010B50E4A002351788B
:10F720009478A14212D0491CC9B25170022900D16B
:10F73000537008495378183151F82310016010694B
:10F74000084420F07F401061012010BD03600020BC
:10F7500010BD00005021002010B50B4C207900078F
:10F760000ED46069401C606100F0BEFC20B12078BE
:10F77000BDE8104001F096BFBDE81040FFF7DEB8CD
:10F78000BDE8104000F022BF242100200948007885
:10F7900006280BD10748001D0078000706D1054850
:10F7A00008300078C0F30310032801D00020704710
:10F7B00001207047E00F00F00D48007806280FD1B7
:10F7C0000B48001D007800070AD10948083000786E
:10F7D000C0F30310032805D0042805D0052805D060
:10F7E00000207047012070470120704701207047BA
:10F7F000E00F00F00948007806280BD10748001DEB
:10F800000078000706D1054808300078C0F30310DF
:10F81000032801D00020704701207047E00F00F05E
:10F820000D48007806280FD10B48001D007800070E
:10F830000AD1094808300078C0F30310032805D026
:10F84000042805D0052805D0002070470120704706
:10F850000120704701207047E00F00F00948007850
:10F8600006280BD10748001D0078000706D105487F
:10F8700008300078C0F30310032801D0002070473F
:10F8800001207047E00F00F00948007806280BD1EE
:10F890000748001D0078000706D1054808300078A9
:10F8A000C0F30310032801D00020704701207047E7
:10F8B000E00F00F00948007806280BD10748001D2A
:10F8C0000078000706D1054808300078C0F303101F
:10F8D000052801D00020704701207047E00F00F09C
:10F8E000F0B500240F4F19E01D68854203D919684F
:10F8F000081A1860F0BD401B2C4400261E601E46EE
:10F90000DD69FD60DD684DB101EB040C2CF07F4C2E
:10F91000C3F804C09D601568DD611660FB68002BAC
:10F92000E2D1F0BD50210020826883881A4003682C
:10F930009A5C0A708168491C81607047C26883883C
:10F940001A4003689954C168491CC160704730B5BA
:10F950001488E51C9D4201D90C2030BD02230B55B3
:10F9600013885B1C9BB213800124CC5413885B1C4E
:10F970009BB21380C8541088401C1080002030BDFA
:10F9800008B500200090684601F050FA082802D01F
:10F9900008B1012008BD082805D1684600F04CF8E0
:10F9A00008B1002008BD009808B1012008BD002062
:10F9B00008BD0000002808D0112801D0FEF784B946
:10F9C0000248416841F0080141607047242100204D
:10F9D00008498869401C8861B0F57A7F07D00878AB
:10F9E000022801D001F05EBE487802F059B80D201F
:10F9F000FEF76AB92421002007480078012805D0C5
:10FA0000022805D0032805D1FFF7A6BE01F0CCBF20
:10FA100002F03CB8704700002421002028DFFFF7E7
:10FA2000C9BF29DFFFF7C6BF10B50446E0B2FEF735
:10FA300061FA204610BD0000002804D00349496D3A
:10FA4000016000207047032070470000882A0020D2
:10FA50000EB59DF8000020F00F00401C20F0F000D3
:10FA6000103000900C220EA168467CDF002801D0E7
:10FA7000FEF7D6F80020019002900621ADF80410A0
:10FA80000C21ADF80610ADF808004FF4C870ADF8C1
:10FA90000A0001A87ADF002801D0FEF7C1F80EBDE8
:10FAA00049514959492041726D6C6574000000004C
:10FAB0000020704700207047002070472DE9F04774
:10FAC00005460027B84600246878DFF89CC000EBA4
:10FAD000C0010CEB810600EB400073680CF12409B7
:10FAE00009EB8000002B0BD0827A5FEA026A07D50F
:10FAF000520605D406F108071FFA83F85CF8214086
:10FB00000089234642463946A9DF0B280AD1012441
:10FB10006878234600EB400009EB800042460089EC
:10FB20003946A9DF48F2410600B13046012C16D112
:10FB300068784FF6FF7200EB400009EB80000C2163
:10FB40000089A7DF00280AD0A0F54051023908D06B
:10FB5000082806D0891E04D0112802D00020BDE854
:10FB6000F0873046FBE700009028002070B506467D
:10FB70000C460B4D6078382300EBC00005EB80008D
:10FB80002422314601F028FA002808D1617801EBDF
:10FB9000C10105EB81014A68521C00D14A6070BD69
:10FBA000902800202DE9F04188B007460C464FF020
:10FBB00003081A2007906078294D00EB400005EB00
:10FBC00080004346008907AA6946AADF002843D17E
:10FBD0006078A5F1240600EBC00006EB8000083039
:10FBE000BDF81C206946FCF7C3FC40B1607800EB0F
:10FBF000C00106EB8100406888B11A4D10E06078C2
:10FC000000EB400105EB8101897A890724D400EBE0
:10FC1000C00006EB80002421FCF79FFC1CE0124D85
:10FC200046F821806178BDF81C2001EBC10006EB8D
:10FC300080004260617801EBC10006EB8000083073
:10FC40006946FCF771FC6078382300EBC00006EBD6
:10FC5000800124223846A84708B00020BDE8F08182
:10FC6000B42800201912020055110200FFF726BF28
:10FC7000FFF77CBFFFF796BF08B572B66846FEF780
:10FC800035F80F4A00981168401A20F07F409060C4
:10FC9000B0F5004F0BD3A0F500409060506800F520
:10FCA0007A70506001F5004121F07F40106090684B
:10FCB0004FF47A714843516801EBD03062B608BD09
:10FCC000A420002008B572B66846FEF70FF8104A67
:10FCD0000098D168401A20F07F4050610D4BB0F57C
:10FCE000004F0AD3A0F5004050611069184410611C
:10FCF00001F5004121F07F40D0605069A0FB030175
:10FD0000C00B40EA41401169401862B608BD0000CE
:10FD1000A420002040420F0070B5154C2079000748
:10FD200021D400F003FA002548B1E560606840F096
:10FD300001006060BDE87040002001F0B1BE00F03D
:10FD4000D3F928B1E560BDE87040022001F0A8BEFB
:10FD5000206920B1BDE87040032001F0A1BEBDE8DC
:10FD6000704001F07DBEBDE8704001F085BE00002E
:10FD70002421002010B50021054C012800D0E1709D
:10FD80006170FFF779FF1430A060002010BD000003
:10FD900090200020012820D112488179C27941EABF
:10FDA0000222A0F10C010A80027A437A42EA03227D
:10FDB0004A80827AC37A42EA03228A8002784378B0
:10FDC00042EA0322CA808278C37842EA03220A8187
:10FDD0000279407942EA00204881034900204870B6
:10FDE000704700002C2600209020002003490A685C
:10FDF00002604A684260896881607047202600205E
:10FE00007047000010B5284C2078002807D0607893
:10FE100028B9264A0C21222000F04EF86070207884
:10FE2000617808431DD1FFF727FFA168884218D3E6
:10FE3000E078B8B1012821D0022812D1A078032897
:10FE40002BD2194A0C3202EB400112F8100049780B
:10FE5000174A00F05BF86070002802D0A078401CC0
:10FE6000A07010BD124A01210F2000F025F860702B
:10FE70000028F6D0E078401CE07010BD0D480178F5
:10FE800000206A2905D0E070FFF7F6FE3230A0604E
:10FE900010BD0221E170A07010BD01202070BDE8EE
:10FEA000104000F02BB800009020002095FD0100CC
:10FEB00075FD01002C26002070B586B004460D4665
:10FEC0001646142101A8FCF748FB0A4804716A2071
:10FED0008DF804000748001D039001208DF81000E4
:10FEE000054802908DF81150059601A802F076F8A9
:10FEF00006B070BD902000202C2600200248002172
:10FF00004170C170817070479020002070B586B03C
:10FF100006460D461446142101A8FCF71EFB084BAB
:10FF20001E705D706A208DF80400039302208DF826
:10FF30001000059401A802F051F806B070BD000051
:10FF40002C26002015490020487016489FED140A01
:10FF500080ED040A80ED030A80ED020A80ED070AB5
:10FF600080ED060A80ED050A80ED0A0A80ED090A97
:10FF700080ED080AA83080ED040A80ED030A80EDC8
:10FF8000020A80ED070A80ED060A80ED050A80ED81
:10FF90000A0A80ED090A80ED080A704780200020D7
:10FFA000000000001C240020F8B5194E307800280D
:10FFB0002DD0306928B10024F06820B1002524B18B
:10FFC00010E00124F8E70125F9E7684652DF05282B
:10FFD00003D020B1FDF724FE04E0012402E03169E2
:10FFE000009888477DB9708800906946B06861DFE5
:10FFF000052803D020B1FDF713FE04E0012502E03F
:020000040002F8
:10000000D6E902018847002CD9D0002DD7D0F8BD01
:100010007C2100207FB505460C4604F1260294F8A9
:10002000210094F82010CDE90010D11E2846E36984
:1000300002F075F8002823D194F8230008BB207B38
:10004000022801D003281CD12269E169914218D10C
:100050006269E261E37B84F82030217EC1F34011C4
:1000600084F82110032806D004B029462046BDE8B4
:10007000704002F000B800912946204602F0C2F814
:100080007FBDD4E90412E06801AB07C394F82300F4
:10009000002178B1D5F8C404C5F8C404820703D59B
:1000A00001208DF8000007E0400705D502208DF8FB
:1000B000000001E08DF8001084F82410207E400735
:1000C000DED4D4E90021684690477FBD05494088C9
:1000D0000A88904204D34988884201D80120704799
:1000E00000207047FC20002070B50E49087800EB16
:1000F000800001EB8004256900F043FFE18822893C
:100100006D1E11442944B1FBF0F007494A6982424F
:1001100005D301D1086910B14FF0000070BD4FF058
:10012000010070BD5C2900202421002070B50D491C
:10013000087800EB800001EB8004256900F021FFC6
:10014000E18822896D1E11442944B1FBF0F0064973
:100150000A6922B14969814201D1012070BD0020A4
:1001600070BD00005C29002024210020800701D000
:10017000002070470120704730B51488E51C9D426F
:1001800001D90C2030BD02250D5513885B1C9BB294
:1001900013801C24CC5413885B1C9BB21380012851
:1001A00007D0022808D0032809D0042809D0072046
:1001B00030BD0020C85406E00120C85403E0CD54EF
:1001C00001E00320C8541088401C1080002030BD7E
:1001D0002DE9F0411A4FD7F80C803E7824E0B8683A
:1001E00000EBC6052C781CE0686804EB440100EBCA
:1001F000C100641CE4B2A978A14200D100240178B6
:10020000022902D003290CD103E0406801F0EAFC86
:1002100007E0002102E00174C069F860F868002876
:10022000F9D16878A042DFD1761EF6B2D7D2F8684D
:10023000404502D00120BDE8F0810020FBE700002E
:10024000502100202DE9F0470546DFF8C080D8F89E
:100250000C9098F8006000274CE0D8F8080000EBFC
:10026000C60441E015B12846C5691EE020786168E2
:1002700000EB400201EBC201401CC0B22070A2782A
:10028000904200D1277048680A78012A2CD1027C5C
:1002900052BB8A684260CA6882600A69C260496962
:1002A000816198F8041001B147604168D8F81030B6
:1002B000DFF85CC0CA1A22F07F42624503D281682F
:1002C0001144016009E0591A21F07F4182688A4295
:1002D00002D9511A016000E0076047608760012180
:1002E0000174C76101F05AFC002DBBD12078617800
:1002F0008842B7D1761EF6B2AFD2D8F80C00484586
:1003000002D00120BDE8F0870020FBE7502100204B
:10031000FFFF7F0030B587B00F4C2078002802D057
:10032000002007B030BD0D48D0E900128068CDE94B
:10033000041206900848401C0090012501950848C9
:100340000290680203900623064A694604A8FDF756
:100350007BFD2570E5E700007021002024290200C4
:10036000E02A00208F2302000FB410B503A90298E1
:10037000FCF7E8FE10BC5DF814FB000010B500218E
:10038000054C012800D0A170E170FFF775FC0A3020
:10039000A060002010BD0000BC200020012810D16A
:1003A0000A480178427841EA022209490A808278A3
:1003B000C37842EA03224A800279407942EA002067
:1003C0008880034900200C39C870704740260020FF
:1003D000C82000200249CA680260098A81807047EB
:1003E000BC20002003490320086003494FF400505B
:1003F00008607047340700500805005070B5314C54
:1004000000250126207800281BD0FFF735FCA168C5
:10041000884215D3E078002812D1A078A8B101282D
:1004200019D02949022822D0032835D0FFF724FC0F
:100430000A30A060254A0821112000F04BF8E07036
:1004400070BD26706570A57070BDA670FFF714FCB6
:100450000A30A06070BD1E4A0121002000F03AF869
:10046000E0700028F6D0A078401CA07070BD08781D
:10047000482805D0A570FFF7FFFB3230A06070BDA3
:100480000121134A084600F025F8E0700028F6D054
:10049000A078401CA07070BD0878052805D0A57014
:1004A000FFF7EAFB3230A06070BD094A0821312015
:1004B00000F032F8E0700028F6D0A078401CA07060
:1004C00070BD0000BC200020402600209D030200DB
:1004D0007D03020070B586B004460D461646142111
:1004E00001A8FCF73AF80A4804710C208DF80400C2
:1004F0000748001D039001208DF810000548029068
:100500008DF81150059601A801F068FD06B070BD88
:10051000BC2000204026002070B586B006460D465F
:100520001446142101A8FCF718F8084B1E705D70E2
:100530000C208DF80400039302208DF81000059420
:1005400001A801F04BFD06B070BD00004026002060
:1005500008B501F0FBFB6846FEF75AF9FEF786F88E
:100560009DF80000FEF7ACFCFFF772FAFDF716FBF2
:1005700001F04EF8FEF714FBFFF7CCFE0AA0FFF7E0
:10058000F3FE01F011FDFFF72DFFFFF739FCFDF73A
:10059000EFFC0320FDF7C4FE08B1FDF741FBFFF7B8
:1005A000D1FC00F005F8FCE748656C6C6F0D0A00A3
:1005B00010B5054C6078002805D000F035FCFCF73C
:1005C000FDFB0020607010BD8020002003484168C2
:1005D00021F008014160007801F064B82421002076
:1005E00070B505460E461446A888801C2188821CDA
:1005F0000A449A4201D90C2070BDFE2801D90C2072
:1006000070BD401C70542088401C80B22080FF21A7
:1006100031542088401C80B220808119288802F043
:1006200013F82188084480B22080AA8842B1A968C2
:1006300041B13044FBF778FF2088A9880844208026
:10064000002070BD072070BDF8B505460F46144662
:100650002978012901D1687830B12088821C9A421A
:1006600009D8012902D008E00720F8BD69780144C3
:10067000891C994201D90C20F8BD181A801E86B237
:1006800000962188B81C084469467DDF0028F3D114
:100690002978022905D1BDF80000B04201D809200F
:1006A00008E00820012904D16978B14201D80091FD
:1006B00000E00096BDF80010FE2901D90C20F8BD1D
:1006C0002288491CB9542188491C89B22180785458
:1006D0002088401C2080BDF80010084420800020A5
:1006E000F8BD002070470020704700207047490780
:1006F000090E002806DA00F00F0202F1E02282F86B
:10070000141D03E000F1E02282F8001400F01F0243
:10071000012191404009800000F1E020C0F88012E2
:10072000C0F80011704700000179064A01EB810111
:1007300002EBC10100680522C0F80025022081F803
:1007400022007047402A002070B506460D463179D8
:100750001F4C01EB810004EBC00494F82200002838
:1007600001D0082070BD15B91A4800EB01152260B0
:1007700063600020A06084F8250084F824002946E6
:10078000304601F073FB286840F20C61800000F1F4
:10079000A040C0F800176868800000F1A040C0F8D1
:1007A00000173168D5E9000201F5A16108604A60CF
:1007B000A868C861206828B13068000B40B2297B66
:1007C000FFF795FF012084F82200002070BD000093
:1007D000402A0020E828020030B40D460179084B79
:1007E00001EB810103EBC104910702D030BC06206C
:1007F0007047134601682A46204630BC01F043BDCD
:10080000402A00202DE9F04104460E46204DE87EA6
:10081000002802D00820BDE8F08104B91D4C607F9B
:1008200028772046FDF7B4FB6E60206928605FEAF8
:100830000608194E4FF0000718D0217F287F58B1C5
:10084000C6F81071C6F82071C6F82471C6F8447154
:100850001248C6F8040306E0C6F81C71C6F84471D5
:100860000F48C6F804030220FFF741FF287F18B1A4
:100870000820C6F8000502E00420C6F80005EF7560
:100880002F76AF750120E876AF760020C3E7000031
:100890003C290020A0280200002000401003020094
:1008A000800002002DE9F0031E4D2B7F002B08D0A5
:1008B0004FF40052B2EB104F03D01020BDE8F0030C
:1008C00070470022184E6C684FF404774FF4017C97
:1008D0002CB113B1C6F8087301E0C6F808C395F847
:1008E0001780B8F1000F0BD02A7E42B12CB113B1A2
:1008F000C6F8047301E0C6F804C31120DEE7012244
:1009000032B1286129764BB1BDE8F00300F06EB832
:10091000E975E86000246C762C76F4E7BDE8F00316
:1009200000F014B83C2900200020004010B5064C0F
:10093000207F002806D1A07E002803D100F020FDF2
:100940000120A07610BD00003C2900202DE9F05FB9
:10095000DFF8908098F81A00104301D100F010FDE4
:10096000214ED8F8040030B14FF40170C6F80403EA
:100970000020BDE8F09F4FF4A2790020C6F84401A2
:100980004FF4927A4FF4847B5146304600F055F98B
:1009900005465946304600F050F90746494630466C
:1009A00000F04BF9044627432F43EDD055EA0400ED
:1009B00007D100F0BDFC98F8170098F8191088428C
:1009C000E2D8002088F817000DB10320D1E70CB160
:1009D0000F20CEE798F81A10012009B13060C7E760
:1009E0007060C5E73C290020002000402DE9F05F41
:1009F000204E4FF488790027C6F810714FF4A27A80
:100A0000C6F84471C6F83405C6F83815002A11D066
:100A1000D6F8000240F02000C6F80002DFF8588047
:100A2000D8F8040048B14FF40470C6F8040300205D
:100A3000BDE8F09F01203060F0E74FF4927B49461B
:100A4000304600F005F905465146304600F000F901
:100A500004465946304600F0FBF825430543EED0E6
:100A600088F8177008B10320E2E7002CDFD00F20D0
:100A7000DEE70000002000403C2900202DE9F0477F
:100A800002461F4D287F002807D04FF40050B0EBDE
:100A9000124F02D01020BDE8F08700F073F808B1C3
:100AA0001120F8E7A975AA600027AF82287F10B34C
:100AB0000024144E4FF49078C6F820714FF4AC79AE
:100AC000C6F85871C6F84425C6F848150120B0602C
:100AD000686870B94146304600F0BAF88246494627
:100AE000304600F0B5F85AEA0002F3D000B10F2406
:100AF000AF752046CFE7BDE8F04700F005B800002D
:100B00003C290020002000402DE9F0474FF000086C
:100B10001A4E4FF48E774FF0000AC6F81CA14FF022
:100B20000109C6F8089001F0F5FB154C606810BB90
:100B3000B5150CE03946304600F07FF810B9A08AB0
:100B4000A842F7D1A08AA84201D001F0E3FBA08A15
:100B5000A17D8842EED3A08AA84202D14FF00F08AF
:100B600007E03946304600F068F80028F9D0C6F8AA
:100B70000C9084F816A04046BDE8F08700200040A5
:100B80003C2900200248807D002800D001207047C9
:100B90003C29002030B5DDE9034541EA420141EA44
:100BA0008301800041EA042100F1A04041EA0541AF
:100BB000C0F8001730BD1CB500220B46009211464C
:100BC0000192FFF7E7FF1CBD1CB5002100910B4609
:100BD000012201911146FFF7DDFF1CBD800000F1ED
:100BE000A04000F5E060026822F440320260026832
:100BF00042EA0141016070470121814001480160E2
:100C0000704700000805005008B50349084400215A
:100C100001600068009008BD00600040034908447E
:100C20000068012800D000207047000000600040EC
:100C30004058002800D0012070474058002800D0BC
:100C400001207047D0F80403084000D0012070470D
:100C50004058002800D00120704710B500280AD065
:100C600003280CD10220FDF7CDFD002807D0BDE8F8
:100C70001040FCF7D5BFBDE8104000F0FFBC10BD30
:100C800070B50446094D2088102805D0112802D1DE
:100C90004FF6FF70A88070BD0720FDF7B3FD08B1C7
:100CA000FCF7BEFFA088A88070BD00008020002057
:100CB0000078002807D104483B21808876DF00288F
:100CC00001D0FCF7ADBF7047802000200349826847
:100CD000CA60C0680861FDF789BF0000F8200020E5
:100CE0008988C18170470000074982884A808269EB
:100CF000CA60C0690861002048700448C0890028A3
:100D000001D1FDF773BF7047F8200020782700203D
:100D10004FF6FF71C181704710B50A484FF6FF7159
:100D200041800021417008480068FDF775F80028EF
:100D300006D006498969002902D0BDE8104008475D
:100D400010BD0000F820002068280200782700204D
:100D500008B5891D43890A889A4213D14A89022A13
:100D600010D10268002A0DD00B7B497B43EA012198
:100D700001F0010111B10021009101E00121009178
:100D80006946904708BD000010B5801D0F4C0188D2
:100D9000E289914219D14189022916D1017B407B18
:100DA00041EA002000F0010018B1BDE81040FDF755
:100DB0001DBF07480068FDF72FF8002805D0A1697E
:100DC000002902D0BDE81040084710BD7827002058
:100DD000682802000021425C0AB101207047491CCA
:100DE0000629F8D30020704770B505460D48C5EBBD
:100DF000C50100EB81040026C4F81160A4F8156059
:100E000020461021FBF7A9FBFF202074A0764FF6A7
:100E1000FF702083284601F01FFC02481C3840F870
:100E2000256070BDB0270020704700000649097991
:100E3000490701D40820704720B10449497801606E
:100E4000002070470E207047242100205C290020DC
:100E50007CB5174B1B795B0701D408207CBDE0B142
:100E6000EAB10368022B1CD2124D03EB430455F880
:100E70002460B6B14068CDE9003005EB8400019EE6
:100E8000038901FB036101914168408900FB031064
:100E90000199884207D807207CBD0E207CBD0E201A
:100EA0007CBD07207CBDDDE9000103C200207CBDC4
:100EB00024210020282A0020F8B504460D462748A2
:100EC0000079400701D40820F8BDA4B120680228A9
:100ED00013D2234E00EB400056F8201069B106EB08
:100EE000800042894168008902FB001160688142EC
:100EF00005D80720F8BD0E20F8BD0720F8BDFFF784
:100F000035F978B1D4E9000200EB400006EB80002F
:100F100043680189D61AB6FBF1F701FB17661EB1CB
:100F20000720F8BD1020F8BDB5FBF1F601FB165601
:100F300046B93DB14089414350191944884203D90B
:100F40000720F8BD0720F8BD0020024600902B4680
:100F500021460320FDF738FDF8BD000024210020C4
:100F6000282A002010B54FF010204469601C04D0DE
:100F700000F007F8B4FBF0F010BD4FF0805040696E
:100F800010BD4FF08050006980B2704770B5FDF71A
:100F900043FD0F4D00246C80FFF7E4FFC61EFFF7F2
:100FA000F0FF4643AE606C6100200A4A00EB40014E
:100FB00042F8214002EB81010C814C81401C022847
:100FC000F4D32C70AC61EC6104206860002070BD2B
:100FD00024210020282A00202DE9F84380460C46D1
:100FE00015461E4628480079400702D40820BDE86F
:100FF000F883BCB1B8F1000F16D02068022815D2D2
:10100000224F00EB400057F8201079B107EB800029
:1010100042894168008902FB00116268914207D849
:101020000720E4E70E20E2E70E20E0E70720DEE7F6
:101030000DB1A84201D20720D9E7A919814201D9EF
:101040000720D4E74046FFF791F8D0B13046FFF7CC
:101050008DF8B0B16068FFF789F890B160682A46F2
:1010600081194046FBF760FA00952068002200EBEA
:101070004000434657F8205002212046A847002050
:10108000B5E71020B3E7000024210020282A002023
:101090002DE9F04104460D462C4E3079400702D42C
:1010A0000820BDE8F08164B16DB1206868B1FFF738
:1010B00068FF0146A088814201D3102807D207208B
:1010C000EFE70E20EDE70E20EBE70E20E9E7E088E2
:1010D00060B1FFF747FF471EFFF753FF4743E28822
:1010E000A088B16802FB0012974201D20720D8E71E
:1010F000800701D00720D4E77088022824D0286018
:101100006960134B00EB400203EB820041602168F1
:1011100043F82210A1880181E1884181FFF731FF66
:10112000A188E288401E01FB0204FFF72AFF94FB1E
:10113000F0F4FFF726FFB16804FB0010B060708880
:10114000401C70800020ACE70420AAE72421002086
:10115000282A0020F8B504460F4615461E462148A9
:101160000079400701D40820F8BDAFB1B4B12068C0
:10117000022815D21C4900EB400051F820207AB11A
:1011800001EB800042894168008902FB001162681E
:10119000914207D80720F8BD0E20F8BD0E20F8BDFB
:1011A0000720F8BD0DB1A84201D20720F8BDA9194A
:1011B000814201D90720F8BD3846FEF7D7FF78B144
:1011C0003046FEF7D3FF58B16068FEF7CFFF38B165
:1011D0002B463A46214601200096FDF7F5FBF8BD67
:1011E0001020F8BD24210020282A0020094A117867
:1011F00000290ED004290CD0022806D0032808D1DB
:101200001079000703D4FEF7E3BBFEF7F5BBFEF74A
:10121000F3BB704724210020F8B504460F4615465D
:101220001E4621480079400701D40820F8BDAFB11F
:10123000B4B12068022815D21C4900EB400051F8D7
:1012400020207AB101EB800042894168008902FBCD
:1012500000116268914207D80720F8BD0E20F8BD42
:101260000E20F8BD0720F8BD0DB1A84201D207201D
:10127000F8BDA919814201D90720F8BD3846FEF70B
:1012800075FF78B13046FEF771FF58B16068FEF720
:101290006DFF38B12B463A46214604200096FDF7F3
:1012A00093FBF8BD1020F8BD24210020282A00203F
:1012B0000249086006211120FBF745BD08150140D1
:1012C00070B50A4C4FF48030C4F84403C4F80403EA
:1012D0001120FBF717FD1120FBF71FFD01252560ED
:1012E0002F20FBF7D3F80248C57070BD00100140F5
:1012F0005021002070B501260A49700400250860BD
:10130000094C4010C4F84803C4F8080366602F2055
:10131000FBF7BCF8A660054C25612F20FBF7B6F85B
:10132000E57070BD80E100E0001001405021002018
:101330000A4800220A49C37D002B0AD0C1F80821BF
:10134000D1F81815437EC268D154417E491C4176BC
:101350007047C1F80821D1F8180570473C290020D2
:10136000002000401FB501228DF800208DF80800F4
:101370000191024806C8684690471FBD3C290020DD
:1013800004480021A830C1670166012140F8A81C6B
:10139000704700000020004008B504490091009902
:1013A000814201D0002008BD002008BD802000201F
:1013B00010B50121202805DA244A814011400AD0C5
:1013C000012108E0402805DAA0F12002914002D076
:1013D000012100E0012149B100280ADA00F00F01E3
:1013E00001F1E02191F8141D490907E042F20100E2
:1013F00010BD00F1E02191F800144909082901D33A
:10140000002107E0A9B1012913D0042911D0052931
:101410000FD0012179B10E4B9C6800F01F02012111
:101420009140400954B153F820200A4343F820204A
:1014300009E00021EEE742F2020010BD800000F159
:10144000E020C0F80011002010BD0000FC06FFBC29
:10145000EC2C002030B51488E51C9D4201D90C20ED
:1014600030BD02230B5513885B1C9BB213801124E3
:10147000CC5413885B1C9BB21380C8541088401C4A
:101480001080002030BD70B594B006460D46142182
:101490000FA8FBF762F8002407949DF81C0020F0C9
:1014A0000F00401C20F0F00010308DF81C009DF85B
:1014B0001E0020F00600801C8DF81E0028798DF893
:1014C0001D001C2108A8FBF748F89DF8200020F01B
:1014D000200040F0100020F0080020F002008DF8FD
:1014E000200009940B940C9407A80D900E940120F1
:1014F0008DF80200ADF8000001949DF8060020F080
:101500000601891C8DF8061068798DF80400A87909
:101510008DF8050021F0080020F0100040F00100D7
:101520008DF80600142102A8FBF717F8CDF808D0B3
:1015300001A803901420ADF81000ADF81240ADF8EA
:1015400014000FA80690B088B31D02AA08A9A2DF54
:1015500014B070BD00B585B0FEF754FCFEF74EFF29
:1015600002A8FEF743FC6846FEF734FF6A4602A96C
:101570000120FBF74FFB02490120487005B000BD78
:10158000802000202DE9F04180460F461446D8F80F
:101590002800002801D0002632E00720BDE8F081B5
:1015A000D8F8280006EB460100EB8105A988891CC4
:1015B000FE2901D90C20F1E72088491C39542088E4
:1015C000401C80B22080162139542088401C80B2F3
:1015D0002080C119288801F037F82188084482B298
:1015E0002280A88850B1A96881B1D3190246184653
:1015F000FAF79AFF2088A98808442080761CF6B262
:1016000098F82C00B042CBD80020C7E70720C5E7E8
:101610001CB50020009001909DF8040020F00F0000
:10162000401C20F0F00010308DF804009DF80500FB
:1016300020F00F00401C20F0F00010308DF8050065
:101640009DF8060020F00F0020F0F0008DF8060055
:101650009DF8070020F00F00401C20F0F000103033
:101660008DF8070069460448FCF742FF002801D0C6
:10167000FCF7D6FA1CBD00000C24002010B5002099
:10168000FDF7C0F808B1FCF7CBFAFDF789F808B10F
:10169000FCF7C6FA3CDF002803D0BDE81040FCF799
:1016A000BFBA10BD0149087000F0BCB82421002069
:1016B000002803D00249C860002070470E20704700
:1016C0007C2100201CB5034900910099019101A9DA
:1016D00060DF1CBD8020002070B505460E46144614
:1016E00014212046FAF739FF0122228000202061D0
:1016F00020732672657205B1A272002070BDFCF7DE
:101700007DBA000030B4002911D08C0712D000241B
:1017100094B10A4CA16062806360094910DF00281F
:1017200006D10120207030BC1620FFF741BE0720F3
:1017300030BC70470124EBE70720F9E77C2100204B
:10174000FF160200002803D00249086100207047FC
:101750000E2070477C210020C078002801D007208F
:101760007047002070471CB5044601A90020FDF712
:1017700020F8002814D169460120FDF71AF8002846
:101780000ED19DF8000010B10220207007E09DF8F6
:10179000040010B10B20207001E000202070002018
:1017A0001CBD000001484069FEF738B92421002023
:1017B0002DE9F041194F786820F001007860184950
:1017C000087800EB800001EB80042569FFF7D9FB66
:1017D000B5FBF0F67E61FFF7D4FBE1886D1E29446E
:1017E000B1FBF0F0864204D1786840F002007860E6
:1017F00003E0786820F0020078603879F96800F03A
:101800000200084304D0BDE8F041002000F048B9D0
:10181000BDE8F041022000F043B90000242100207F
:101820005C29002009480078002807D0012807D04B
:10183000022807D0032807D1FFF7B4BF00F00EB885
:1018400000F052B8FFF7B4BF704700002421002019
:1018500001484069FEF7E2B8242100200248002137
:101860008161C161FDF796B82421002010B5FFF712
:1018700079FB441EFFF785FB4443FFF782FB0549D4
:101880004A69521E5043CA682146BDE81040FEF71F
:10189000C8B80000242100202DE9F0411049087843
:1018A00000EB800001EB80042569FFF76AFBE1880B
:1018B000228911442944B1FBF0F200FB1216FFF714
:1018C00051FB471EFFF75DFB07FB0061E0882289A3
:1018D0001044044A28441269BDE8F041FEF7A1B85B
:1018E0005C2900202421002000F02AB810B5FFF761
:1018F00039FB441EFFF745FB4443FFF742FBB4FBB3
:10190000F0F0BDE81040FEF789B8000070B5FFF7B1
:1019100038FB8508FFF735FB0749496900FB01F4EF
:10192000FFF720FB461EFFF72CFB70432A4621469B
:10193000BDE87040FEF775B82421002000207047F4
:1019400070B51549087800EB800001EB8004241D78
:10195000FFF717FB6188114E884212D2FFF711FB87
:1019600061880D1AFFF70DFB8208A188E068084422
:10197000216928442944FEF754F8FFF702FBF0617F
:1019800070BDA288E06810448A082169FEF749F812
:101990006088F06170BD00005C29002024210020D7
:1019A0000120FFF77FBE00000A49087900070FD425
:1019B000094A107800EB800002EB8000898BC28816
:1019C000511A89B2C18009B1FFF7BABFFDF734B827
:1019D000FEF7FCBD242100205C29002001608280EC
:1019E0000821817100210181704770B524E0012434
:1019F0009440641E21408479944208D80568141BE1
:101A000021FA04F4EE5C2643EE54837907E005687E
:101A1000A41A01FA04F4EE5C2643EE541346D21ADB
:101A2000D2B284799C4205D10823837103895B1C5F
:101A3000038101E0E31A8371002A03D003898488BB
:101A4000A342D4D370BD000004480079000702D43B
:101A5000012000F025B800F00FB80000242100207C
:101A6000FCF76CBF03490248497850F82100004751
:101A7000C0280200242100200348416821F0080109
:101A80004160407800F00CB824210020034902484E
:101A9000497850F821000047D42802002421002072
:101AA00001494870FFF7DEBF2421002010B504462D
:101AB0002046FFF79BFB2046BDE81040FCF7E8BB43
:101AC00003480079000701D4FFF7CABFFFF7D4BF6E
:101AD000242100202DE9F04104460D46FFF751FA7C
:101AE000B5FBF0F6FFF74DFAB4FBF0F00A4F864273
:101AF00004D1281B80083861BDE8F081FFF741FA66
:101B00000546FFF73EFAB4FBF0F100FB1140281A3E
:101B100080083861F0E700002421002010B5094951
:101B2000D0E905204B69002B08D0014610469847A4
:101B3000002806D0BDE81040FCF772B8BDE81040A0
:101B4000104710BD502100202DE9FC4700270197C8
:101B50000F4DD5F81080D5F80C906846FDF7DCFDE8
:101B60000646FEF735FB04462EB101AA4146009811
:101B7000FDF7B6FE01240198FEF764FB00B10124D5
:101B800014B14846FCF780FF2F71BDE8FC870000C8
:101B9000502100201420FBF7CBB8000010B5104CEA
:101BA000E168002908D002680B689A4206D89A1AA0
:101BB0000A60C161E06010BDE06010BD0C4602E04B
:101BC000D21A0C46C96911B10B689342F8D311B10E
:101BD0000B689B1A0B600260C161E06110BD0000E0
:101BE0005021002010B5104CE2681346114603E066
:101BF000814203D00A46C9690029F9D1002912D0CF
:101C00008A4208D1D869E06028B9084B0120986061
:101C10000023236120710B68C869D061002802D0BD
:101C200001681944016010BD5021002000100140DE
:101C30002DE9F8430446DDF820900E4617469846F5
:101C4000104D6946A86800EBC40000F063FDB0B118
:101C50000121017046600C4909688160C760C0F8C5
:101C60001080C0F81490A8689DF8001000EBC40024
:101C700000F064FDFFF78EFF0020BDE8F88304202C
:101C8000FBE700005021002004150140F8B5044690
:101C90000D460C4E6946B06800EBC40000F03AFDFA
:101CA00068B1022101704560B0689DF8001000EB3A
:101CB000C40000F043FDFFF76DFF0020F8BD0420D5
:101CC000F8BD0000502100202DE9F041DFF86C80C4
:101CD000D8F80C40002C2FD0002619480068D8F8FE
:101CE0001010401A20F07F4500270BE02068A84222
:101CF0000AD82D1A06442046E469017C11B1077404
:101D0000FFF70CFF002CF1D198F8011098F80200B1
:101D1000814207D1401CC0B288F80200022801D1DC
:101D200088F80270054898F80210183040F82160D1
:101D3000BDE8F041FFF72EBFBDE8F0815021002043
:101D4000041501401120FAF7F3BF000010B500237D
:101D5000094A06211846FBF7E9FF08B1FBF760FFC7
:101D6000064A01210648FBF7C9FF002803D0BDE859
:101D70001040FBF755BF10BDB421002055150200DF
:101D80003028020030B5148804F112059D4201D9B3
:101D90000C2030BD11230B5513885B1C9BB21380A4
:101DA0001024CC5413885B1C13800F231588C45C4B
