:020000040001F9
:10C00000585B002005C501000DC501000FC50100EA
:10C0100011C5010013C5010015C501000000000095
:10C0200000000000000000000000000017C5010033
:10C0300019C50100000000001BC501001DC501005D
:10C040001FC501001FC5010099D50100EDD00100F9
:10C050001FC501001FC5010039CC01001FC501002B
:10C060001FC501001FC501001FC501001FC501003C
:10C070001FC501001FC501001FC501001FC501002C
:10C080001FC50100D5D001001FC501001FC501005B
:10C09000FDD001001FC5010001D101001FC5010035
:10C0A0001FC501001FC501001FC501001FC50100FC
:10C0B0001FC501001FC501000000000000000000B6
:10C0C0001FC501001FC501001FC501001FC50100DC
:10C0D0001FC501001FC501001FC5010000000000B1
:10C0E0000000000000000000000000000000000050
:10C0F0000000000000000000000000000000000040
:10C10000000000000000000000000000000000002F
:10C11000000000000000000000000000000000001F
:10C40000DFF80CD000F078FB00480047390C020040
:10C41000585B0020401E00BF00BF00BF00BF00BF30
:10C4200000BF00BF00BF00BF00BF00BF00BF00BF14
:10C4300000BF00BF00BF00BF00BF00BF00BF00BF04
:10C4400000BF00BF00BF00BF00BF00BF00BF00BFF4
:10C4500000BF00BF00BF00BF00BF00BF00BF00BFE4
:10C4600000BF00BF00BF00BF00BF00BF00BF00BFD4
:10C4700000BF00BF00BF00BF00BF00BF00BF00BFC4
:10C4800000BF00BF00BFC5D170470000401E00BF05
:10C4900000BF00BF00BF00BF00BF00BF00BF00BFA4
:10C4A00000BF00BF00BF00BF00BF00BF00BF00BF94
:10C4B00000BF00BF00BF00BF00BF00BF00BF00BF84
:10C4C00000BF00BF00BF00BF00BF00BF00BF00BF74
:10C4D00000BF00BF00BF00BF00BF00BF00BF00BF64
:10C4E00000BF00BF00BF00BF00BF00BF00BF00BF54
:10C4F00000BF00BF00BF00BF00BF00BF00BFC5D16D
:10C50000704700000648804706480047FEE7FEE700
:10C51000FEE7FEE7FEE7FEE7FEE7FEE7FEE7FEE7F3
:10C52000C5D3010001C4010040EA01039B0703D009
:10C5300009E008C9121F08C0042AFAD203E011F862
:10C54000013B00F8013B521EF9D27047D2B201E024
:10C5500000F8012B491EFBD270470022F6E710B508
:10C5600013460A4604461946FFF7F0FF204610BD61
:10C5700030B504460020034600E05B1C934203D222
:10C58000E05CCD5C401BF8D030BD00F0004230F0E4
:10C5900000400AD0C10D01F56071C0F3160042EAF7
:10C5A0000151C208400711437047002001467047FF
:10C5B00001F0004330B421F0004150EA010206D0FE
:10C5C0000A0DA2F56072C1F31301002A02DC30BC2F
:10C5D00000207047440F44EAC104C100E01830BC99
:10C5E00000EBC25000F047B830B50B4601460020C2
:10C5F0002022012409E021FA02F59D4205D303FA25
:10C6000002F5491B04FA02F52844151EA2F10102A5
:10C61000F1DC30BD2DE9F05F0546002092469B46D7
:10C6200088460646814640241BE028464146474648
:10C63000224600F082FA53465A46C01A914110D35E
:10C6400011461846224600F069FA2D1A67EB0108D8
:10C650004F4622460120002100F060FA17EB000946
:10C660004E41201EA4F10104DFDC484631462A4633
:10C670004346BDE8F09F0029A8BF7047401C490011
:10C6800008BF20F00100704710B4B0FA80FC00FA37
:10C690000CF050EA010404BF10BC704749B1CCF162
:10C6A000200421FA04F411FA0CF118BF01212143EE
:10C6B0000843A3EB0C01CB1D4FEA00614FEA1020A9
:10C6C00042BF002010BC704700EBC350104400294B
:10C6D000A4BF10BC7047401C490008BF20F00100F7
:10C6E00010BC70472DE9FE4F804681EA0300C00F61
:10C6F0000C46009021F0004123F00045B8EB020009
:10C70000A94105D24046214690461C460B460246AA
:10C7100023F00040104347D0270DC7F30A00C3F3AE
:10C720000A510290401A019040286BDAC3F31300BB
:10C7300040F4801B0098924620B10023D2EB030AFC
:10C7400063EB0B0B01985946C0F14002504600F0D4
:10C75000E5F906460D4650465946019A00F0FDF9A6
:10C7600010EB08006141002487EA115284EAE77364
:10C770001A4340D0009A62B3019A012A4FEA075245
:10C7800015DC001B61EB02014FF0004202EA075288
:10C79000CDE90042001C41F5801132462B4600F0E5
:10C7A000FDF903B0BDE8F08F40462146F9E7001BD4
:10C7B00061EB0201001C41F5801300185B41201859
:10C7C000A2F5001747EB030140EAD570B6196D4199
:10C7D00011E06D084FEA360645EAC0754FEA075288
:10C7E000001B61EB0201001C41F5801149084FEA72
:10C7F00030000019514132462B4603B0BDE8F04FDE
:10C8000000F0BDB90098012240000023D0EB0202E5
:10C8100063EBE073009821464FEAE074B8EB000048
:10C8200061EB0401E9E783F000435BE781F000413D
:10C8300058E72DE9FE4F81EA030404F0004421F09B
:10C84000004100944FF0000B23F0004350EA010434
:10C850005ED052EA03045BD0C3F30A54C1F30A5515
:10C860002C44A4F2F3340194A0FB0254C1F313014D
:10C8700041F48011C3F3130343F4801301FB02441A
:10C8800000FB034E840A970A44EA815447EA83571F
:10C89000A4FB076802958D0A05FB07854FEA932CD8
:10C8A00004FB0C542705029D4FEA065847EA163749
:10C8B000B5EB08056EEB070C870E920E47EA811761
:10C8C00042EA8312A7FB0201B6EB0B0164EB000402
:10C8D0002B0D43EA0C335E1844EB1C50DA465146EC
:10C8E000E7FB0201C5F313044FEA0B3343EA145389
:10C8F0004FEA0432019C43EA0603A4F10C040294BB
:10C90000009CCDE900B400F049F903B0BDE8F08F18
:10C9100000200146F9E72DE9F04D81EA030404F017
:10C92000004B21F0004514464FF0000A23F000416F
:10C9300050EA050220D054EA01021DD0C5F30A577F
:10C940000246C5F31303C1F31300C1F30A5640F4C2
:10C95000801543F48013A7EB0608101BD64608F297
:10C96000FD3873EB050002D308F1010801E09218CD
:10C970005B41B8F1000F03DA00200146BDE8F08DFD
:10C9800000204FF48011064684460EE0171B73EB1F
:10C99000050705D3121B63EB050306434CEA010CA4
:10C9A00049084FEA300092185B4150EA0107EDD187
:10C9B00052EA030012D082EA040083EA0501084328
:10C9C00005D0101BAB4106D20122002306E0002255
:10C9D0004FF0004302E06FF0010253101AEB060023
:10C9E0004CEB085110EB0A0041EB0B01BDE8F04D98
:10C9F00000F0C5B82DE9F04D00231A461B1A8A41F4
:10CA000003DB00200146BDE8F08DC1F30A52C1F3FB
:10CA1000130141F480154FF0000BD10702D100182B
:10CA20006D41521E0027044640F2FF11384601EBCB
:10CA3000620A3E468046024600204FF4801100F014
:10CA40007CF8C2197141BB1846EB0100B4EB030C32
:10CA500075EB000C04D3E41A65EB000517460E468F
:10CA6000241908F101006D4180463428E3DDF919ED
:10CA700046EB0600091BA84103D24FF0FF321346D4
:10CA800001E0002213461BEB070046EB0A51BDE80C
:10CA9000F04D00F074B8C1F30A52C1F3130140F233
:10CAA000FF3341F480119A4202DA002001467047B8
:10CAB00040F233439A42A2F2334202DC524200F087
:10CAC0003CB800F02BB8000030B5041E71F1000432
:10CAD00004DB4FF00044404264EB0101141E73F18B
:10CAE000000405DB1C464FF00043524263EB040395
:10CAF000994208BF904230BD064C074D06E0E06801
:10CB000040F0010394E8070098471034AC42F6D394
:10CB1000FFF77AFCC0370200E0370200202A04DB6E
:10CB2000203A00FA02F1002070479140C2F1200340
:10CB300020FA03F3194390407047202A04DB203A7F
:10CB400021FA02F00021704721FA02F3D040C2F12D
:10CB500020029140084319467047202A06DBCB1774
:10CB6000203A41FA02F043EAE07306E041FA02F3A8
:10CB7000D040C2F12002914008431946704710B5D9
:10CB8000141E73F1000408DA401C41F100019218F0
:10CB90005B411A4301D120F0010010BD2DE9F04D99
:10CBA00092469B4611B1B1FA81F202E0B0FA80F2EE
:10CBB00020329046FFF7B2FF04460F4640EA0A00D3
:10CBC00041EA0B0153465A46084313D0114653EA33
:10CBD000010019D0C8F140025046FFF7AEFF0546EC
:10CBE0000E46504659464246FFF798FF084305D087
:10CBF000012004E020463946BDE8F08D00200543C1
:10CC000046EAE0762C4337430A986305E40AA0EB32
:10CC100008000022FD0A44EA47540A3002D50020E9
:10CC20000146E9E7010510196941DDE908450019E8
:10CC30006941BDE8F04DA2E72DE9F84F0025A9466E
:10CC40004FF48078012400264B4F404604F066FBE9
:10CC500038B1D7F80403204018B1404604F054FB23
:10CC60002543640008F104081FFA88F8761C082E92
:10CC7000EBD34FF4BE74204604F050FB38B120468D
:10CC800004F042FB45F000453C48D0F80090DFF846
:10CC9000F08015F0FF0F14D0012600242E420CD096
:10CCA00007EB8401D1F81005C0F30420D1F810156A
:10CCB000C1F3014158F8242090477600641C082CE9
:10CCC000ECD3002D56DA4FF0000B4FF0FF30009000
:10CCD000002400252A4F791911F8500F20F0C00ABE
:10CCE00091F90010491C34D04FF00108009908FA5E
:10CCF0000AF818EA010F2CD08609504602F030F8E5
:10CD000057F820700FB9032E23D1032E01D14BEA1F
:10CD1000080B4FEA8A0000F1A040D0F80007C0F3EA
:10CD2000014018EA090801D0022804D0B8F1000F28
:10CD30000FD103280DD1032E07D1022813D00221D1
:10CD4000504604F0CBFA641CE4B217B131465046A9
:10CD5000B8476D1C042DBDD354B108480068484540
:10CD600003D1002404E00321EAE78146CDF800B0B6
:10CD7000002CADD1BDE8F88F0060004010050050D8
:10CD80004437002010B5012802D0022803D101E069
:10CD9000474C00E0474CB1F9000000EE100AF8EEF5
:10CDA000C00A9FED450A60EE800AC4ED000AB1F9A1
:10CDB000020000EE900AF8EEE00A20EE800A84ED10
:10CDC000010AB1F9040000EE100AF8EEC00A9FED66
:10CDD0003B0A20EE800A84ED020AB1F9060000EE5B
:10CDE000100AF8EEC00A9FED360A60EE800AC4ED24
:10CDF000030AB1F9080000EE900AF8EEE00A20EE0E
:10CE0000800A84ED040AB1F90A00DFED2E0A00EE73
:10CE1000100AB8EEC00A20EE200A84ED050AB2F925
:10CE2000000000EE100AF8EEC00A9FED270A60EE3F
:10CE3000800AC4ED060AB2F9020000EE900AF8EE8C
:10CE4000E00A20EE800A84ED070AB2F90400DFED63
:10CE50001F0A00EE100AB8EEC00A20EE200A84ED88
:10CE6000080A03F017FAC4F82407D4F8281729B1E0
:10CE7000814209D90021C4F8280706E003F00AFA24
:10CE8000C4F82807002100E0411AD4F82407C4F8A8
:10CE9000280700EE101ADFED0E0A04F58064B8EEE4
:10CEA000400A20EE200A84EDCB0A002010BD0000CD
:10CEB0002C240020FC2B0020000000BA0000003AC7
:10CEC0007922A0BA7922A03A82A87B3882A87BB8BE
:10CED0006F12833A30B505462DED088B95B095ED70
:10CEE000AC0A8DED120A95EDAD0A8DED130A95EDA4
:10CEF000AE0A8DED140A95ED060A8DED0F0A95ED3B
:10CF0000070A8DED100A95ED080A8DED110A05F559
:10CF1000806494ED730A8DED0C0A94ED740A8DED26
:10CF20000D0A94ED750A8DED0E0A12A803F04AF968
:10CF3000B5EEC00AF1EE10FA7DD00FA803F042F969
:10CF4000B5EEC00AF1EE10FA75D0D4EDD19A94ED99
:10CF5000D28AD4EDD38A94EDD49AF0EE00BA28EEBA
:10CF600009BA69EE88AA29EEA9AA12A803F078F9ED
:10CF700009EEE8BA6BEE2B1A48EE89AA2AEEAB2A24
:10CF800008EE48AA08EEE8AA09EE09AA60EE8A2A85
:10CF900041EE422A21EE211A00EE4A1A20EE022A20
:10CFA00000EEE12A94EDCC0A62EE801A61EE002ACE
:10CFB00022EE002AB7EE000ADDED0C0A40EE210A4F
:10CFC0009DED0D1A00EE221ADDED0E1A40EE021A4A
:10CFD0009FED260A8DED040ACDED050A8DED061AAA
:10CFE000CDED071AB6EE000A69EE800ACDED000A13
:10CFF00068EE000ACDED010A68EE800ACDED020A66
:10D0000029EE000A8DED030A04A9684605F046F8EA
:10D0100094EDCB2A20EE020A60EE822A61EE020A2B
:10D0200021EE821A39EE800A8DED080A38EE220AC6
:10D030008DED090A00E014E038EEA00A8DED0A0A31
:10D0400039EE010A8DED0B0A08A803F0DDF805F5AD
:10D05000E06585ED110AC5ED120A85ED131AC5EDDF
:10D06000141A15B0BDEC088B30BD000000000000A4
:10D0700000F01F02012191404009800000F1E020F2
:10D08000C0F88012704700F01F0201219140400952
:10D09000800000F1E020C0F80011704700F01F028E
:10D0A000012191404009800000F1E020C0F8001209
:10D0B00070474907090E002806DA00F00F0000F15A
:10D0C000E02080F8141D704700F1E02080F8001483
:10D0D0007047000004480021016441648164C16418
:10D0E0000160416005F038BD00110140014902486E
:10D0F00003F004BBA03800200030004005F06CBCF9
:10D1000010B508484068002806D08047002807D09E
:10D11000BDE8104001F018B8BDE8104003F0B8BAFF
:10D1200010BD0000882100202DE9F0412DED028B7B
:10D130008AB01C2103A8FFF710FA03F0ABF8804671
:10D140001C2103A8FFF709FA192203A9684605F074
:10D150008DFB02221146684605F08FFB09224146ED
:10D16000684605F08AFB8E4F03223978481C3870D8
:10D17000684605F082FB8B4C94ED060A9FED8A8A87
:10D1800020EE080ABDEEC00A10EE100A01B294EDBE
:10D19000070A20EE080ABDEEC00A10EE100A05B21A
:10D1A00094ED080A20EE080ABDEEC00A10EE100A3F
:10D1B00006B20A22684605F060FB0A222946684644
:10D1C00005F05BFB0A223146684605F056FB042257
:10D1D0000021684605F051FB94ED000A20EE080A94
:10D1E000BDEEC00A10EE100A01B294ED010A20EE65
:10D1F000080ABDEEC00A10EE100A05B294ED020A4C
:10D2000020EE080ABDEEC00A10EE100A06B2102287
:10D21000684605F032FB10222946684605F02DFBD2
:10D2200010223146684605F028FB94ED030ADFED35
:10D230005F8A20EE280ABDEEC00A10EE101A94EDA7
:10D24000040A20EE280ABDEEC00A10EE105A94ED32
:10D25000050A20EE280ABDEEC00A10EE104A102280
:10D26000684605F00AFB10222946684605F005FBD2
:10D2700010222146684605F000FB0026FE2001F042
:10D28000CDF8EF2001F0CAF8002403AD285D01F0CD
:10D29000C5F8641C142CF9DB0D2001F0BFF80A203E
:10D2A00001F0BCF81C2103A8FFF757F9192203A9C4
:10D2B000684605F0DBFA02220021684605F0DDFA37
:10D2C00009224146684605F0D8FA39780322481CFD
:10D2D0003870684605F0D1FA02220021684605F050
:10D2E000CCFA334C94EDCB0A20EE080ABDEEC00A0E
:10D2F00010EE101A1022684605F0BFFA94EDD10A1C
:10D3000020EE280ABDEEC00A10EE100A01B294ED1C
:10D31000D20A20EE280ABDEEC00A10EE100A07B2AB
:10D3200094EDD30A20EE280ABDEEC00A10EE100AD2
:10D330000FFA80F894EDD40A20EE280ABDEEC00A58
:10D3400010EE100A04B21022684605F096FA102278
:10D350003946684605F091FA10224146684605F0C4
:10D360008CFA10222146684605F087FAFE2001F06B
:10D3700055F8EF2001F052F80024285D01F04EF836
:10D38000641C142CF9DB0D2001F048F80A2001F090
:10D3900045F80AB03046BDEC028BBDE8F0810000D4
:10D3A000802000202C24002000401C4600007A44ED
:10D3B0002C28002002490148086070470090D003E3
:10D3C0009C21002070B502F06BFC10B167486649E3
:10D3D000416702F07BFC28B1654800686549C0F3ED
:10D3E0004230086002F090FC20B16348016821F0EF
:10D3F0008071016002F09EFC002428B15F48046047
:10D4000044605C48001F046002F0B2FC18B1594946
:10D4100003206431086002F0C1FC012558B158496D
:10D42000052008605648783005605548083004608B
:10D43000091D3F20086002F0C7FCE8B351480068AE
:10D44000514908604F48001D0068091D08604D489B
:10D45000083001684C48083001604A480C300068C8
:10D4600049490C310860474810300068091D0860C0
:10D47000444814300068091D0860424818300068AC
:10D480004149203108603F481C300068091D086090
:10D490003C4820300068091D08603A482430006884
:10D4A000091D0860374828300068091D08603548A4
:10D4B0002C300068091D00E01AE008603148303067
:10D4C00000683149403108602E4834300068091D39
:10D4D00008602C4838300068091D086029483C3035
:10D4E0000068091D0860274840300068091D086071
:10D4F00021487438016841F470010160BFF34F8F17
:10D50000BFF36F8F4FF01022D2F80002002803DB28
:10D51000D2F80402002822DA1C4B1D601C48016866
:10D520000029FCD01525C2F8005201680029FCD062
:10D53000C2F8045201680029FCD01C60016800296F
:10D54000FCD0BFF34F8F0C48F0380168114A01F44A
:10D55000E06111430160BFF34F8F00BFFDE7BDE8FD
:10D560007040FFF727BF00000DF0ADBA00C00740C4
:10D57000440200103C050040FCED00E00C010040BE
:10D58000105600400404001020C5004004E501408E
:10D5900000E401400400FA050348007F002801D0A0
:10D5A00005F02CBF05F0A4BE9C370020014B024AB9
:10D5B00000F026B93DFF01008421002000B52DEDCB
:10D5C000048BB0EE409AF0EE609A83B051EC190BE8
:10D5D000FFF710FA41EC180B18EE100A18EE901A2B
:10D5E0008DED008B002818BF0120084320F000407B
:10D5F000C0F17F6000F1E040C00F14D019EE101AA6
:10D6000019EE900A8DED009B002918BF01210843F7
:10D6100020F00040C0F17F6000F1E040C00F04BF87
:10D62000012000F035F8B0EE480A03B0F0EE680AC9
:10D63000BDEC048B00BD10B52DED028BB1EEC08AA0
:10D6400018EE100A20F00040C0F1FF40C00F0AD0D1
:10D6500010EE100A20F00040C0F1FF40C00F04BFE0
:10D66000012000F015F8B0EE480ABDEC028B10BDA9
:10D6700002E008C8121F08C1002AFAD1704770479B
:10D68000002001E001C1121F002AFBD170470000F9
:10D690000149086070470000A02100202DE9FF5FCC
:10D6A000DDE90220010DDDF838B0024318D044F660
:10D6B0001050A1F2FF3141430D140F98012820D0E2
:10D6C000A5EB0B00401C5FEA000A4FF00004474E38
:10D6D000DFF81C91A046504616D5CAF1000728E095
:10D6E0000F98012443A2012808D0002100980F9B25
:10D6F000C0E90021C0E90243BDE8FF9F6FEA0B01CA
:10D70000F4E7CBF10000DEE7074612E0F80707D0A8
:10D710002246334640464946FFF78BF88046894605
:10D720002246334610461946FFF783F804460E4654
:10D730007F10002FEAD1DDE90201BAF1000F424665
:10D740004B4602DAFFF775F801E0FFF7E4F804460C
:10D750000E460022284BFFF7B7F903D84FF0FF30F1
:10D76000014607E00022254B20463146FEF7BAFF6E
:10D77000FFF791F9102409E0002C0ADB0A220023AC
:10D78000FEF748FF019B30321A55641E50EA010231
:10D79000F2D1641C019AC4F1110314440F9A012AB6
:10D7A00003D0012208430DD10AE0084304D0002031
:10D7B0004FF0110B0F9080E7A3EB0B056D1E0DE0F2
:10D7C0005B4504DD4FF0000205F1010504E003DADA
:10D7D0004FF00002A5F10105002AECD000980F9946
:10D7E000C0E90231C0E9004586E70000000024409E
:10D7F0000000F03F300000000000F0430000E03F78
:10D800002DE9FF4F95B09B468946064600250FE25D
:10D81000252877D100242746F84A0121059400E005
:10D82000044316F8013F203B01FA03F01042F7D100
:10D8300030782A2811D06FF02F033078A0F1300211
:10D84000092A16D8059A44F0020402EB820203EB7F
:10D8500042021044761C0590EFE759F8042B05921C
:10D86000002A03DA504244F40054059044F00204C4
:10D87000761C30782E2816D116F8010F44F00404D7
:10D880002A280DD06FF02F023078A0F13003092B39
:10D8900009D807EB870302EB4303C718761CF3E7AD
:10D8A00059F8047B761C30786C280FD006DC4C28A5
:10D8B00017D068280DD06A2814D104E0742810D03D
:10D8C0007A280FD10DE044F400140AE044F48014E7
:10D8D00001E044F440147278824202D104F58014CD
:10D8E000761C761C307866280BD013DC582877D04D
:10D8F00009DC002875D04528F6D04628F4D0472802
:10D900001AD19DE118E0632835D0642879D06528C4
:10D9100012D195E1702873D008DC6728F1D069280E
:10D920006FD06E280DD06F2806D1B5E073282CD0AB
:10D93000752875D0782874D05A46179990476D1C71
:10D9400075E1C4F30250022809D003280DD0D9F89C
:10D95000001004280DD00D6009F1040967E1D9F821
:10D960000010EA17C1E90052F6E7D9F800100D805F
:10D97000F2E70D70F0E719F8041B8DF80010002095
:10D980008DF80100EA46012003E059F804AB4FF09E
:10D99000FF3061074FF0000102D40DE008F10101F2
:10D9A0008846B9420FDA8045F8DB1AF808100029DA
:10D9B000F4D108E008F1010188468142FADB1AF847
:10D9C00008100029F6D105985B46A0EB0807214610
:10D9D0003846179A00F094FA284400EB080507E04F
:10D9E0004DE029E10DE01AF8010B5A4617999047CE
:10D9F000B8F10108F7D25B4621463846179A13E181
:10DA000042E00A220092C4F302524FF0000A022AB6
:10DA100008D059F804CB032A4FEAEC710AD00DE084
:10DA200029E02AE009F1070121F00702F2E802C12A
:10DA3000914609E00FFA8CFC4FEAEC71042A03D1FD
:10DA40004FFA8CFC4FEAEC71002907DA0A460021F4
:10DA5000DCF1000C61EB02012D2202E0220504D56D
:10DA60002B228DF80420012203E0E20701D02022BE
:10DA7000F7E7904659E00A2102E010220DE010215C
:10DA80004FF0000A00910BE010224FF0000A44F022
:10DA900004040827009203E008224FF0000A0092D5
:10DAA000C4F30252022A05D059F804CB0021032AFC
:10DAB00008D009E009F1070121F00702F2E802C1EC
:10DAC000914605E01FFA8CFC042A01D10CF0FF0CF2
:10DAD0004FF00008220728D5702806D0009B83F05D
:10DAE000100353EA0A0305D00EE040228DF804200B
:10DAF000012208E05CEA010206D030228DF8042001
:10DB00008DF8050002229046009B83F0080353EA3B
:10DB10000A030AD15CEA010201D1620705D530226D
:10DB20008DF804204FF001087F1E582804D034A03F
:10DB300003900EA802900DE036A0F9E75346604628
:10DB4000009AFEF767FD84460398825C0298401EA7
:10DB5000029002705CEA0100F0D1029806A9081A4E
:10DB600000F1200A600702D524F4803400E0012788
:10DB7000574502DDA7EB0A0000E0002000EB0A0198
:10DB8000009005984144401A0590E00306D45B4696
:10DB90002146179A059800F0B3F90544002706E0DE
:10DBA00001A85A46C05D179990476D1C7F1C4745D8
:10DBB000F6DBE0030CD55B462146179A059800F08A
:10DBC0009FF9054404E030205A46179990476D1C90
:10DBD0000099481E00900029F5DC08E0029802999F
:10DBE0005A460078491C0291179990476D1CBAF16A
:10DBF0000001AAF1010AF1DC65E100000928010039
:10DC000030313233343536373839616263646566B2
:10DC10000000000030313233343536373839414274
:10DC2000434445460000000000F058F90544761CC6
:10DC3000307800287FF4ECAD19B02846BDE8F08FAD
:10DC4000620700D4062709F1070222F0070CFCE85E
:10DC50000223E14603F000485FEA080C02D00FF20D
:10DC6000702C0DE05FEA045C02D50FF2682C07E02F
:10DC70005FEAC47C02D00FF2602C01E0AFF2700CBE
:10DC80004FF0FF3823F00043CDF850C065280CD08A
:10DC900006DC452809D046281DD047283DD13DE067
:10DCA000662818D067287ED138E00021112F01DBCB
:10DCB000112000E0781CCDE9000106A90EA8FFF7AD
:10DCC000EDFCDDE90F010E9A03910021009207F1AE
:10DCD000010A04914DE04FF000400097CDE901109A
:10DCE00006A90EA8FFF7DAFCDDE90F0203920E9BEE
:10DCF00011990022DDF80CA00093049211B9791C4F
:10DD000000EB010AB7EB0A0004D4C0F1FF3007F1C1
:10DD1000010A0490AAEB0700019044E0012F00DA09
:10DD200001270021112F01DD112000E03846CDE947
:10DD3000000106A90EA8FFF7B1FCDDE90F010E9A5C
:10DD40000391002104910092BA4621070CD4039953
:10DD5000514500DA8A46BAF1010F05DD009AAAF1B1
:10DD60000101515C302908D0B84202DA10F1040FE9
:10DD700006DA0121CDE9011015E0AAF10101E9E778
:10DD8000002805DC049901440491AAEB000102E09B
:10DD9000411C514500DD8A460499401A401C0190FF
:10DDA0004FF000400290200704D40198504501DB59
:10DDB000CDF8048000208DF84F0002980DF14F0738
:10DDC000B0F1004F25D02B200E9002984FF00208A2
:10DDD00000280CDA404202902D200E9007E00A2124
:10DDE0000298FEF701FC3031029007F8011DB8F1EE
:10DDF0000001A8F10108F2DC02980028EFD1791E99
:10DE00000E980870307800F0200040F0450007F8C8
:10DE1000020D12A8C01B00F107081498007800B189
:10DE2000012000EB0A01019801EBE07105984144E3
:10DE3000401A401E0590E00306D45B462146179A1F
:10DE4000059800F05DF805441498007818B15A461A
:10DE5000179990476D1CE00324D55B462146179A1D
:10DE6000059800F04DF805441CE00498002807DBF5
:10DE7000DDE90301884203DD0098405C179901E069
:10DE8000179930205A469047049805F10105401C27
:10DE900004900198401E019004D12E205A461799F3
:10DEA00090476D1CBAF10001AAF1010ADDDC05E022
:10DEB00017F8010B5A46179990476D1CB8F10001ED
:10DEC000A8F10108F4DC5B462146179A0598ABE6F9
:10DED0002D0000002B000000200000002DE9F04183
:10DEE000044600251E461746880404D405E039463A
:10DEF0002020B0476D1C641EF9D52846BDE8F0818E
:10DF00002DE9F041044600251E469046C80301D580
:10DF1000302700E02027880404D505E04146384634
:10DF2000B0476D1C641EF9D52846BDE8F0812DE987
:10DF3000FC4104468846154600202E880021298091
:10DF4000616B002907D0087833462A46414604F021
:10DF5000D7F900287DD1276B3FB133462A46414689
:10DF6000384604F057FE002873D194F82E703FB164
:10DF700033462A464146384602F072FC00287CD1DE
:10DF800094F82D1031B132462946404600F0B6FDD6
:10DF9000002872D1A17831B132462946404600F0BE
:10DFA00057FA002869D1E17841B194F9030033466A
:10DFB0002A46414601F055FF00285ED1616841B113
:10DFC00091F9000033462A46414605F00FF9002832
:10DFD00053D1218951B1CDE9005643460622022191
:10DFE00004F1080005F0F4FA002846D1218A51B165
:10DFF000CDE9005643460722032104F1100005F045
:10E00000E7FA002839D1218B51B1CDE900564346BA
:10E010001522142104F1180005F0DAFA00282CD199
:10E02000276A3FB133462A464146384601F012F886
:10E03000002822D1676A3FB133462A464146384616
:10E0400002F04EFE002818D194F82C1049B1334646
:10E0500000E012E02A464146204604F0EDF900288F
:10E060000BD12178002908D002B033462A46414618
:10E070002046BDE8F04102F067BEBDE8FC81C078F3
:10E08000400701D4072070470020704710B50122D7
:10E090000221002000F040FE08B1072810D107221D
:10E0A0000221012000F038FE08B1072808D1002124
:10E0B0000A22084600F030FE08B1072800D10020EF
:10E0C00010BD000010B598B038210AA8FEF745FA37
:10E0D00002208DF8280001248DF82A4006208DF8B2
:10E0E0002B00ADF838400D480F90242101A8FEF711
:10E0F00034FA8DF810404FF496700590B4200690D5
:10E10000002001460090064B01AA0AA800F06AFA16
:10E11000002801D000F018F818B010BD86200020AB
:10E120005B130200BFF34F8F05480168054A01F4F5
:10E13000E06111430160BFF34F8F00BFFDE70000B6
:10E140000CED00E00400FA050EB5002100910191EC
:10E1500002906A4644F20100FFF7E4FF0EBD0000A2
:10E16000014B1B68184700002037002010B582685B
:10E17000C3689A1A002A03D001F060FE002010BD87
:10E18000052010BD002905D012B1531E134203D043
:10E19000092070470E207047016083800021816054
:10E1A000C1600020704710B58268C3689A1A8388DE
:10E1B0009A4203D801F04CFE002010BD042010BD8F
:10E1C000F8B50C462678A168074A01EB410152F8E0
:10E1D00021500649024604F10800096A00913146BF
:10E1E0002369A847F8BD00008838002030210020AE
:10E1F00010B5074A117801EB810102EB8101091D7D
:10E20000FFF7DEFFBDE81040042004F093B90000E2
:10E21000BC370020024909680160002070470000F7
:10E22000041501400A4B9B68002B06D03AB140B15F
:10E230000068037C3BB10820704708207047072026
:10E24000704707207047417442610020704700000A
:10E250005C2100202DE9F04781460F4615461C46FB
:10E26000A8073AD00020B0B3DFF8808000269DB325
:10E2700003F096FFC8F81440032088F800002846F1
:10E28000C8F808501835002407EB470100EBC40319
:10E290001E705E709F705D6005EBC105641C032CF1
:10E2A000F4DBC8F80C6088F8016088F8026014207C
:10E2B000FEF7DEFE06211420FEF7FBFE1420FEF71B
:10E2C000E2FE484603F04AFF09480068C8F810001B
:10E2D0000020BDE8F08702E003E00120C3E707204B
:10E2E000F7E7C8F808600720F3E700005C2100208A
:10E2F00004150140F8B50E46174604460F498968D3
:10E30000002904D028B1052E05D20720F8BD082029
:10E31000F8BD0820F8BD606960B1607C01280BD0B1
:10E32000002505F01BF92B4632462146009704F0E4
:10E33000C7FBF8BD0820F8BD3546F2E75C21002098
:10E3400010B504460949896800290BD060B160699D
:10E3500050B10020207405F001F92146BDE81040BD
:10E3600004F0DCBB082010BD082010BD5C2100209B
:10E3700070B588B004460D461E4624484260002D04
:10E380001BD0A888296882B22148FFF7FBFE00282D
:10E3900014D1A889A96882B21D481030FFF7F2FE97
:10E3A00000280BD120221B496846FEF7BDF8A06863
:10E3B0000690207920B1012003E0072008B070BD4D
:10E3C00000208DF814008DF81C60607908B10E20D3
:10E3D00000E000208DF81500E0780290A07803900E
:10E3E00020780190607800900B49684602F08AFD21
:10E3F0000028E3D19DF81D0008B902F017FE03487C
:10E400000121401C02F0CEFDD8E70000542100207D
:10E41000C8380020943702003932020010B5014696
:10E420000948FFF7C0FE044664B902F02BFF48B963
:10E4300006490548FFF79AFE20B90121034802F07A
:10E440009DFE0446204610BDD838002054210020EF
:10E4500038B505460C462088001D904201D90C2095
:10E4600038BD684679DF0028FAD121880320685436
:10E470002088401C80B22080192129542088401C0B
:10E4800080B220804119BDF8000005F025F82188F0
:10E4900008442080002038BD10B5064800224221E3
:10E4A0000068FFF727FF002803D0BDE81040FFF702
:10E4B0004BBE10BDC03602002DE9F0410446207865
:10E4C0002A4F012606FA00F03860206802F0FCFEB0
:10E4D0000021606802F0EFFE2548264D007F10B352
:10E4E000A069C5F82405607D217D0843C5F86C0549
:10E4F000D4E90001C5F80C05C5F81415207D0128E4
:10E500000FD10021A06802F0D6FE207B86403E603D
:10E51000E06802F0D9FED4E90210C5F80805C5F894
:10E520001015BDE8F081A069C5F82405607D217D46
:10E530000843C5F86C05D4E90001C5F80C05C5F819
:10E540001415207D0128ECD10021A06802F0B3FE53
:10E55000207B86403E60E06802F0B6FED4E90210FF
:10E56000C5F80805C5F81015DBE7000008050050E0
:10E570009C3700200020004070B592B004460E4643
:10E580001F20119010900025002C0DD02046FFF781
:10E5900076FD002823D111AA08A92046FFF7C7FC61
:10E5A00000281CD108AC01E0002411956EB1304662
:10E5B00004F01AF8002812D110AA69463046FFF775
:10E5C000B6FC00280BD16A4601E000221095BDF888
:10E5D0004000C3B2BDF84400C1B2204672DF12B0A1
:10E5E00070BD000070B50D461146049A0446002C1B
:10E5F0003FD0E9B3414800264671C360026124223E
:10E600003F48FDF791FF00F0F1F83D493431A1F1A9
:10E61000100001602031816038215C38FDF79DFFDA
:10E620003749207838390870A0788870E078C87049
:10E6300060784870D4E90402C1E90402D4E9020216
:10E64000C1E90202D4E90602C1E90602606AE0B14A
:10E6500001F1AC00486200F10C028260636A1B8821
:10E660000380606A4B6A8088988000204B6A09E0CA
:10E6700001E00E2070BD0E2070BD666AB668365C83
:10E680001654401C9E888642F7D8A06AD8B11C4A0E
:10E69000AC32A2F10C0082608862A36A9B888380FE
:10E6A000A06A8B6A0088188000208B6A04E0A66A42
:10E6B000B668365C1654401C9E888642F7D894F89B
:10E6C0002C0081F82C00206A48B10C4814300862F4
:10E6D000226A52884280206A0A6A00881080606834
:10E6E00020B10648801D4860606848602946BDE842
:10E6F000704003483838FFF73FBF0000E420002097
:10E70000EC34002010B501882A4C102918D00022C2
:10E7100011291BD01B2918D1007A002815D1607946
:10E72000012823D002282CD0032835D004280CD16E
:10E7300022711046E168002907D0BDE81040084763
:10E74000817D012901D18088208110BD627080887F
:10E7500021898842F9D1012000F076F80028F4D010
:10E7600021690029F1D0BDE810400847022000F0DF
:10E770006BF80028E9D021690029E6D0BDE81040F7
:10E780000847032000F060F80028DED02169002946
:10E79000DBD0BDE81040084703202071042000F0C2
:10E7A00053F80028D1D021690029CED0BDE810400F
:10E7B00008470000E420002010B5022801D00328FB
:10E7C00010D1094C207800280CD0002020706079EE
:10E7D00000F03AF8002805D02169002902D0BDE8F0
:10E7E0001040084710BD0000E4200020024800212E
:10E7F0008161818381777047E420002010B5104843
:10E800000078012819D10F4C6078B0B9607910B147
:10E8100074DF002812D101206070094806213838C1
:10E82000C1700021FFF7A8FE002807D1607900F031
:10E830000BF810B1216901B18847002010BD00001C
:10E84000EC340020E42000202DE9F04F87B0704C1C
:10E85000607101F01FFB012620B12670002007B077
:10E86000BDE8F08FFFF7C2FF6A4D0027687810B14E
:10E870006079012808D0A87810B16179012903D006
:10E8800048B16079022806D1E16819B1E670082024
:10E89000884700E0E7706079DFF874814FF0020983
:10E8A00008F11808012808D1687820B108F10100A2
:10E8B00002F010FE08B984F8059060794FF0030B60
:10E8C000022808D1A87820B108F1010002F002FE68
:10E8D00008B984F805B0287B4FF0040A20B96079A4
:10E8E000032801D184F805A0287E20B96079042886
:10E8F00001D167712771E16841B16079032801D0C6
:10E90000042803D1287808B16078C0B1A770182115
:10E9100001A8FDF722FE8DF8047002978DF80C70A7
:10E920000497607901280ED0022816D0394E24367B
:10E93000A6F15C0703281DD004284ED13CE0A67048
:10E9400007208847E3E7CDF808808DF80460ADF82C
:10E950001670ADF8147026713FE0CDF808808DF880
:10E9600004602889ADF81600A888ADF8140084F872
:10E97000049032E0A88AADF81600288AADF8140099
:10E980002448243004F092FE18B1287808B1607849
:10E9900010B184F804B020E08DF80C90049687F84C
:10E9A00003A01C4800213838FFF7E6FD00287FF45B
:10E9B00056AF0520207110E0A88BADF81400288C0C
:10E9C000ADF816001348243004F070FE18B1287812
:10E9D00008B1607868B184F804A0607918B101A822
:10E9E00073DF0028E3D1E16809B12079884700206E
:10E9F00035E78DF80C90049687F803A005480021B0
:10EA00003838FFF7B9FD0028F2D106202071E4E77D
:10EA1000E4200020EC34002038B504460D46002CDC
:10EA200017D0B5B1286820604FF6FF70E081012053
:10EA30008DF802004FF6F170ADF80000221D694616
:10EA40000120A0DF002803D12946204603F071FCF5
:10EA500038BD0E2038BD00280ED000290CD00A8801
:10EA6000102A05D0112A05D0502A05D102F0F0BC99
:10EA700002F0B6BC02F0CCBC7047000070B5054691
:10EA80001C2229461048FDF74FFD104C0026267029
:10EA9000286840B1016861604068A060201D7ADF8D
:10EAA000002810D104E00948001D7BDF00280AD1AE
:10EAB0004FF6FF7060806670BDE87040044A002128
:10EAC0000448FFF7AFBB70BDD835002004210020FB
:10EAD000FD340200F83602000188102907D0112900
:10EAE00007D0122907D0502907D102F0CDBC02F07F
:10EAF0007BBC02F091BC02F069BC70477CB5054656
:10EB00000C4620880930904201D90C207CBD684613
:10EB100071DF0028FAD12188082068542088401C21
:10EB200080B220801B2129542088401C80B2208084
:10EB30002844DDF801100160BDF8051081802088AF
:10EB4000801D80B220809DF8001031B10121295430
:10EB50002088401C208000207CBD00212954F7E73C
:10EB600010B50446204600F071FC2046FFF7B4FFC4
:10EB7000204600F085F8204602F002FC2046FFF710
:10EB8000C1FD2146BDE810400148FFF764BF000009
:10EB90001C24002000B587B0174840680690002369
:10EBA0004822164906A803F0F5FC08B1FFF7CCFA95
:10EBB00001AA0121002003F0D7FC08B1FFF7C4FA35
:10EBC0000F4803F03FFB08B1FFF7BEFA01A803F0BE
:10EBD000C1FC08B1FFF7B8FA0A4803F0B1FC08B16C
:10EBE000FFF7B2FA084803F0F5FC002801D0FFF760
:10EBF000ABFA07B000BD0000C0360200D4230020ED
:10EC0000E81F002061EB01003D2902001CB504460D
:10EC10006A46A1780C4803F011F8002813D16278F5
:10EC20000A49C2EBC20001EB80001C231A46694668
:10EC300003F0C8F8054806494C30807A51F8202086
:10EC40002146684690471CBD28210020D43600206C
:10EC50001037020010B502460020084C226000293F
:10EC600004D0084603F0C7FC002806D161680029DB
:10EC700003D1BDE81040FFF709BA10BDDC20002029
:10EC800010B5104C0188606810290FD0112917D1D8
:10EC9000401E6060002813D1FFF7F8F900280FD05C
:10ECA000216800290CD0BDE81040084728B900F0C1
:10ECB00059FA10B1216801B188476068401C606052
:10ECC00010BD0000DC20002000200870704700000C
:10ECD00010B5042807D0072811D00A2819D1BDE89B
:10ECE000104003F025BC0B481321808876DF0828EC
:10ECF0000FD000280DD0BDE81040FFF725BAFFF770
:10ED00007DFD082805D0002803D0BDE81040FFF79E
:10ED10001BBA10BD802000200720704700207047DC
:10ED20000020704738B504460C4A40F6CD41032018
:10ED3000FFF7F6FF08B1FFF707FA69460020FFF773
:10ED400089FF08B1FFF700FA9DF80000022802D001
:10ED50000020207038BD0120FBE70000D1EC01004D
:10ED60000249084490F93000704700004437002001
:10ED70002DE9F0473449087800EB800001EB80046E
:10ED8000241DE568A06800EB40012F48CC3000EB63
:10ED9000810006894789D0F8049002F0E8FFB5FBAE
:10EDA000F0F100FB1150A8B34FF0000806FB0797E5
:10EDB0006088A18808444619DFF890900020C9F8BF
:10EDC0001000B8F1000F04D002F0D1FF6188884232
:10EDD00024D0B8F1000F03D0BE4201D1A088E8B121
:10EDE000A06803281AD002F0C2FFA1882944B1FB11
:10EDF000F0F200FB12108008C9F80C0002F0B7FF17
:10EE0000B6FBF0F100FB116098B10020BE4216D0B5
:10EE100088B114E0FFE74FF00108C7E702F0A7FF51
:10EE2000B5FBF0F0C9F81400BDE8F047032003F08B
:10EE300081BB0120EAE7B9B2B0B203F093FDBDE8AF
:10EE4000F047022003F076BBBC37002030210020C1
:10EE50000649087800EB800001EB80000079042867
:10EE600001D000F073B803F0E3BC0000BC37002011
:10EE70000B49087800EB800001EB8000094AC1884B
:10EE800011620079012805D0032805D0042805D196
:10EE900004F027BB03F0CCBCFFF76ABF704700004B
:10EEA000BC3700203021002003484078002801D0E2
:10EEB000FFF7DEBF70470000BC37002000EB800288
:10EEC0000548002100EB82000171C1800222C2606E
:10EED0000161416101817047BC3700202DE9F0419B
:10EEE000069E104D6C780A2C1AD02F783C440A2CC0
:10EEF00000D30A3C04EB840405EB840420716261B6
:10EF000003C9C4E90301E38026816878401C687066
:10EF10000548007808B9FFF7ABFF0020BDE8F08195
:10EF20000420FBE7BC3700203021002010B5064943
:10EF300000200870487000242046FFF7BFFF641CC3
:10EF40000A2CF9D310BD0000BC37002010B50849C9
:10EF5000087800EB800001EB8001091D0020FFF71D
:10EF60002FF900F007F8BDE81040002003F0E2BAE6
:10EF7000BC37002010B5084C2078FFF79FFF607861
:10EF8000401E60702078401CC0B220700A2801D159
:10EF90000020207010BD0000BC3700202DE9F0419A
:10EFA0001A49C86800282BD00768DFF86480D8F8B1
:10EFB00000400E69A01B20F07F45ED1CC87808B901
:10EFC00003F0D4F8BD4200D23D46A81920F07F409E
:10EFD0000F4A3C321060D8F80010091B21F07F4125
:10EFE000C91C001B20F07F4081420DD9D8F80000D9
:10EFF00010602F20FDF74AFABDE8F04103F0EABDAA
:10F00000BDE8F04103F0CCB8BDE8F0815C21002000
:10F01000041501400188062907D34FF448634FF6D1
:10F02000FF72994203D9914201D00720704740886E
:10F03000062803D3984203D9904201D00720704795
:10F04000914205D0904203D0814201D907207047F8
:10F050000020704770B506460D4614462088801D76
:10F06000984201D90C2070BD3046FFF7D3FF00282D
:10F07000F9D12188052068542088401C80B2208066
:10F08000122129542088401C80B2208041193088E8
:10F0900004F022FA2188084480B220804119708847
:10F0A00004F01AFA218808442080002070BDFFF780
:10F0B0004BB8000000B587B01C216846FDF74DFA3B
:10F0C000002000904FF4203101914FF47021029103
:10F0D00003218DF80C10ADF80E008DF810000648D5
:10F0E0000590064806906846FFF7C8FC002801D046
:10F0F000FFF72AF807B000BDB1130200AFF001001E
:10F10000F8B5154801F056FB134D0026134C0C3D85
:10F1100038B1616919B101200090684688472E70A6
:10F12000F8BD287830B161690029F8D000966846AA
:10F130008847F4E7687860B1A16809480022006850
:10F14000FFF7D8F80028EAD0A1690029E7D088475E
:10F15000E5E76168F1E7000010210020D8350020C4
:10F16000F836020010B5002101220846FFF7D4FD51
:10F1700008B1072810D1072202210120FFF7CCFD9A
:10F1800008B1072808D1042202210020FFF7C4FD9E
:10F1900008B1072800D1002010BD0000F0B50546D9
:10F1A000082000230B4E4FF6FF7C03EB430406EBD5
:10F1B0008404A77A0F4208D0654502D02089A8426E
:10F1C00002D113600020F0BD05205B1C002BECD0A9
:10F1D000F0BD00001437002000EB40020748012179
:10F1E00000EB820081724FF6FF710181FF21C17235
:10F1F0000021016081808171704700001437002078
:10F2000010B5184C2079000727D46069401C606154
:10F21000E06820B1BDE81040042003F089BB01F094
:10F22000D7FA20B1BDE81040022003F081BB20696D
:10F2300078B16068C10704D0BDE81040032003F036
:10F2400077BB40F001006060BDE81040002003F093
:10F250006FBBBDE8104003F04BBBBDE8104003F0AE
:10F2600053BB00003021002006494868020707D43C
:10F27000820702D540F001004860022003F058BB2D
:10F2800003F042BB302100202DE9FC4104460E462C
:10F29000A1786A46254802F0D1FC002843D1607865
:10F2A000234F00EB400007EB8000807A400610D42B
:10F2B000022E0ED0012E0ED01E4DA0781E49C0EB9E
:10F2C000C00001EB800100231C226846A84720B142
:10F2D00019E01A4DF1E71A4DEFE7022E13D06078CE
:10F2E00000EB400007EB8000817A21F04001817241
:10F2F0000F4960784039C0EBC00001EB80011C234E
:10F300001A466846A847022E0DD02078084900EB1F
:10F3100040000C3101EB80000A49807A51F820202E
:10F32000214668469047BDE8FC8100002821002066
:10F3300014370020CD2702001036002005200200DF
:10F34000411F0200003702002DE9F04705468946BB
:10F350009046052700240F4E35B9C4EBC40006EBD8
:10F360008000008B404510D04DB1C4EBC40006EBCB
:10F370008000103007222946FDF7FAF828B1641CF6
:10F38000072CE9D33846BDE8F087C9F800400027CC
:10F39000F8E70000103600207CB50546A9B26A46A1
:10F3A000074802F04BFC044644B97421684602F059
:10F3B00079FC044614B9284602F096F820467CBD34
:10F3C0002821002010B51046002801D0FEF7BCFE11
:10F3D000002010BD1FB5039002F0CEFC08B1FEF76F
:10F3E000B3FE03A800F086FA08B1FEF7ADFE0020D8
:10F3F000CDF805008DF809009DF8050040F00100EA
:10F4000020F0020020F0040020F0080020F070003E
:10F41000303020F080008DF8050007208DF80600C0
:10F4200010208DF807000748009001208DF8040097
:10F430006946054800F0C0FB002801D0FEF784FEB5
:10F440001FBD0000C5F30100822000202DE9F04F10
:10F450008FB00446FF270D970025AB46FE48007885
:10F4600000287CD0DFF8F483D8F80000002876D09C
:10F470000CA800F032FA08B1FEF766FE0026201D47
:10F480000A902C20ADF82C00FF208DF832000020CF
:10F490008DF830000E90F14F20880C3F10280FD0CF
:10F4A000A0880EAA0221FFF779FE48B90E9800EB5A
:10F4B000400107EB8101C97A8DF832108DF83100D7
:10F4C000DFF898A32088AAF14C0A1322AAF1C409F4
:10F4D000192870D008DC10280ED0112859D0132814
:10F4E0006AD0142813D17FE0DD491A287AD01E286B
:10F4F00079D05228F6D1CDE10EAA4FF6FF7801213E
:10F500004046FFF74BFE022210B1042038B1CCE197
:10F510000E9901EB410107EB81018A72F6E70125A3
:10F5200011218DF824100E998DF8311001EB410155
:10F5300007EB8101A3880B818A72A2680A60A28905
:10F540008A80A27B8A71E17DCA0709D0C24A08324B
:10F5500002EB51010978FF2908D00D9106E0B9E1CD
:10F5600042460DA904F10800FFF7EEFE0028CED1B7
:10F57000DDE90D1000EB400007EB8000C172827ADC
:10F5800042F0080282728DF832100CA8FFF73EFBA1
:10F590008BE10E9800EB400007EB8001887A20F0A9
:10F5A00002008872010708D500060FD500210CA8BB
:10F5B000FFF76AFE0AE0C7E049E09DF83200FF2845
:10F5C00004D001F091FFFF208DF832000E98102139
:10F5D00000EB400007EB80008172012512208DF8BE
:10F5E000240062E10AE15DE10E9800EB400007EBC8
:10F5F0008000C07AFF2815D1228A0DA90020FFF7CC
:10F60000A3FE78B9DDE90D1000EB400007EB8000A8
:10F61000C172827A42F0080282728DF832100CA810
:10F62000FFF7F4FA0E9800EB400107EB8101C97A6D
:10F63000FF2903D0C0EBC0010AEB810BC0EBC00077
:10F6400009EB8002A0880023594686DF2DE18DF862
:10F6500024200E9800EB400007EB8001887A40F0F0
:10F66000040088720125CA7AFF2A0FD040F04000BA
:10F67000887216208DF824000023A0881A46852160
:10F680007FDF002884D0064600250EE10DAB48F24E
:10F6900043020020C0EBC00C09EB8C0C9CF81AC094
:10F6A000BCF1FF0F26D0401C0728F3D3C2B3164687
:10F6B0000125002105910E9800EB400207EB820224
:10F6C000D27AC2EBC20209EB82020692079108913C
:10F6D000C0EBC0000AEB80000190029103910491FD
:10F6E000A08801AB08F104027FDF002801D00646A4
:10F6F0000025DAE00A78022A13D0C0EBC00209EB39
:10F7000082024FF0FD0C82F81AC0D1F800C0C2F896
:10F7100010C0B1F804C0A2F814C08979917506E050
:10F7200008E0C0EBC00109EB8101FE228A76187067
:10F730000022BBE70D988DF832000E9901EB4101D4
:10F7400007EB8101C872B4E798F8090020F00100C6
:10F7500088F809000E9A02EB420C07EB8C00817AC4
:10F7600021F00403837214218DF824100125217ADD
:10F7700031B1590603D4C07AFFF70EFE267A94E021
:10F78000617A490739D59DF83210FF2935D043F009
:10F7900008038372637B9B0707D5C1EBC10309EBA9
:10F7A00083039C7E24F001049C76C37AFF2B7CD0DB
:10F7B00017F82C30022B0ED0C1EBC10109EB8101EF
:10F7C00002680A6182888A8280798875887E20F042
:10F7D000020088760DE0C2EBC2000AEB8000428A8C
:10F7E000C1EBC10009EB80000283817E21F00101A1
:10F7F000817601210CA8FFF747FD56E0207A01220F
:10F80000B2EB101F31D100F00F0001282DD10E985E
:10F8100000EB400207EB8202927A120725D50F49CE
:10F8200000EBC000303901EB800008301A21FCF7F2
:10F8300094FE16208DF824000E9800EB400007EB94
:10F840008000817A41F0200141F04001817298F8F6
:10F85000090040F0020005E01821002020370020B8
:10F860002037020088F8090011E00E9800EB4000F4
:10F8700007EB8000827A42F08002827215208DF8B8
:10F88000240098F80A0051F820100CA88847002698
:10F8900001250AE098F80A0051F820100CA88847C2
:10F8A000064602E08DF824200125002D12D03246B4
:10F8B00009A90CA8FEF754FC9DF82400122809D1D0
:10F8C0000E9800EB400107EB8101897A012901D0F4
:10F8D000FFF782FC0FB0BDE8F08F002806D0FF21B3
:10F8E000017041708170C1700020704748F20E00B5
:10F8F000704700002DE9FF410646002E47D000204A
:10F90000324A002500EB400142F8215002EB810110
:10F910004D728D72401C0028F4D000242046FFF761
:10F920005BFC641C002CF9D0284824213038FCF7FB
:10F9300014FE0024264F4FF0FF08204601F0D4FDAE
:10F9400007F80480641C072CF7D37420ADF80C0072
:10F950000720ADF80E001F4802901D4902A808318B
:10F9600002F08CFA00280FD1194F0120083F38709F
:10F97000307878B1BDF80C00BDF80E10484381B264
:10F9800007F1100002F08EF904B0BDE8F08148F2F2
:10F990000E00F9E70024104E0D48A1B26A46083067
:10F9A00002F04CF908B13D70EEE7C4EBC40006EB81
:10F9B000800000231C22694602F004FA08B13D7061
:10F9C000E2E7641C072CE7D3DEE7000020370020C5
:10F9D00020210020DDF90100103600202DE9F04F34
:10F9E00091B08346DDF868800F4691461D466E480B
:10F9F0000068002876D0B8F1740F73D801260DA8DE
:10FA0000FFF76BFF08B1FEF79FFB4FF0000A8DF880
:10FA100034A08DF838A00C95CDF82C800024A1B22C
:10FA200008AA624802F00AF928B9082208A958462B
:10FA3000FCF79EFDD8B1641C072CF0D39DF836006E
:10FA4000FF284FD04FF0200B4FF0400C0AAC032F93
:10FA500010D0574A4FF01C0EA91AB1FBFEF101233A
:10FA6000072921D20F94B9F1000F0CD015E08DF8C1
:10FA70003640E3E7B8F1740F02D08DF838C06FE07C
:10FA80008DF838B06CE049498340103949680B4221
:10FA900001D0012100E0002121B103F025FD8DF806
:10FAA00038B05DE000265BE0DFF8FC80A8F14C0890
:10FAB000A5EB0801B1FBFEF1A9B108F11C02A91ADE
:10FAC0004FF02408B1FBF8F802F12401B8F1000F5F
:10FAD00021D000268DF838C0364A95422AD1032716
:10FAE00001263DE04EE00F948DF838B08DF835A03A
:10FAF000CDF810A02C480C300590CDF800809DF872
:10FB00003600C0EBC00002EB80000190CDF830D091
:10FB1000CDF82CB024E030208DF838008DF835A0D9
:10FB20008DF83730887A80071AD424211046FCF7E4
:10FB300014FD15E01E4A1C3A52F82020AA420FD1AB
:10FB400001260F94002303EB430201EB8202D27AD9
:10FB5000904202D18DF8353002E05B1C002BF2D0D0
:10FB6000002E0FD0032F10D0022F15D09DF8380093
:10FB700040F002008DF838000F944A460EA90DA8F7
:10FB8000FEF7EEFA11B0BDE8F08F9DF8380040F0B6
:10FB900003008DF83800EFE79DF8380040F00100D1
:10FBA0008DF83800E8E700002037002028210020E9
:10FBB00010360020FC36020010B5044619480078C3
:10FBC00000280ED048F20E00002C09D0002907D0E2
:10FBD0000A68002A04D0144803682BB148F20400D4
:10FBE00010BD48F2080010BD02600F4BD1F805208F
:10FBF0002C3B1A634A7A83F834200979817222F007
:10FC0000010141F0020121F004010172C17941F0CA
:10FC1000010141F0020121F00401C17100202070B6
:10FC200010BD0000182100202037002010B50E4A1A
:10FC3000002351789478A14212D0491CC9B2517066
:10FC4000022900D1537008495378183151F8231014
:10FC500001601069084420F07F401061012010BD50
:10FC60000360002010BD00005C21002010B50B4C8B
:10FC7000207900070ED46069401C606100F0A8FD87
:10FC800020B12078BDE8104002F054BCBDE810401F
:10FC9000FFF7DEB8BDE8104001F018B830210020B1
:10FCA0000948007806280BD10748001D0078000796
:10FCB00006D1054808300078C0F30310032801D0AE
:10FCC0000020704701207047E00F00F00D480078D9
:10FCD00006280FD10B48001D007800070AD10948FB
:10FCE00008300078C0F30310032805D0042805D09D
:10FCF000052805D00020704701207047012070477B
:10FD000001207047E00F00F00948007806280BD169
:10FD10000748001D0078000706D105480830007824
:10FD2000C0F30310032801D0002070470120704762
:10FD3000E00F00F00D48007806280FD10B48001D99
:10FD4000007800070AD1094808300078C0F3031092
:10FD5000032805D0042805D0052805D000207047C9
:10FD6000012070470120704701207047E00F00F02C
:10FD70000948007806280BD10748001D00780007C5
:10FD800006D1054808300078C0F30310032801D0DD
:10FD90000020704701207047E00F00F0094800780C
:10FDA00006280BD10748001D0078000706D105483A
:10FDB00008300078C0F30310032801D000207047FA
:10FDC00001207047E00F00F00948007806280BD1A9
:10FDD0000748001D0078000706D105480830007864
:10FDE000C0F30310052801D00020704701207047A0
:10FDF000E00F00F0F0B500240F4F19E01D688542B8
:10FE000003D91968081A1860F0BD401B2C4400265D
:10FE10001E601E46DD69FD60DD684DB101EB040C1E
:10FE20002CF07F4CC3F804C09D601568DD6116603E
:10FE3000FB68002BE2D1F0BD5C2100208268838842
:10FE40001A4003689A5C0A708168491C8160704797
:10FE5000C26883881A4003689954C168491CC1600C
:10FE6000704730B51488E51C9D4201D90C2030BD87
:10FE700002230B5513885B1C9BB213800124CC54C6
:10FE800013885B1C9BB21380C8541088401C1080E0
:10FE9000002030BD08B500200090684601F0BCFE8F
:10FEA000082802D008B1012008BD082805D16846FD
:10FEB00000F04CF808B1002008BD009808B10120FE
:10FEC00008BD002008BD0000002808D0112801D07E
:10FED000FEF78EB90248416841F008014160704761
:10FEE0003021002008498869401C8861B0F57A7F7C
:10FEF00007D00878022801D002F01CBB487802F035
:10FF000017BD0D20FEF774B9302100200748007896
:10FF1000012805D0022805D0032805D1FFF7A6BE89
:10FF200002F08ABC02F0FABC7047000030210020C9
:10FF300028DFFFF7C9BF29DFFFF7C6BF10B50446AA
:10FF4000E0B2FEF76BFA204610BD0000002804D096
:10FF50000349496D0160002070470320704700008D
:10FF6000E83800200EB59DF8000020F00F00401C7E
:10FF700020F0F000103000900C220EA168467CDFCB
:10FF8000002801D0FEF7E0F8002001900290062141
:10FF9000ADF804100C21ADF80610ADF808004FF4D0
:10FFA000C870ADF80A0001A87ADF002801D0FEF77A
:10FFB000CBF80EBD49514959492041726D6C6574A9
:10FFC00000000000002070470020704700207047AC
:10FFD0002DE9F04705460027B84600246878DFF889
:10FFE0009CC000EBC0010CEB810600EB4000736885
:10FFF0000CF1240909EB8000002B0BD0827A5FEA18
:020000040002F8
:10000000026A07D5520605D406F108071FFA83F8DD
:100010005CF821400089234642463946A9DF0B2877
:100020000AD101246878234600EB400009EB8000E8
:10003000424600893946A9DF48F2410600B1304600
:10004000012C16D168784FF6FF7200EB400009EBE7
:1000500080000C210089A7DF00280AD0A0F54051BC
:10006000023908D0082806D0891E04D0112802D0F1
:100070000020BDE8F0873046FBE70000F0360020A6
:1000800070B506460C460B4D6078382300EBC00077
:1000900005EB80002422314601F094FE002808D1AF
:1000A000617801EBC10105EB81014A68521C00D166
:1000B0004A6070BDF03600202DE9F04188B0074657
:1000C0000C464FF003081A2007906078294D00EB8A
:1000D000400005EB80004346008907AA6946AADF75
:1000E000002843D16078A5F1240600EBC00006EBA0
:1000F00080000830BDF81C206946FCF739FA40B191
:10010000607800EBC00106EB8100406888B11A4DB1
:1001100010E0607800EB400105EB8101897A8907E6
:1001200024D400EBC00006EB80002421FCF715FA74
:100130001CE0124D46F821806178BDF81C2001EBCF
:10014000C10006EB80004260617801EBC10006EB64
:10015000800008306946FCF7E7F96078382300EB47
:10016000C00006EB800124223846A84708B00020D2
:10017000BDE8F0811437002005200200411F020075
:10018000FFF726BFFFF77CBFFFF796BF10B590EDD6
:10019000000A60EE000A90ED010A40EE000A90EDC0
:1001A000020A40EE000A10EE900AFCF7EEF941EC6C
:1001B000100BFDF703FA51EC100BFCF7F9F900EE08
:1001C000100A10BD0EB5D0E900128068CDE900120A
:1001D00002909DED000A60EE000A9DED010A40EEDE
:1001E000000A9DED020A40EE000A10EE900AFCF7AC
:1001F000CCF941EC100BFDF7E1F951EC100BFCF7D9
:10020000D7F900EE100A0EBD1FB590E80E00C068C9
:100210008DE80E0003909DED000ADDED010A20EE51
:10022000000A00EEA00ADDED020A00EEA00ADDEDF4
:10023000030A00EEA00AFDF7FEF9DDED000A80EEEC
:10024000802A9DED011AC1EE000ADDED021A81EE51
:10025000801ADDED032AC2EE801AB0EE420A1FBDFD
:100260000EB5D0E900128068CDE900120290684610
:10027000FFF7A8FFDDED000AC0EE801A9DED011A20
:10028000C1EE000A9DED022A82EE001AB0EE610A6C
:100290000EBD000008B572B66846FDF7BBFF0F4AF9
:1002A00000981168401A20F07F409060B0F5004F30
:1002B0000BD3A0F500409060506800F57A70506054
:1002C00001F5004121F07F40106090684FF47A7191
:1002D0004843516801EBD03062B608BDA820002029
:1002E00070B5154C2079000721D400F093FA002551
:1002F00048B1E560606840F001006060BDE87040B2
:10030000002002F015BB00F063FA28B1E560BDE8FB
:100310007040022002F00CBB206920B1BDE87040A3
:10032000032002F005BBBDE8704002F0E1BABDE871
:10033000704002F0E9BA00003021002010B5002121
:10034000054C012800D0E1706170FFF7A3FF143065
:10035000A060002010BD000094200020012820D1C2
:1003600012488179C27941EA0222A0F10C010A8087
:10037000027A437A42EA03224A80827AC37A42EAC4
:1003800003228A800278437842EA0322CA80827874
:10039000C37842EA03220A810279407942EA0020C6
:1003A0004881034900204870704700008C340020C9
:1003B0009420002003490A6802604A684260896804
:1003C00081607047803400207047000010B5284CD1
:1003D0002078002807D0607828B9264A0C212220EE
:1003E00000F04EF860702078617808431DD1FFF767
:1003F00051FFA168884218D3E078B8B1012821D014
:10040000022812D1A07803282BD2194A0C3202EB11
:10041000400112F810004978174A00F05BF860704C
:10042000002802D0A078401CA07010BD124A012103
:100430000F2000F025F860700028F6D0E078401C0E
:10044000E07010BD0D48017800206A2905D0E070E9
:10045000FFF720FF3230A06010BD0221E170A070D4
:1004600010BD01202070BDE8104000F02BB8000046
:10047000942000205D0302003D0302008C34002024
:1004800070B586B004460D461646142101A8FCF747
:1004900064F80A4804716A208DF804000748001DBA
:1004A000039001208DF81000054802908DF811503E
:1004B000059601A802F0DAFC06B070BD9420002079
:1004C0008C340020024800214170C1708170704757
:1004D0009420002070B586B006460D4614461421BF
:1004E00001A8FCF73AF8084B1E705D706A208DF881
:1004F0000400039302208DF81000059401A802F077
:10050000B5FC06B070BD00008C34002030B55D49EC
:1005100000230B604B609FED5C0A80ED020A80EDCA
:10052000010A80ED000A80ED050A80ED040A80EDE5
:10053000030A80ED080A80ED070A80ED060A43628F
:10054000C0F88832C0F88432C0F88032C0F8A032D7
:10055000C0F89C32C0F89832C0F89432C0F890329B
:10056000C0F88C32C0F84033C0F8A435C0F8A035CC
:10057000C0F89C35C0F8BC35C0F8B835C0F8B43503
:10058000C0F8B035C0F8AC35C0F8A835002200EB93
:100590008201C1F8B831C1F8F0308B62C1F8D434AF
:1005A000C1F80C34C1F84433521C322AEFDB80ED21
:1005B000AB0A80EDAA0A80EDA90A80EDAE0A80EDB3
:1005C000AD0A80EDAC0A80EDB10A80EDB00A80ED95
:1005D000AF0AF7EE000AC0EDB40AC0EDB30AC0EDF1
:1005E000B20A00F5806181ED720A81ED710A81ED38
:1005F000700A81ED750A81ED740A81ED730A81ED4F
:10060000780A81ED770A81ED760AC1ED7B0AC1EDAA
:100610007A0AC1ED790AC0F83C33C0F83833C0F823
:100620002037C0F81C370022012500EB8204C4F8F3
:10063000D45202EB420400EB840404F5BE6425604E
:100640006560A560521C192AEFDB81EDD00A81EDAF
:10065000CF0A81EDCE0AC1EDD10A81EDD20A81ED3A
:10066000D30A81EDD40AC1EDCC0A81EDCB0A00F2A8
:1006700024700361036043609FED040A81EDD90A91
:1006800030BD0000D4200020000000000AD7A33CA9
:10069000F8B5194E307800282DD0306928B10024E3
:1006A000F06820B1002524B110E00124F8E701250D
:1006B000F9E7684652DF052803D020B1FDF744FD75
:1006C00004E0012402E03169009888477DB9708810
:1006D00000906946B06861DF052803D020B1FDF7BE
:1006E00033FD04E0012502E0D6E902018847002C31
:1006F000D9D0002DD7D0F8BD882100207FB5054680
:100700000C4604F1260294F8210094F82010CDE95B
:100710000010D11E2846E36902F049FC002823D1CD
:1007200094F8230008BB207B022801D003281CD1A9
:100730002269E169914218D16269E261E37B84F840
:100740002030217EC1F3401184F82110032806D007
:1007500004B029462046BDE8704002F0D4BB0091A9
:100760002946204602F096FC7FBDD4E90412E068D9
:1007700001AB07C394F82300002178B1D5F8C40475
:10078000C5F8C404820703D501208DF8000007E0F6
:10079000400705D502208DF8000001E08DF800101B
:1007A00084F82410207E4007DED4D4E90021684676
:1007B00090477FBD054940880A88904204D3498804
:1007C000884201D80120704700207047082100208E
:1007D00070B50E49087800EB800001EB80042569B4
:1007E00001F0C5FAE18822896D1E11442944B1FB4C
:1007F000F0F007494A69824205D301D1086910B176
:100800004FF0000070BD4FF0010070BDBC370020FC
:100810003021002070B50D49087800EB800001EB15
:100820008004256901F0A3FAE18822896D1E114434
:100830002944B1FBF0F006490A6922B149698142B5
:1008400001D1012070BD002070BD0000BC37002028
:1008500030210020800701D0002070470120704720
:1008600030B51488E51C9D4201D90C2030BD02250D
:100870000D5513885B1C9BB213801C24CC54138829
:100880005B1C9BB21380012807D0022808D00328E4
:1008900009D0042809D0072030BD0020C85406E044
:1008A0000120C85403E0CD5401E00320C85410884F
:1008B000401C1080002030BD2DE9F0411A4FD7F8C0
:1008C0000C803E7824E0B86800EBC6052C781CE06C
:1008D000686804EB440100EBC100641CE4B2A97831
:1008E000A14200D100240178022902D003290CD1B1
:1008F00003E0406802F0BEF807E0002102E0017466
:10090000C069F860F8680028F9D16878A042DFD1A2
:10091000761EF6B2D7D2F868404502D00120BDE875
:10092000F0810020FBE700005C2100202DE9F0476A
:100930000546DFF8C080D8F80C9098F800600027D2
:100940004CE0D8F8080000EBC60441E015B1284699
:10095000C5691EE02078616800EB400201EBC2012E
:10096000401CC0B22070A278904200D12770486825
:100970000A78012A2CD1027C52BB8A684260CA687C
:1009800082600A69C2604969816198F8041001B106
:1009900047604168D8F81030DFF85CC0CA1A22F00E
:1009A0007F42624503D281681144016009E0591A0F
:1009B00021F07F4182688A4202D9511A016000E029
:1009C00007604760876001210174C76102F02EF85B
:1009D000002DBBD1207861788842B7D1761EF6B25F
:1009E000AFD2D8F80C00484502D00120BDE8F0870E
:1009F0000020FBE75C210020FFFF7F0030B587B0BF
:100A00000F4C2078002802D0002007B030BD0D48E0
:100A1000D0E900128068CDE9041206900848401C15
:100A20000090012501950848029068020390062372
:100A3000064A694604A8FDF79BFC2570E5E700001F
:100A40007C210020B4370200403900201F32020010
:100A50000FB410B503A90298FCF7A8FD10BC5DF80F
:100A600014FB000010B50021054C012800D0A17036
:100A7000E170FFF70FFC0A30A060002010BD0000FD
:100A8000C0200020012810D10A480178427841EAAC
:100A9000022209490A808278C37842EA03224A8006
:100AA0000279407942EA00208880034900200C390D
:100AB000C8707047A0340020CC2000200249CA68CA
:100AC0000260098A81807047C0200020034903200A
:100AD000086003494FF40050086070473407005025
:100AE0000805005070B5314C0025012620780028FB
:100AF0001BD0FFF7CFFBA168884215D3E078002810
:100B000012D1A078A8B1012819D02949022822D0F1
:100B1000032835D0FFF7BEFB0A30A060254A082124
:100B2000112000F04BF8E07070BD26706570A57064
:100B300070BDA670FFF7AEFB0A30A06070BD1E4A04
:100B40000121002000F03AF8E0700028F6D0A078EB
:100B5000401CA07070BD0878482805D0A570FFF72C
:100B600099FB3230A06070BD0121134A084600F0A5
:100B700025F8E0700028F6D0A078401CA07070BD69
:100B80000878052805D0A570FFF784FB3230A060F7
:100B900070BD094A0821312000F032F8E0700028C9
:100BA000F6D0A078401CA07070BD0000C0200020CE
:100BB000A0340020850A0200650A020070B586B0E4
:100BC00004460D461646142101A8FBF7C6FC0A4848
:100BD00004710C208DF804000748001D03900120CB
:100BE0008DF81000054802908DF81150059601A867
:100BF00002F03CF906B070BDC0200020A0340020F7
:100C000070B586B006460D461446142101A8FBF7C0
:100C1000A4FC084B1E705D700C208DF8040003933B
:100C200002208DF81000059401A802F01FF906B00B
:100C300070BD0000A034002008B501F0CFFF684669
:100C4000FEF770F8FDF7A6FF9DF80000FEF7C2FB67
:100C5000FFF788F9FDF736FA01F034FCFEF72AFABF
:100C6000FFF7CCFE0BA0FFF7F3FE02F0E5F8FFF76D
:100C70002DFFFFF7A9FBFDF70FFC0320FDF7E4FDB7
:100C800008B1FDF761FA0548FFF740FC00F008F8ED
:100C9000FCE7000048656C6C6F0D0A002C240020F6
:100CA00070B5084C607800280BD0074800F03CFC79
:100CB000E0680025002803DDFCF736FA00B9E5609E
:100CC000657070BD802000202C24002003484168FE
:100CD00021F008014160007801F02CBC3021002097
:100CE00070B505460E461446A888801C2188821CD3
:100CF0000A449A4201D90C2070BDFE2801D90C206B
:100D000070BD401C70542088401C80B22080FF21A0
:100D100031542088401C80B220808119288802F03C
:100D2000DBFB2188084480B22080AA8842B1A968F0
:100D300041B13044FBF7F8FB2088A98808442080A3
:100D4000002070BD072070BDF8B505460F4614465B
:100D50002978012901D1687830B12088821C9A4213
:100D600009D8012902D008E00720F8BD69780144BC
:100D7000891C994201D90C20F8BD181A801E86B230
:100D800000962188B81C084469467DDF0028F3D10D
:100D90002978022905D1BDF80000B04201D8092008
:100DA00008E00820012904D16978B14201D80091F6
:100DB00000E00096BDF80010FE2901D90C20F8BD16
:100DC0002288491CB9542188491C89B22180785451
:100DD0002088401C2080BDF800100844208000209E
:100DE000F8BD002070470020704700207047490779
:100DF000090E002806DA00F00F0202F1E02282F864
:100E0000141D03E000F1E02282F8001400F01F023C
:100E1000012191404009800000F1E020C0F88012DB
:100E2000C0F80011704700000179064A01EB81010A
:100E300002EBC10100680522C0F80025022081F8FC
:100E400022007047A038002070B506460D46317963
:100E50001F4C01EB810004EBC00494F82200002831
:100E600001D0082070BD15B91A4800EB01152260A9
:100E700063600020A06084F8250084F824002946DF
:100E8000304601F03BFF286840F20C61800000F121
:100E9000A040C0F800176868800000F1A040C0F8CA
:100EA00000173168D5E9000201F5A16108604A60C8
:100EB000A868C861206828B13068000B40B2297B5F
:100EC000FFF795FF012084F82200002070BD00008C
:100ED000A03800207837020030B40D460179084B65
:100EE00001EB810103EBC104910702D030BC062065
:100EF0007047134601682A46204630BC02F00BB901
:100F0000A03800202DE9F04104460E46204DE87E31
:100F1000002802D00820BDE8F08104B91D4C607F94
:100F200028772046FDF7C8FA6E60206928605FEADE
:100F30000608194E4FF0000718D0217F287F58B1BE
:100F4000C6F81071C6F82071C6F82471C6F844714D
:100F50001248C6F8040306E0C6F81C71C6F84471CE
:100F60000F48C6F804030220FFF741FF287F18B19D
:100F70000820C6F8000502E00420C6F80005EF7559
:100F80002F76AF750120E876AF760020C3E700002A
:100F90009C37002030370200002000401003020080
:100FA000800002002DE9F0031E4D2B7F002B08D09E
:100FB0004FF40052B2EB104F03D01020BDE8F00305
:100FC00070470022184E6C684FF404774FF4017C90
:100FD0002CB113B1C6F8087301E0C6F808C395F840
:100FE0001780B8F1000F0BD02A7E42B12CB113B19B
:100FF000C6F8047301E0C6F804C31120DEE701223D
:1010000032B1286129764BB1BDE8F00300F06EB82B
:10101000E975E86000246C762C76F4E7BDE8F0030F
:1010200000F014B89C3700200020004010B5064C9A
:10103000207F002806D1A07E002803D101F0F6F819
:101040000120A07610BD00009C3700202DE9F05F44
:10105000DFF8908098F81A00104301D101F0E6F80B
:10106000214ED8F8040030B14FF40170C6F80403E3
:101070000020BDE8F09F4FF4A2790020C6F844019B
:101080004FF4927A4FF4847B5146304600F055F984
:1010900005465946304600F050F907464946304665
:1010A00000F04BF9044627432F43EDD055EA0400E6
:1010B00007D101F093F898F8170098F819108842B2
:1010C000E2D8002088F817000DB10320D1E70CB159
:1010D0000F20CEE798F81A10012009B13060C7E759
:1010E0007060C5E79C370020002000402DE9F05FCC
:1010F000204E4FF488790027C6F810714FF4A27A79
:10110000C6F84471C6F83405C6F83815002A11D05F
:10111000D6F8000240F02000C6F80002DFF8588040
:10112000D8F8040048B14FF40470C6F80403002056
:10113000BDE8F09F01203060F0E74FF4927B494614
:10114000304600F005F905465146304600F000F9FA
:1011500004465946304600F0FBF825430543EED0DF
:1011600088F8177008B10320E2E7002CDFD00F20C9
:10117000DEE70000002000409C3700202DE9F0470A
:1011800002461F4D287F002807D04FF40050B0EBD7
:10119000124F02D01020BDE8F08700F073F808B1BC
:1011A0001120F8E7A975AA600027AF82287F10B345
:1011B0000024144E4FF49078C6F820714FF4AC79A7
:1011C000C6F85871C6F84425C6F848150120B06025
:1011D000686870B94146304600F0BAF88246494620
:1011E000304600F0B5F85AEA0002F3D000B10F24FF
:1011F000AF752046CFE7BDE8F04700F005B8000026
:101200009C370020002000402DE9F0474FF00008F7
:101210001A4E4FF48E774FF0000AC6F81CA14FF01B
:101220000109C6F8089001F0BDFF154C606810BBBD
:10123000B5150CE03946304600F07FF810B9A08AA9
:10124000A842F7D1A08AA84201D001F0ABFFA08A42
:10125000A17D8842EED3A08AA84202D14FF00F08A8
:1012600007E03946304600F068F80028F9D0C6F8A3
:101270000C9084F816A04046BDE8F087002000409E
:101280009C3700200248807D002800D00120704754
:101290009C37002030B5DDE9034541EA420141EACF
:1012A0008301800041EA042100F1A04041EA0541A8
:1012B000C0F8001730BD1CB500220B460092114645
:1012C0000192FFF7E7FF1CBD1CB5002100910B4602
:1012D000012201911146FFF7DDFF1CBD800000F1E6
:1012E000A04000F5E060026822F44032026002682B
:1012F00042EA0141016070470121814001480160DB
:10130000704700000805005008B503490844002153
:1013100001600068009008BD006000400349084477
:101320000068012800D000207047000000600040E5
:101330004058002800D0012070474058002800D0B5
:1013400001207047D0F80403084000D00120704706
:101350004058002800D00120704710B500280AD05E
:1013600003280CD10220FDF7D9FC002807D0BDE8E6
:101370001040FCF7E9BEBDE8104001F0D9B810BD3F
:1013800070B50446094D2088102805D0112802D1D7
:101390004FF6FF70A88070BD0720FDF7BFFC08B1B5
:1013A000FCF7D2FEA088A88070BD0000802000203D
:1013B0000078002807D104483B21808876DF002888
:1013C00001D0FCF7C1BE704780200020034982682D
:1013D000CA60C0680861FDF793BE000004210020C8
:1013E0008988C18170470000074982884A808269E4
:1013F000CA60C0690861002048700448C08900289C
:1014000001D1FDF77DBE704704210020D8350020B2
:101410004FF6FF71C181704710B50A484FF6FF7152
:1014200041800021417008480068FCF789FF0028CE
:1014300006D006498969002902D0BDE81040084756
:1014400010BD000004210020F8360200D83500202D
:1014500008B5891D43890A889A4213D14A89022A0C
:1014600010D10268002A0DD00B7B497B43EA012191
:1014700001F0010111B10021009101E00121009171
:101480006946904708BD000010B5801D0F4C0188CB
:10149000E289914219D14189022916D1017B407B11
:1014A00041EA002000F0010018B1BDE81040FDF74E
:1014B00027BE07480068FCF743FF002805D0A16954
:1014C000002902D0BDE81040084710BDD8350020E3
:1014D000F83602000021425C0AB101207047491C25
:1014E0000629F8D30020704770B505460D48C5EBB6
:1014F000C50100EB81040026C4F81160A4F8156052
:1015000020461021FBF729F8FF202074A0764FF623
:10151000FF702083284601F0E7FF02481C3840F89E
:10152000256070BD1036002010B50446204600F03E
:1015300091F9002804D12046BDE81040FBF7CABC51
:1015400010BD00002DE9F0418AB0054605F12404E4
:10155000D5ED001ACDED071AD5ED010ACDED080A3B
:1015600095ED021A8DED091A2268511C322900D11D
:10157000002104EB8100D0F804C0D0F8CC70D0F882
:10158000946104EB82035A6802EB021808EB4212E2
:1015900000EE102AB8EEC02A9FEDAA0A01EE802ABA
:1015A0009FEDA94AC2EE041AFDEEE11AC0ED011A40
:1015B000D3F8CC2002EB021808EB421201EE902A7D
:1015C000F8EEE11A40EE801AC1EE840AFDEEE00A60
:1015D000C0ED330AD3F8942102EB021303EB42125D
:1015E00000EE902AF8EEE00A41EE000A80EE841A3E
:1015F000FDEEC10AC0ED650A21604168A1EB0C0255
:10160000D0F8CC10CB1BD0F894118E1BD4F87412E8
:101610001144C4F87412D4F878121944C4F878123A
:10162000D4F87C123144C4F87C12D4F8747232219C
:1016300097FBF1F7C4F85C72D4F8787297FBF1F776
:10164000C4F86072D4F87C7297FBF1F7C4F8647246
:10165000D4F85C723A44C4F86822D4F860221A4480
:10166000C4F86C22D4F864223244C4F87022D0ED5D
:10167000010AF8EEE00A80EE801A85EDAC1AD0ED92
:10168000330AF8EEE00A80EE801A85EDAD1AD0ED4F
:10169000650AF8EEE00A80EE801A85EDAE1A206841
:1016A000313090FBF1F201FB120204EB8202D2ED29
:1016B000010AF8EEE00A80EE801A85EDAF1A90FB81
:1016C000F1F201FB120204EB8202D2ED330AF8EED2
:1016D000E00A80EE801A85EDB01A90FBF1F201FB72
:1016E000120004EB8000D0ED650AF8EEE00A80EE0F
:1016F000801A85EDB11AD4ED970AF8EEE00AC0EE33
:10170000803AC5EDA93AD4ED980AF8EEE00AC0EEA9
:10171000802AC5EDAA2AD4ED990AF8EEE00A80EEF7
:10172000802A85EDAB2A00260496059606960020B1
:1017300004EB8001D1ED010AB8EEE01AC1EE000A17
:1017400070EEE30ACDED010A91ED331AF8EEC11AFD
:1017500081EE801A31EE621A8DED021AD1ED651A12
:10176000F8EEE11A81EE803A73EE421ACDED031ADB
:101770009DED043A00EEA03A8DED043ADDED050A48
:1017800041EE010ACDED050ADDED060A41EEA10AA2
:10179000CDED060A401C3228CADB9DED040AC0EEDE
:1017A000040AC5EDB20A9DED050AC0EE040AC5EDB6
:1017B000B30A9DED060AC0EE040AC5EDB40A05F5AC
:1017C0003270FEF7E3FC10EE100A204A012190422D
:1017D00006DDD5F8380305EB8000C0F8D41205E02B
:1017E000D5F8380305EB8000C0F8D462D5F838038B
:1017F000401CC5F83803192806D1D5F83C0308B9B0
:10180000C5F83C13C5F83863D5F83C0380B1002116
:10181000002005EB8002D2F8D4221144401C192884
:10182000F7DB05F5806539B19FED090A85EDCC0A36
:101830000AB00020BDE8F081B7EE000A85EDCC0AC1
:10184000F6E7000000007A44000048420AD7A33BB4
:101850000000000010B504462046FFF773FE204646
:1018600000F002F8002010BDF0B589B000F550710D
:1018700000F5806290ED030AD2EDCE0A70EE600AA8
:10188000CDED060A90ED040A92EDCF1A30EE411A22
:101890008DED071A90ED050AD2EDD01A70EE611A9F
:1018A000CDED081A0D686C1C322C00D1002401EB20
:1018B0008403D3F804C0D3F8CC60D3F8947101EB5F
:1018C000850595ED010AB8EEC02A9FEDCF0A00EE1E
:1018D000802AF0EE000AC2EE202ABDEEE22A83ED55
:1018E000012A95ED332AB8EEC22A01EE002A82EED3
:1018F000201ABDEEC11A83ED331A95ED651AB8EEC4
:10190000C11A01EE801AC1EE201AFDEEE10AC3ED04
:10191000650A0C605C68A4EB0C05D3F8CC40A61BF0
:10192000D3F89441E71BD1F874422C44C1F87442B7
:10193000D1F878423444C1F87842D1F87C423C4432
:10194000C1F87C42D1F874C232249CFBF4FCC1F88B
:101950005CC2D1F878C29CFBF4FCC1F860C2D1F83B
:101960007CC29CFBF4FCC1F864C2D1F85CC2654443
:10197000C1F86852D1F860523544C1F86C52D1F8C0
:1019800064523D44C1F87052D3ED010AF8EEE00A0A
:1019900080EE801A82ED731AD3ED330AF8EEE00A76
:1019A00080EE801A82ED741AD3ED650AF8EEE00A33
:1019B00080EE801A82ED751A0B68313393FBF4F5D3
:1019C00004FB153501EB8505D5ED010AF8EEE00ABB
:1019D00080EE801A82ED761A93FBF4F504FB153540
:1019E00001EB8505D5ED330AF8EEE00A80EE801AAA
:1019F00082ED771A93FBF4F504FB153301EB8303B7
:101A0000D3ED650AF8EEE00A80EE801A82ED781ACE
:101A1000D1ED970AF8EEE00AC0EE803AC2ED703AD6
:101A2000D1ED980AF8EEE00A80EE802A82ED712A64
:101A3000D1ED990AF8EEE00A80EE803A82ED723A32
:101A40000025039504950595002301EB8304D4ED4F
:101A5000010AB8EEE01AC1EE000A70EEE31ACDED0D
:101A6000001AD4ED330AB8EEE01AC1EE000A70EEA7
:101A7000C20ACDED010A94ED651AB8EEC11AC1EEA5
:101A8000002A32EEC31A8DED021ADDED032A41EE73
:101A9000A12ACDED032ADDED041A40EEA01ACDED0A
:101AA000041ADDED050A41EE010ACDED050A5B1CC5
:101AB000322BCADB9DED031ADFED540A81EE200ABA
:101AC00082ED790A9DED041AC1EE201AC2ED7A1A50
:101AD0009DED051AC1EE201AC2ED7B1A10EE101A08
:101AE0004B4C0123A14208DDD0F81C1701EB41014A
:101AF00000EB8101C1F8F03507E0D0F81C1701EBCD
:101B0000410100EB8101C1F8F055D2F8E811A14282
:101B100008DDD0F81C1701EB410100EB8101C1F891
:101B2000F43507E0D0F81C1701EB410100EB81010F
:101B3000C1F8F455D2F8EC11A14208DDD0F81C1719
:101B400001EB410100EB8101C1F8F83507E0D0F865
:101B50001C1701EB410100EB8101C1F8F855D0F8E9
:101B60001C17491CC0F81C17192906D1D0F82017DA
:101B700009B9C0F82037C0F81C57D0F82017E9B3CE
:101B8000009501950295002101EB410300EB8303D1
:101B900003F5BE63009C1D682C440094019C5D68A5
:101BA0002C440194029C9B6823440293491C1929EC
:101BB000EADB00989FED170A48B9D2EDCE0A92ED04
:101BC000701A70EE810AC2EDCE0A82ED730A019896
:101BD00048B9D2EDCF0A92ED711A70EE810AC2EDCA
:101BE000CF0A82ED740A029840B9D2EDD00A92ED84
:101BF000721A70EE810AC2EDD00A00E001E082EDB7
:101C0000750A09B00020F0BD00007A440000484287
:101C1000ACC527360000000006490979490701D400
:101C20000820704720B104494978016000207047BE
:101C30000E20704730210020BC3700207CB5174BA8
:101C40001B795B0701D408207CBDE0B1EAB10368D1
:101C5000022B1CD2124D03EB430455F82460B6B19D
:101C60004068CDE9003005EB8400019E038901FB4B
:101C7000036101914168408900FB0310019988428A
:101C800007D807207CBD0E207CBD0E207CBD072020
:101C90007CBDDDE9000103C200207CBD30210020B5
:101CA00088380020F8B504460D46274800794007DB
:101CB00001D40820F8BDA4B12068022813D2234E15
:101CC00000EB400056F8201069B106EB8000428915
:101CD0004168008902FB00116068814205D8072035
:101CE000F8BD0E20F8BD0720F8BDFEF7B3FD78B1B2
:101CF000D4E9000200EB400006EB80004368018954
:101D0000D61AB6FBF1F701FB17661EB10720F8BD26
:101D10001020F8BDB5FBF1F601FB165646B93DB1F2
:101D20004089414350191944884203D90720F8BD1E
:101D30000720F8BD0020024600902B4621460320D4
:101D4000FDF7CCF8F8BD00003021002088380020D5
:101D500010B54FF010204469601C04D000F007F863
:101D6000B4FBF0F010BD4FF08050406910BD4FF053
:101D70008050006980B2704770B5FDF7D7F80F4DFD
:101D800000246C80FFF7E4FFC61EFFF7F0FF464318
:101D9000AE606C6100200A4A00EB400142F821402D
:101DA00002EB81010C814C81401C0228F4D32C7081
